:020000040800F2
:1000000020980020E1010008290400089D03000851
:1000100025040008790200084109000800000000DA
:10002000000000000000000000000000490100087E
:100030007D020008000000008D010008DD060008B8
:10004000FB010008FB010008FB010008FB010008A0
:10005000FB010008FB010008FB010008FB01000890
:10006000FB010008FB010008FB010008FB01000880
:10007000FB010008FB010008FB010008FB01000870
:10008000FB010008FB010008FB010008FB01000860
:10009000FB010008FB010008FB010008FB01000850
:1000A000FB010008FB010008FB010008FB01000840
:1000B000FB010008FB010008FB010008FB01000830
:1000C000FB010008FB010008FB010008FB01000820
:1000D000FB010008FB010008FB010008FB01000810
:1000E000FB010008FB010008FB010008FB01000800
:1000F000FB010008FB010008FB010008FB010008F0
:10010000FB010008FB010008FB010008FB010008DF
:10011000FB010008FB010008FB010008FB010008CF
:10012000FB010008FB010008FB010008FB010008BF
:10013000DFF810D000F08EF800480047890B000867
:10014000AFF3008020980020224B19680868B0E8BF
:10015000F00F80F30988BFF36F8F4FF0000080F33A
:1001600011884EF00D0E7047000000000648006830
:10017000006880F3088862B661B6BFF34F8FBFF3A3
:100180006F8F00DF00BF00BF08ED00E0EFF30980D4
:10019000BFF36F8F0F4B1A6820E9F00F106008B59E
:1001A0004FF0500080F31188BFF34F8FBFF36F8F74
:1001B00001F08AFF4FF0000080F31188BDE808408D
:1001C00019680868B0E8F00F80F30988BFF36F8FF3
:1001D000704700BF40000020EFF30580704700002B
:1001E0000648804706480047FEE7FEE7FEE7FEE7D1
:1001F000FEE7FEE7FEE7FEE7FEE7FEE74907000849
:100200003101000840EA01039B0703D009E008C957
:10021000121F08C0042AFAD203E011F8013B00F8CB
:10022000013B521EF9D2704730B50B460146002003
:100230002022012409E021FA02F59D4205D303FAA8
:1002400002F5491B04FA02F52844151EA2F1010229
:10025000F1DC30BD064C074D06E0E06840F00103DC
:1002600094E8070098471034AC42F6D3FFF764FFD8
:10027000982F0008B82F000800BFFEE770472DE94F
:10028000F04102460025002600200023002400271C
:1002900091F803C00CF00F0591F803C00CF0100C9E
:1002A000BCF1000F03D091F802C04CEA050591F8AB
:1002B00000C0BCF1000F31D0146800202BE04FF0DB
:1002C000010C0CFA00F3B1F800C00CEA03069E42E0
:1002D00020D183004FF00F0C0CFA03F7BC4305FA52
:1002E00003FC4CEA040491F803C0BCF1280F06D1CA
:1002F0004FF0010C0CFA00FCC2F814C00AE091F8AF
:1003000003C0BCF1480F05D14FF0010C0CFA00FC02
:10031000C2F810C0401C0828D1D31460B1F800C046
:10032000BCF1FF0F34DD546800202EE000F1080C12
:100330004FF0010808FA0CF3B1F800C00CEA03060C
:100340009E4221D183004FF00F0C0CFA03F7BC43FF
:1003500005FA03FC4CEA040491F803C0BCF1280F31
:1003600005D100F1080C08FA0CF8C2F8148091F8D5
:1003700003C0BCF1480F07D100F1080C4FF0010891
:1003800008FA0CF8C2F81080401C0828CED354603C
:10039000BDE8F081416170470161704700BFFEE731
:1003A00008B50121142000F097F80120ADF80000F5
:1003B00004208DF8030069460748FFF760FF4FF4FB
:1003C0000050ADF8000004208DF803006946034892
:1003D000FFF755FF08BD0000000801400010014074
:1003E00008B50121082000F077F82320ADF80000BF
:1003F00010208DF8030003208DF80200694608489C
:10040000FFF73DFF01210648FFF7C6FF0221044820
:10041000FFF7C2FF20210248FFF7BEFF08BD000022
:10042000000C014000BFFEE7704708B54FF4407074
:1004300000F048F825208DF8000006208DF8010016
:1004400000208DF8020001208DF80300684600F0BE
:1004500001F808BD70B5002100230F22C47804B351
:10046000154C246804F4E064C4F5E064210AC1F189
:100470000403CA40447804FA03F184781440214309
:1004800009010E4C0678A155047804F01F050124DB
:10049000AC4005786D11AD0005F1E025C5F80041CF
:1004A00009E0047804F01F050124AC40044D0678EF
:1004B000761145F8264070BD0CED00E000E400E048
:1004C00080E100E002490143024A116070470000E8
:1004D0000000FA050CED00E029B1064A92690243DA
:1004E000044B9A6104E0034A92698243014B9A618A
:1004F000704700000010024030B5002100220024A7
:1005000000232D4D6D6805F00C0121B1042905D0A3
:10051000082923D105E0294D056022E0274D05601B
:100520001FE0254D6D6805F47012234D6D6805F4CC
:100530008034022505EB92421CB9214D55430560DC
:100540000BE01D4D6D6805F400351DB11C4D554384
:10055000056002E0194D5543056002E0174D056046
:1005600000BF00BF144D6D6805F0F0010909154D7D
:100570006B5C0568DD4045600F4D6D6805F4E0611A
:10058000090A104D6B5C4568DD4085600A4D6D6859
:1005900005F46051C90A0B4D6B5C4568DD40C560D0
:1005A000054D6D6805F44041890B074D6B5CC568CE
:1005B000B5FBF3F5056130BD0010024000127A0072
:1005C00000093D00000000201000002010B500F0E0
:1005D00001F810BD0CB50020019000903348006870
:1005E00040F480303149086000BF3048006800F4B2
:1005F000003000900198401C0190009818B90198B3
:10060000B0F5A06FF1D12948006800F4003010B1B6
:100610000120009001E0002000900098012843D1C3
:100620002348006840F0100021490860084600682F
:1006300020F0030008600846006840F002000860EF
:100640001A484068194948600846406848600846AA
:10065000406840F4806048600846406820F47C10A0
:1006600048600846406840F4E81048600846006862
:1006700040F08070086000BF0C48006800F0007017
:100680000028F9D00948406820F003000749486075
:100690000846406840F00200486000BF03484068D8
:1006A00000F00C000828F9D10CBD00000010024039
:1006B00000200240042808D14FF0E021096941F0F0
:1006C00004014FF0E022116107E04FF0E0210969D9
:1006D00021F004014FF0E0221161704710B502F0E3
:1006E0004FF9012801D001F0E3FD10BD70B50546BA
:1006F0000420FFF7DFFF104800681049B0FBF1F05D
:100700000F4908700C4800680C49B0FBF1F44FF435
:100710007A70444301200B4908804FF0E0200069C3
:1007200040F002004FF0E021086108464461006992
:1007300040F00100086170BD2800002080969800FC
:100740003C0000203E00002010B51348006840F037
:1007500001001149086008464068104908400E49E8
:100760004860084600680E4908400B490860084682
:10077000006820F4802008600846406820F4FE00ED
:1007800048604FF41F008860FFF720FF4FF00060C3
:100790000449086010BD0000001002400000FFF88E
:1007A000FFFFF6FE08ED00E021B1828942F400521D
:1007B000828104E082894DF6FF731A40828170477E
:1007C00000B585B001210420FFF786FE01218803D2
:1007D000FFF782FE4FF40070ADF8100018208DF87E
:1007E000130003208DF8120004A91448FFF747FDF9
:1007F0004FF48060ADF8100004208DF8130004A9B8
:100800000E48FFF73CFD4FF4E13000900020ADF8BA
:100810000400ADF80600ADF80800ADF80C000C209F
:10082000ADF80A006946064800F01AF8FFF7FDFD2A
:1008300001210348FFF7B8FF05B000BD00080140E3
:100840000038014002460020B1F5007F00D100BF12
:1008500013880B400BB1012000E00020704700001E
:100860002DE9F04786B005460E460024A24600BF9B
:10087000A1460027B08900B100BF2F462C8A4CF654
:10088000FF700440F08804432C82AC894EF6F310CC
:100890000440B08831890843718908430443AC811E
:1008A000AC8A4FF6FF400440B0890443AC8201A8F3
:1008B000FFF722FE1F48874202D1DDF810A001E0B9
:1008C000DDF80CA0A88900F4004040B10AEBCA0092
:1008D00000EB0A1031684900B0FBF1F807E00AEBC1
:1008E000CA0000EB0A1031688900B0FBF1F86420FF
:1008F000B8FBF0F004012009642101FB1089A889EC
:1009000000F4004040B1322000EBC900B0FBF1F030
:1009100000F00700044308E0322000EB09106421D6
:10092000B0FBF1F000F00F0004432C8106B0BDE8ED
:10093000F087000000380140C1F308028280704750
:1009400000BFFEE70FB4054B10B503A9044A029897
:1009500000F018F810BC5DF814FB00003D0B000817
:10096000C000002002E008C8121F08C1002AFAD106
:1009700070477047002001E001C1121F002AFBD11F
:10098000704700002DE9FF4F8BB09A460F46054691
:10099000002606E025280BD052460D9990476D1C85
:1009A000761C28780028F5D10FB03046BDE8F08FCE
:1009B0000024A0460122604900E0044315F8013FED
:1009C000203B02FA03F00842F7D128782E2817D1ED
:1009D00015F8010F44F004042A280ED06FF02F02FE
:1009E0002878A0F1300109290AD808EB880102EB28
:1009F000410100EB01086D1CF2E757F8048B6D1CF8
:100A0000287869283ED006DC0028CDD063280BD09A
:100A1000642804D136E0732810D075284BD0524694
:100A20000D999047761C85E017F8040B8DF80000AF
:100A300000208DF80100E946012003E057F8049BEF
:100A40004FF0FF3061074FF0000401D40AE0641C4E
:100A500044450DDA8442FADB19F804100029F6D176
:100A600006E0641C8442FCDB19F804100029F8D16C
:100A7000264404E019F8010B52460D999047641E74
:100A8000F8D257E001CF4FF00A0B002802DA4042BB
:100A90002D2102E0210504D52B218DF82410012100
:100AA00003E0E10705D02021F7E70DF120090891C7
:100AB0000CE00021F9E701CF4FF00A0BF9E75946A6
:100AC000FFF7B2FB01F1300209F8012D0028F6D141
:100AD000ADEB090000F1200B600701D44FF00108D5
:100AE000D84502DDA8EB0B0000E000208046002482
:100AF00006E009A85246005D0D999047641C761CDB
:100B000008988442F5DB04E0302052460D99904766
:100B1000761CB8F10001A8F10108F5DC05E019F830
:100B2000010B52460D999047761CBBF10001ABF1C9
:100B3000010BF4DC6D1C34E70928010070B5044694
:100B40000D46E1B20548FFF7F7FE00BF80210348DC
:100B5000FFF778FE0028F9D0204670BD003801402C
:100B60000FE002210748FFF717FC4FF4FA7001F07D
:100B70000BF902210348FFF70DFC4FF4FA7001F066
:100B800003F9EEE7000C01401CB54820FFF7AEFD6D
:100B90004FF44070FFF796FCFFF722FCFFF700FCD4
:100BA000FFF70EFE0648012100238022CDE9001048
:100BB00004A1074801F0B4FE01F024FA00201CBD96
:100BC0001400002073746172745F7461736B0000B1
:100BD000E11700082DE9F04105460E462648076852
:100BE00026480068001D00F0DDFE50B9234800686B
:100BF00090F82C1001208840214909688143204841
:100C00000160681CD8B9D6B11E4948681B490968FB
:100C100088601A4982680968CA6018490968091D0C
:100C20008268516015490968091D8160154A134998
:100C300009684A6111460968491C11601AE07C196B
:100C40000E4800684460BC4207D20C480168091D88
:100C50000D48006800F0CAFE0CE008480168091D54
:100C60000A48006800F0C2FE09480068844201D2C8
:100C700007480460BDE8F0815400002040000020D7
:100C800058000020E4030020480000204400002019
:100C90007000002010B5044600F0CEFE2F4800681A
:100CA000401C2E4908602E48006840B92C4804605A
:100CB0000846006801280DD100F02EFA0AE0294804
:100CC000006838B926480068C06AE16A884201D8DD
:100CD0002348046024480068401C2349086094F8B5
:100CE0002C10012088402149096808431F490860E9
:100CF000E16A01EB81011E4A02EB81014868A060B4
:100D00008268E260211D826851608160E16A01EBC6
:100D10008101174A02EB81026261E16A01EB810104
:100D2000134A52F82110491CE26A02EB8202104B6E
:100D300043F8221000F0C4FE0A48006868B1084871
:100D40000068C06AE16A884207D24FF080500949C2
:100D50000860BFF34F8FBFF36F8F10BD50000020AE
:100D6000400000205C0000206C00002058000020A3
:100D70001401002004ED00E010B500F05DFE104805
:100D80000068D0B90F4800F021FE0F4800F01EFEA9
:100D90000C480E4908600C480D49086000220C21DF
:100DA0000A2001F09FFA064908600846006820B151
:100DB00008A10348006800F083FF00F081FE10BD29
:100DC00088000020F80300200C0400208000002090
:100DD00084000020546D72510000000010B516E030
:100DE00000F02AFE0C48C068C468201D00F0DAFD3F
:100DF0000A480068401E0949086009480068401E0A
:100E00000749086000F05CFE204600F055F80448F1
:100E100000680028E4D110BDD0030020500000205D
:100E20004C00002070B504460D46206C70B1216C5A
:100E3000E0680144E160D4E90210884201D32168EE
:100E4000E1602846226CE168FFF7DCF970BD2DE90E
:100E5000F04104460F4615464FF00008A66B206C83
:100E600028B37DB93946226C6068FFF7CBF9216C55
:100E7000606808446060D4E90101884217D32068A3
:100E8000606014E03946226CE068FFF7BBF9216C22
:100E9000E068411AE1602168E068884203D2216C71
:100EA000A068411AE160022D01D106B1761E701CC6
:100EB000A0634046BDE8F08110B50446206B00F009
:100EC00037FE204600F034FE10BD00000146084AFF
:100ED000126812680AB9012200E000220A600A685A
:100EE00022B9034A1268D268106800E000207047F7
:100EF0008000002030B54FF41043174800F007047D
:100F00002CB1C01D20F00700134C041B1B1B024614
:100F1000124C22600024114D6C60D018083820F06B
:100F200007000F4C206000240D4D2D686C600C4DA7
:100F30002D682C601146441A4C60094C24680C60E2
:100F4000084D4C682C60084D4C682C604FF00044F4
:100F5000064D2C6030BD00002004002094000020CD
:100F60009C000020A4000020A0000020B000002071
:100F700000BFFFF733FF064800680128F9D94FF09A
:100F8000805004490860BFF34F8FBFF36F8FF0E7C5
:100F90001401002004ED00E02DE9F04106460D4665
:100FA00017469846069C0DB9246000E02760E6636A
:100FB00025640121204601F0D5F9BDE8F08100004B
:100FC0002DE9FF5F81460E469246DDE90E7B109CBF
:100FD000AAF10100216B01EB800828F0070808F056
:100FE000070008B9012000E0002028B94FF458722A
:100FF00022A127A0FFF7A6FC86B1002507E0715DBE
:1010000004F134004155705D00B902E06D1C102DF3
:10101000F5D300BF00214320015502E0002084F8F1
:101020003400202F01D2012000E0002028B940F236
:10103000973212A116A0FFF785FC202F00D31F279F
:10104000E762201D00F0CFFC04F1180000F0CBFC9B
:101050002461C7F12000A06164620020606484F80C
:10106000480049464046039A00F0A8FB2060BBF1C7
:10107000000F01D0CBF80040BDE8FF9F2E2E5C464C
:1010800072656552544F535C7461736B732E6300C9
:101090004572726F723A25732C25640D0A000000A8
:1010A0002DE9F04706460D4617469846DDE90894B7
:1010B0000DB1012000E0002028B940F26B120CA114
:1010C00011A0FFF73FFCFFF757FE2660A561C4F8AB
:1010D0001C80C4F82090201D00F085FC2FB194F8EE
:1010E000240040F0040084F82400BDE8F0870000EC
:1010F0002E2E5C4672656552544F535C74696D6563
:1011000072732E63000000004572726F723A25738D
:101110002C25640D0A00000010B5002407E004EB44
:1011200084010F4A02EB810000F050FC641C202C6B
:10113000F5D30C4800F04AFC0B4800F047FC0B4884
:1011400000F044FC0A4800F041FC0A4800F03EFC74
:1011500004480949086004480849086010BD0000B7
:101160001401002094030020A8030020BC030020E9
:10117000D0030020E40300204400002048000020A9
:1011800010B50146164800E0006803688B42FBD3A7
:101190000246436813448B4204D143684C6823449D
:1011A000436001460A464B6813440468A34211D1C8
:1011B0000C4C03682468A34208D04B680468646838
:1011C00023444B6003681B680B6005E0054B1B68FC
:1011D0000B6001E003680B60884200D0016010BD25
:1011E000940000209C0000202DE9F04104460D46AB
:1011F00016461F464FF0000865602461B5420CD8C2
:10120000F01BA169884202D34FF0010811E0211DB3
:101210000948006800F0EAFB0BE0BE4204D2BD4280
:1012200002D34FF0010804E0211D0448006800F0DB
:10123000DDFB4046BDE8F0818400002080000020F6
:1012400070B5054600F0F8FBA86B08B9012400E072
:10125000002400F035FC204670BD70B5054600F056
:10126000EBFBA86BE96B884201D1012400E000246C
:1012700000F026FC204670BD70B505460E460E48AF
:101280000068C068C468201D00F08CFB94F824003E
:1012900000F0040028B132462946204600F0E6F866
:1012A00005E094F8240000F0FE0084F824002046B5
:1012B000216A884770BD0000800000207FB57AE079
:1012C0000198002877DB039C606908B9012000E0E1
:1012D000002010B9201D00F065FB684600F0F2F810
:1012E000054601980A2864D2DFE800F06305072E5E
:1012F000365306082F3700BF00BF00BF94F8240004
:1013000040F0010084F824000298A2698118034685
:101310002A462046FFF768FFA8B194F8240000F0A1
:10132000040038B10298A26981182A46204600F0CC
:101330009DF805E094F8240000F0FE0084F82400F5
:101340002046216A884735E000BF94F8240000F069
:10135000FE0084F824002DE000BF94F8240040F043
:10136000010084F824000298A061A06908B101205E
:1013700000E0002028B940F2593214A119A0FFF76B
:10138000E1FAA06941192B462A462046FFF72CFFB7
:1013900010E094F8240000F0020018B9204600F094
:1013A000C7FB05E094F8240000F0FE0084F8240058
:1013B00000E000BF00BF002201A90E48006801F054
:1013C000A7F900287FF47CAF7FBD00002E2E5C467D
:1013D00072656552544F535C74696D6572732E6308
:1013E000000000004572726F723A25732C25640D5F
:1013F0000A00000088000020F8B505460C4600F001
:101400005BFE684600F05EF80646009820BB44B9D3
:10141000B54206D801F052FC31462846FFF72CFFB2
:101420001CE03CB10E480068006808B9012000E0EB
:1014300000200446A91B22460A48006800F07EFCF2
:1014400001F03CFC50B94FF0805007490860BFF3F1
:101450004F8FBFF36F8F01E001F030FCF8BD00004B
:10146000840000208800002004ED00E070B50446F0
:101470000D46164604E0A06905442046216A8847C7
:10148000A06941192B4632462046FFF7ADFE0028E1
:10149000F1D170BD09480068006808B9012000E07A
:1014A000002020B14FF0FF300549086005E00348F7
:1014B0000068C06800680249086070474400002066
:1014C0007000002070B5044601F06AFA054607482E
:1014D0000068854204D200F00BF80120206001E092
:1014E0000020206001480560284670BD9000002063
:1014F00070B508E00D480068C06804684FF0FF311F
:101500002046FFF7B9FE09480068006808B90120C5
:1015100000E000200028EDD0044805680448006879
:10152000024908600248056070BD0000800000208C
:10153000840000200B480068401C08B9012000E02E
:10154000002020B9CE2208A112A0FFF7FBF900BFAE
:10155000502080F31188BFF34F8FBFF36F8F00BF10
:1015600000BFFEE7B40000202E2E5C467265655277
:10157000544F535C706F727461626C655C52564478
:10158000535C41524D5F434D335C706F72742E63F8
:10159000000000004572726F723A25732C25640DAD
:1015A0000A00000008B500BF6846FFF78FFC04463C
:1015B00020460099FFF720FFFFF780FEF4E770B5A3
:1015C000044600F039FA94F9455010E0606A08B911
:1015D000012000E0002038B904F1240001F0D0FA25
:1015E00018B100F0A1FC00E003E0681E45B2002D38
:1015F000ECDC00BFFF2084F8450000F061FA00F049
:101600001BFA94F9445010E0206908B9012000E069
:10161000002048B904F1100001F0B2FA08B100F05E
:1016200083FC681E45B200E001E0002DECDC00BF49
:10163000FF2084F8440000F043FA70BD2DE9F0412A
:1016400004464FF0000800F037FD4848006808B92C
:10165000FFF750FC464800682040002873D114B3BF
:1016600004F10800A0421ED9083404F00700D8B1E4
:1016700004F00700C0F108002044A04211D904F092
:101680000700C0F10800044404F0070008B9012075
:1016900000E0002040B99C2236A140A0FFF752F99B
:1016A00002E0002400E00024002C4CD03F480068F9
:1016B000844248D83E4E3046056801E02E462D68EB
:1016C0006868A04202D228680028F7D1274800683D
:1016D000854238D0306800F10808286830606868B2
:1016E000001B102813D92F1907F0070008B9012093
:1016F00000E0002020B9CF221EA128A0FFF722F988
:101700006868001B78606C603846FFF739FD274930
:1017100068680968081A254908600846006825496C
:101720000968884203D221480068224908601049AC
:101730006868096808436860002028601E480068DF
:10174000401C1D49086001F0B9FA08F0070008B90B
:10175000012000E0002028B94FF4887205A10FA0F5
:10176000FFF7F0F84046BDE8F08100009C00002043
:10177000B00000202E2E5C4672656552544F535CBB
:10178000706F727461626C655C4D656D4D616E6702
:101790005C686561705F342E630000004572726F93
:1017A000723A25732C25640D0A000000A000002069
:1017B00094000020A4000020A8000020001F4FF08B
:1017C00080730360001F21F001030360001F034BBF
:1017D0000360143802602038704700003515000897
:1017E0007CB5054600F028F9224801231A464FF43B
:1017F0007A71009020A001F029FB23490860084677
:10180000006858B101F0CCF8044600200346224697
:10181000012100901C48006801F06EFB1B48022368
:10182000002241F28831009019A001F00FFB1C4901
:1018300008600846006858B101F0B2F8044600207C
:1018400003462246012100901548006801F054FB30
:101850001448012100233222CDE9001012A11548BD
:1018600001F05EF81448006800F0C8FA00F028F9AA
:101870007CBD0000BD1800084175746F52656C6F27
:10188000616454696D6572001C00002049190008EC
:101890004F6E6C7952656C6F616454696D6572004E
:1018A00020000020180000206C6564315F746173B3
:1018B0006B000000610B00081400002070B50546A5
:1018C00011480068401C1049086001F069F804469E
:1018D0000D49086800EBD0714910A0EB410121B916
:1018E00020210A48FEF756FD03E020210748FEF7B5
:1018F00053FD0548016806A0FFF724F821460DA016
:10190000FFF720F870BD000024000020000C01400B
:1019100074696D6572315F63616C6C6261636B20C9
:10192000BAAFCAFDD4CBD0D020256420B4CE0D0AE6
:1019300000000000B5CEB4F0B6A8CAB1C6F7D6B55F
:101940003A2025640D0A000070B505460A48006873
:10195000401C0949086001F023F8044601210748AA
:10196000FEF718FD01210548FEF716FD214604A0EB
:10197000FEF7E8FF70BD000024000020000C0140CD
:1019800074696D6572315F63616C6C6261636B2059
:10199000B5CEB4F0B6A8CAB1C6F7D6B53A2025641C
:1019A0000D0A000001460A69D1E901309860D1E9C9
:1019B000010358605068884201D188685060002057
:1019C00008611068401E10601068704700F108013F
:1019D00041604FF0FF31816000F10801C160016199
:1019E00000210160704700210161704710B5024677
:1019F0000B685C1C0CB9106907E002F1080000E0FC
:101A00004068446824689C42FAD944684C604C6839
:101A1000A160886041600A611468641C146010BD94
:101A200042684A6093688B6093685960916008616E
:101A300003685B1C0360704710B500BF502080F343
:101A40001188BFF34F8FBFF36F8F00BF0B48006843
:101A5000401C0A4908600846006801280DD1084862
:101A60000068C0B208B9012000E0002028B940F2A7
:101A7000731204A10EA0FEF765FF10BDB400002094
:101A800004ED00E02E2E5C4672656552544F535CA7
:101A9000706F727461626C655C525644535C415263
:101AA0004D5F434D335C706F72742E630000000015
:101AB0004572726F723A25732C25640D0A0000007E
:101AC00010B50B48006828B94FF4BD7209A114A0E5
:101AD000FEF738FF06480068401E054908600846C2
:101AE000006820B9002080F3118800BF00BF10BD3E
:101AF000B40000202E2E5C4672656552544F535C34
:101B0000706F727461626C655C525644535C4152F2
:101B10004D5F434D335C706F72742E6300000000A4
:101B20004572726F723A25732C25640D0A0000000D
:101B300070B506463546002E3AD0083D2C461D4964
:101B400060680968084008B1012000E0002028B959
:101B50004FF4927218A122A0FEF7F4FE206808B993
:101B6000012000E0002028B940F2251212A11CA09B
:101B7000FEF7E8FE0F49606809680840C0B12068B8
:101B8000B0B90C49606809688843606000F094FA55
:101B90001749606809680844154908602046FFF73E
:101BA000EFFA14480068401C1249086001F086F8FA
:101BB00070BD0000B00000202E2E5C46726565529C
:101BC000544F535C706F727461626C655C4D656DEF
:101BD0004D616E675C686561705F342E6300000064
:101BE0004572726F723A25732C25640D0A0000004D
:101BF000A0000020AC00002000204FF0E021086190
:101C00008861064800684FF47A71B0FBF1F0401E1D
:101C10004FF0E0214861072008617047280000204C
:101C200070B5FEF7D9FA0546102D11D305F1E02065
:101C300090F8F04310480078844201DB012000E076
:101C4000002028B940F2BB220CA117A0FEF77AFEB3
:101C50001948006800F4E06018490968884201D812
:101C6000012000E0002028B940F2CB2203A10EA001
:101C7000FEF768FE70BD0000B80000202E2E5C4606
:101C800072656552544F535C706F727461626C651B
:101C90005C525644535C41524D5F434D335C706F10
:101CA00072742E63000000004572726F723A2573E1
:101CB0002C25640D0A0000000CED00E0BC000020A3
:101CC0002DE9F04105460F4600262DB940F6CA22FF
:101CD00010A115A0FEF736FEBFB1002412E0164891
:101CE00000EBC4004068A84203D1134800EBC406CF
:101CF0000AE036B9104850F8340010B90E4800EB2D
:101D0000C406641C0A2CEAD300BF0EB137607560AC
:101D1000BDE8F0812E2E5C4672656552544F535CCF
:101D200071756575652E63004572726F723A257321
:101D30002C25640D0A000000C40000202DE9F041AC
:101D400005460E4617462C46FFF776FE94F94400EA
:101D5000401C10B9002084F8440094F94500401C50
:101D600010B9002084F84500FFF7AAFEA06B28B93F
:101D70003A46314604F1240000F006F92046FFF708
:101D80001EFCBDE8F081000070B504460025ACB132
:101D90000F48006808B9012000E0002028B940F28F
:101DA00049520CA110A0FEF7CDFD00F085F90021ED
:101DB0002046FEF70FFF00F081FF05463DB94FF0CA
:101DC00080500D490860BFF34F8FBFF36F8F70BD18
:101DD0007C0000202E2E5C4672656552544F535C89
:101DE0007461736B732E63004572726F723A257360
:101DF0002C25640D0A00000004ED00E070B50546D6
:101E0000FFF71AFE15B92F48006800E0284604467F
:101E1000201DFFF7C7FD78B9E06A00EB80002A4972
:101E200051F8200040B994F82C100120884027492F
:101E30000968814325480160A06A18B104F11800BF
:101E4000FFF7B0FD22480068401C214908601D488A
:101E50000068844209D1211D1E48FFF7E1FD1E489C
:101E60000068401C1C49086006E01C480068401ED1
:101E70001A490860FFF70EFBFFF722FE11480068C1
:101E8000844202D02046FFF717F815480068C0B119
:101E90000C480068844214D11248006808B9012037
:101EA00000E0002028B940F2DC420FA113A0FEF7A9
:101EB00049FD4FF0805015490860BFF34F8FBFF3C5
:101EC0006F8F70BD400000201401002058000020DA
:101ED0006C000020D00300204C00002050000020A7
:101EE0005C0000207C0000202E2E5C46726565524E
:101EF000544F535C7461736B732E63004572726F41
:101F0000723A25732C25640D0A00000004ED00E0F0
:101F1000034909680160034909684160704700008E
:101F2000680000205400002001200149086070472B
:101F30006400002070B504460D462CB940F61C42E2
:101F400007A10CA0FEF7FEFC0E48016818312046E0
:101F5000FFF74CFD01212846FEF73CFE70BD000056
:101F60002E2E5C4672656552544F535C7461736BE0
:101F7000732E63004572726F723A25732C25640DBF
:101F80000A0000004000002070B504460E461546C9
:101F90002CB940F6524211A115A0FEF7D3FC60689F
:101FA00017490968C8611649826809680A621449B4
:101FB00009681831826851601149096818318160D7
:101FC0000F4909688C622168491C21600DB14FF0EE
:101FD000FF3629463046FEF7FDFD70BD2E2E5C46CD
:101FE00072656552544F535C7461736B732E63005A
:101FF0004572726F723A25732C25640D0A00000039
:10200000400000201CB51B4800210B468022CDE972
:10201000001019A11A4800F083FC0446012C02D1DB
:1020200000F030FF0446012C15D100BF502080F392
:102030001188BFF34F8FBFF36F8F00BF4FF0FF309A
:102040001049086001201049086000200F4908600D
:1020500000F08EF80BE0601C08B1012000E00020C9
:1020600028B94FF404620AA10EA0FEF76BFC1148D8
:1020700000681CBD7400002049444C45000000006D
:10208000710F0008700000205C0000205400002048
:102090002E2E5C4672656552544F535C7461736BAF
:1020A000732E63004572726F723A25732C25640D8E
:1020B0000A0000007800002002480068401C014926
:1020C000086070477C00002010B51B48006818B1FC
:1020D00001201A4908602DE00020184908601848BE
:1020E0000068B0FA80F0C0F11F0404EB84001549C9
:1020F00051F8200008B1012000E0002028B940F686
:10210000024211A115A0FEF71DFC04EB84010D4A4B
:1021100002EB810041684968416000F108014268B2
:102120008A4202D14168496841604168C9680F4AE2
:10213000116000BF10BD00007C0000206400002082
:1021400058000020140100202E2E5C467265655256
:10215000544F535C7461736B732E63004572726FDE
:10216000723A25732C25640D0A00000040000020FF
:102170001CB53B4C204600780190FF20214608709A
:102180000846007800909DF8000000F0F0009DF8EF
:102190000010884201D1012000E0002028B940F25F
:1021A0001F1230A13AA0FEF7CDFB9DF8000000F011
:1021B00050003B49087007203A49086009E0394857
:1021C0000068401E374908609DF800004006000E78
:1021D00000909DF8000000F080008028EFD031488A
:1021E0000068C0F10700042801D1012000E00020B0
:1021F00028B940F233121BA125A0FEF7A3FB294802
:102200000068C0F10700042801D1012000E000208F
:1022100028B94FF49E7213A11DA0FEF793FB21482D
:10222000006800021F4908600846008800F4E0606A
:1022300008600B49019808701B48006840F4700062
:10224000194908600846006840F070400860FFF7D0
:10225000D3FC002015490860FDF788FF00201CBD55
:1022600000E400E02E2E5C4672656552544F535CCC
:10227000706F727461626C655C525644535C41527B
:102280004D5F434D335C706F72742E63000000002D
:102290004572726F723A25732C25640D0A00000096
:1022A000B8000020BC00002020ED00E0B4000020B9
:1022B00010B500BF502080F31188BFF34F8FBFF3DC
:1022C0006F8F00BF00F072FB18B14FF080500449CF
:1022D000086000BF002080F3118800BF10BD00001F
:1022E00004ED00E02DE9F84305460E4617460024AC
:1022F000E5B1601EB0FBF5F0B04217D305FB06F068
:1023000010F1490F12D805FB06F909F14800FFF753
:1023100095F904468CB1A04608F148083B46424670
:10232000314628460094FEF737FE06E02CB94FF4FC
:10233000E37203A107A0FEF705FB2046BDE8F88382
:102340002E2E5C4672656552544F535C71756575EF
:10235000652E63004572726F723A25732C25640DE9
:102360000A0000002DE9F04105460E4601272C46E3
:102370002CB94FF488722CA130A0FEF7E3FA002CA0
:1023800042D0E06B00283FD04FF0FF31E06BB1FB53
:10239000F0F0216C884237D3FFF74EFBD4E90F12DF
:1023A000206801FB0200A0600020A063206860603C
:1023B000E06B401E226C216800FB0211E160FF20EF
:1023C00084F8440084F845009EB9206908B90120CA
:1023D00000E00020A8B904F1100000F0D1FB80B1AA
:1023E0004FF0805019490860BFF34F8FBFF36F8FD4
:1023F00007E004F11000FFF7E9FA04F12400FFF709
:10240000E5FAFFF75DFB00E000270FB1012000E0D7
:10241000002028B940F2451203A108A0FEF792FA65
:102420003846BDE8F08100002E2E5C46726565528C
:10243000544F535C71756575652E63004572726FFC
:10244000723A25732C25640D0A00000004ED00E0AB
:102450002DE9FF4383B0064688461D464FF000092C
:1024600034462CB940F22E3258A15DA0FEF76AFA2C
:10247000B8F1000F01D1206C08B9012000E0002064
:1024800028B940F22F3251A155A0FEF75BFA022D78
:1024900002D1E06B012801D1012000E0002028B921
:1024A0004FF44C7249A14EA0FEF74CFA00F068FAC6
:1024B00008B9059808B9012000E0002028B940F2C9
:1024C000333242A146A0FEF73DFA00BFFFF7B4FA4F
:1024D000A06BE16B884201D3022D28D12A464146E8
:1024E0002046FEF7B4FC0746606A08B9012000E008
:1024F000002068B904F1240000F042FB88B14FF0DD
:1025000080503B490860BFF34F8FBFF36F8F08E0E7
:102510003FB14FF0805036490860BFF34F8FBFF393
:102520006F8FFFF7CDFA012007B0BDE8F083059863
:1025300018B9FFF7C5FA0020F6E7B9F1000F04D18A
:1025400001A8FFF7E5FC4FF00109FFF7B9FAFFF723
:10255000B3FDFFF771FA94F94400401C10B9002054
:1025600084F8440094F94500401C10B9002084F818
:102570004500FFF7A5FA05A901A800F081F9F0B917
:102580002046FEF76AFEA0B104F110000599FFF79E
:10259000D1FC2046FFF713F800F090FB002895D1FE
:1025A0004FF0805012490860BFF34F8FBFF36F8F19
:1025B0008CE72046FFF703F800F080FB86E7204613
:1025C000FEF7FDFF00F07AFB0020ADE72E2E5C4603
:1025D00072656552544F535C71756575652E630065
:1025E0004572726F723A25732C25640D0A00000043
:1025F00004ED00E02DE9F84F07468B4690461E4655
:102600003C462CB940F2024238A13DA0FEF79AF9AF
:10261000BBF1000F01D1206C08B9012000E00020BF
:1026200028B940F2034231A135A0FEF78BF9022E02
:1026300002D1E06B012801D1012000E0002028B97F
:1026400040F2044229A12EA0FEF77CF9FFF7E8FA38
:1026500000BF5021EFF3118081F31188BFF34F8F3A
:10266000BFF36F8F00BF0546A06BE16B884201D3BB
:10267000022E32D194F945A0A06B00903246594603
:102680002046FEF7E4FB0AF1010088B9606A08B948
:10269000012000E0002050B904F1240000F070FA9D
:1026A00028B1B8F1000F02D00120C8F8000011E0F5
:1026B000BAF17F0F01D0012000E0002028B940F2DC
:1026C0008D420AA10EA0FEF73DF90AF1010040B2C9
:1026D00084F845004FF0010901E04FF0000900BF08
:1026E00085F3118800BF4846BDE8F88F2E2E5C4662
:1026F00072656552544F535C71756575652E630044
:102700004572726F723A25732C25640D0A00000021
:102710002DE9F74183B005460E464FF000082C46E0
:102720002CB940F251524CA150A0FEF70BF90EB952
:10273000206C08B9012000E0002028B940F2555271
:1027400045A14AA0FEF7FEF800F01AF908B905986D
:1027500008B9012000E0002028B940F25A523EA1F9
:1027600042A0FEF7EFF800BFFFF766F9A76BF7B1DD
:1027700031462046FEF756FB781EA063206908B953
:10278000012000E0002060B904F1100000F0F8F929
:1027900038B14FF0805039490860BFF34F8FBFF315
:1027A0006F8FFFF78DF9012006B0BDE8F081059825
:1027B00018B9FFF785F90020F6E7B8F1000F04D14A
:1027C00001A8FFF7A5FB4FF00108FFF779F9FFF724
:1027D00073FCFFF731F994F94400401C10B9002054
:1027E00084F8440094F94500401C10B9002084F896
:1027F0004500FFF765F905A901A800F041F8F0B917
:102800002046FEF71DFDA0B104F124000599FFF755
:1028100091FB2046FEF7D3FE00F050FA0028A3D12A
:102820004FF0805015490860BFF34F8FBFF36F8F93
:102830009AE72046FEF7C3FE00F040FA94E72046F0
:10284000FEF7BDFE00F03AFA2046FEF7F9FC00283C
:102850008AD00020A8E700002E2E5C4672656552E3
:10286000544F535C71756575652E63004572726FC8
:10287000723A25732C25640D0A00000004ED00E077
:1028800070B505460C462DB940F6FD4219A11EA0B3
:10289000FEF758F82CB940F6FE4216A11AA0FEF732
:1028A00051F8FFF7C9F81C48036868681A1A2068CD
:1028B000401C08B9002619E01849286809688842B0
:1028C00006D06868984203D80126002020600DE0F9
:1028D0002068904207D92068801A20602846FFF7B8
:1028E00017FB002602E0002020600126FFF7E8F831
:1028F000304670BD2E2E5C4672656552544F535C57
:102900007461736B732E63004572726F723A257334
:102910002C25640D0A0000005400002068000020EF
:102920002DE9FF4F85B0804689461746DDE912AB99
:10293000B800FEF783FE064656B14C20FEF77EFE39
:1029400004460CB1266304E03046FFF7F1F800E0DE
:1029500000247CB10020CDE900ABCDE902403A462D
:1029600049464046089BFEF72BFB2046FEF792F9AE
:10297000012501E04FF0FF35284609B0BDE8F08F92
:102980000549096809B9012005E00449096809B940
:10299000022000E0002070475C0000207C00002046
:1029A0000149086870470000540000202DE9F041FB
:1029B0004FF000085E48006800287DD15D4800683F
:1029C000451C5C480560EDB95B480068006808B9C3
:1029D000012000E0002028B940F6C72257A15CA0E2
:1029E000FDF7B0FF544807685D4800685249086029
:1029F0005B4807605B480068401C5A490860FEF766
:102A000049FD00BF58480068854277D300BF4A4857
:102A10000068006808B9012000E0002020B14FF0F4
:102A2000FF305149086068E043480068C068C468E6
:102A30006668B54202D24C4806605EE06069D4E93F
:102A400002128A60D4E902214A60211D42688A424A
:102A500001D1E1684160002262610168491E0160A4
:102A6000A06A98B1A06AD4E907128A60D4E9072164
:102A70004A6004F1180142688A4201D1216A41602A
:102A80000022A2620168491E016000BF94F82C1068
:102A90000120884035490968084334490860E16AE3
:102AA00001EB8101324A02EB81014868A060826833
:102AB000E260211D826800E032E051608160E16ADD
:102AC00001EB81012A4A02EB81026261E16A01EBBA
:102AD0008101274A52F82110491CE26A02EB820266
:102AE000234B43F822102349E06A0968C96A8842E7
:102AF0008DD34FF001088AE700E000BF1D48006851
:102B0000C06A00EB80001A4951F82000012801D961
:102B10004FF001081848006808B14FF0010804E0C0
:102B200016480068401C154908604046BDE8F08121
:102B30007C00002054000020440000202E2E5C4623
:102B400072656552544F535C7461736B732E6300EE
:102B50004572726F723A25732C25640D0A000000CD
:102B6000480000206800002070000020580000206D
:102B700014010020400000206400002060000020BC
:102B800070B50646F068C4682CB940F682423CA194
:102B900040A0FDF7D7FEA06AD4E907128A60D4E905
:102BA00007214A6004F1180142688A4201D1216A72
:102BB00041600022A2620168491E01603948006834
:102BC00000283DD16069D4E902128A60D4E902216B
:102BD0004A60211D42688A4201D1E16841600022B9
:102BE00062610168491E016094F82C100120884040
:102BF0002D49096808432C490860E16A01EB81010D
:102C00002A4A02EB81014868A0608268E260211DC7
:102C1000826851608160E16A01EB8101234A02EB25
:102C200081026261E16A01EB8101204A52F82110C0
:102C3000491CE26A02EB82021C4B43F8221010E0AE
:102C40001B494868E0618268226204F118018268C9
:102C500051608160164AA26211460968491C1160E0
:102C600000BF1449E06A0968C96A884204D901258D
:102C700001201149086000E00025284670BD0000D1
:102C80002E2E5C4672656552544F535C7461736BB3
:102C9000732E63004572726F723A25732C25640D92
:102CA0000A0000007C0000205800002014010020D1
:102CB000BC030020400000206400002070B5002408
:102CC00000265048006828B940F6B3024EA153A030
:102CD000FDF738FEFEF7B0FE4A480068401E49493D
:102CE00008600846006800287ED150480068002827
:102CF0007AD05BE04E48C068C468A06AD4E9071285
:102D00008A60D4E907214A6004F1180142688A42C6
:102D100001D1216A41600022A2620168491E01605E
:102D20006069D4E902128A60D4E902214A60211D57
:102D300042688A4201D1E168416000226261016813
:102D4000491E016094F82C10012088403949096817
:102D5000084338490860E16A01EB8101364A02EB19
:102D600081014868A0608268E260211D826851602C
:102D70008160E16A01EB81012F4A02EB810262610D
:102D8000E16A01EB81012C4A52F82110491CE26AE8
:102D900002EB8202284B43F822102849E06A0968B6
:102DA000C96A884202D3012025490860204800688A
:102DB00008B9012000E0002000289BD00CB1FEF7EC
:102DC00069FB2048056865B100BFFFF7EFFD10B152
:102DD00001201B4908606D1E002DF6D10020194905
:102DE00008601748006800E008E038B101263007A5
:102DF00015490860BFF34F8FBFF36F8FFEF760FE7A
:102E0000304670BD7C0000202E2E5C4672656552F7
:102E1000544F535C7461736B732E63004572726F11
:102E2000723A25732C25640D0A0000005000002022
:102E3000BC030020580000201401002040000020A6
:102E4000640000206000002004ED00E02DE9FC4754
:102E500005460E4617469846DDF828902820FEF7CE
:102E6000EDFB044654B1002084F8240043463A4662
:102E700031462846CDE90094FEF712F92046BDE818
:102E8000FC8700001CB50024FDF776FF0B480068A6
:102E900058B10B481F2100234FF48072CDE9001078
:102EA00008A10A48FFF73CFD04462CB940F219126C
:102EB00007A10DA0FDF746FD20461CBD880000209F
:102EC0008C000020546D722053766300A515000815
:102ED0002E2E5C4672656552544F535C74696D6565
:102EE00072732E63000000004572726F723A257390
:102EF0002C25640D0A0000002DE9FE4304460D4612
:102F000016461F46DDF828804FF000092CB940F224
:102F10008B1216A11BA0FDF715FD1E48006810B30B
:102F2000009501960294062D15DAFFF729FD022877
:102F300008D100234246694616480068FFF788FA20
:102F4000814610E000231A46694612480068FFF7E0
:102F50007FFA814607E000233A4669460D4800683B
:102F6000FFF748FB81464846BDE8FE832E2E5C46AF
:102F700072656552544F535C74696D6572732E634C
:102F8000000000004572726F723A25732C25640DA3
:102F90000A00000088000020B82F00080000002070
:102FA000C4000000640900087C300008C400002050
:102FB0005C9700007409000800000000010203048F
:102FC00001020304060708090204060800000000C5
:102FD00000000000000000000000000000000000F1
:102FE00000A24A04000000000000000001020304E7
:102FF00006070809000000000000000000000000B3
:1030000000000000000000000000000000000000C0
:1030100000000000000000000000000000000000B0
:1030200000000000000000000000000000000000A0
:103030001F00000000000000000000000000000071
:103040000000000000000000000000000000000080
:103050000000000000000000000000000000000070
:10306000000000000000000000000000AAAAAAAAB8
:0C30700000000000000000000000000054
:04000005080001E10D
:00000001FF
