:020000040800F2
:10000000F00400204901000831040008F50300084D
:100010002D04000833020008330D00080000000022
:10002000000000000000000000000000450A000879
:10003000370200080000000033040008310B0008FC
:100040006301000863010008630100086301000800
:1000500063010008630100086301000863010008F0
:1000600063010008630100086301000863010008E0
:1000700063010008630100086301000863010008D0
:1000800063010008630100086301000863010008C0
:1000900063010008630100086301000863010008B0
:1000A00063010008630100086301000863010008A0
:1000B0006301000863010008630100086301000890
:1000C0006301000863010008630100086301000880
:1000D0006301000863010008630100086301000870
:1000E0006301000863010008630100086301000860
:1000F0006301000863010008630100086301000850
:10010000630100086301000863010008630100083F
:10011000630100086301000863010008630100082F
:10012000630100086301000863010008630100081F
:10013000DFF810D000F04CF80048004781100008AC
:10014000AFF30080F00400200648804706480047CF
:10015000FEE7FEE7FEE7FEE7FEE7FEE7FEE7FEE777
:10016000FEE7FEE7350B0008310100082DE9F05FDE
:100170000546002092469B46884606468146402416
:100180001BE0284641464746224600F042F85346C7
:100190005A46C01A914110D311461846224600F023
:1001A00029F82D1A67EB01084F462246012000214D
:1001B00000F020F817EB00094E41201EA4F10104C5
:1001C000DFDC484631462A464346BDE8F09F000042
:1001D000064C074D06E0E06840F0010394E8070094
:1001E00098471034AC42F6D3FFF7A6FF0811000879
:1001F00028110008202A04DB203A00FA02F100202E
:1002000070479140C2F1200320FA03F31943904054
:100210007047202A04DB203A21FA02F000217047BF
:1002200021FA02F3D040C2F120029140084319465E
:10023000704700BFFEE7704701B502E00098401E1E
:10024000009000980028F9D108BD2DE9F041024640
:1002500000250026002000230024002791F803C079
:100260000CF00F0591F803C00CF0100CBCF1000F5E
:1002700003D091F802C04CEA050591F800C0BCF12A
:10028000000F31D0146800202BE04FF0010C0CFA65
:1002900000F3B1F800C00CEA03069E4220D18300AF
:1002A0004FF00F0C0CFA03F7BC4305FA03FC4CEAC1
:1002B000040491F803C0BCF1280F06D14FF0010CE3
:1002C0000CFA00FCC2F814C00AE091F803C0BCF1BB
:1002D000480F05D14FF0010C0CFA00FCC2F810C019
:1002E000401C0828D1D31460B1F800C0BCF1FF0F46
:1002F00034DD546800202EE000F1080C4FF00108B6
:1003000008FA0CF3B1F800C00CEA03069E4221D1B2
:1003100083004FF00F0C0CFA03F7BC4305FA03FC03
:100320004CEA040491F803C0BCF1280F05D100F198
:10033000080C08FA0CF8C2F8148091F803C0BCF15C
:10034000480F07D100F1080C4FF0010808FA0CF82B
:10035000C2F81080401C0828CED35460BDE8F0815C
:10036000416170470161704710B50446312C0CD1D2
:10037000002000F093FA662200210C4800F008F9F2
:100380000A490BA000F0D8FC0EE0302C09D16622FF
:1003900000210D4800F0D4F80B490CA000F0CCFC73
:1003A00002E010A000F0C8FC10BD00001400002006
:1003B0000D0AD0B4C8EBB5C4CAFDBEDDCEAAA3BA3F
:1003C0000D0A202573000000880000200D0AB6C128
:1003D000B3F6B5C4CAFDBEDDCEAAA3BA0D0A202568
:1003E00073000000C7EBCAE4C8EB30BBF2310D0A62
:1003F0000000000000BFFEE708B50121082000F062
:1004000019F82320ADF8000010208DF8030001201A
:100410008DF8020069460448FFF717FF23210248C0
:10042000FFF7A0FF08BD0000000C014000BFFEE781
:100430007047704729B1064A92690243044B9A619A
:1004400004E0034A92698243014B9A6170470000BD
:100450000010024030B500210022002400232D4D61
:100460006D6805F00C0121B1042905D0082923D1BC
:1004700005E0294D056022E0274D05601FE0254D70
:100480006D6805F47012234D6D6805F48034022503
:1004900005EB92421CB9214D554305600BE01D4D03
:1004A0006D6805F400351DB11C4D5543056002E033
:1004B000194D5543056002E0174D056000BF00BFB0
:1004C000144D6D6805F0F0010909154D6B5C056868
:1004D000DD4045600F4D6D6805F4E061090A104D7F
:1004E0006B5C4568DD4085600A4D6D6805F46051C0
:1004F000C90A0B4D6B5C4568DD40C560054D6D68F4
:1005000005F44041890B074D6B5CC568B5FBF3F5FD
:10051000056130BD0010024000127A0000093D0064
:10052000000000201000002021B1028842F04002AB
:10053000028004E002884FF6BF731A4002807047C1
:1005400070B505460C46164601211048FFF708FF16
:10055000032000F0C5F9C4F3074000F0C1F9C4F36B
:10056000072000F0BDF9E0B200F0BAF904E0FF2086
:1005700000F0B6F928706D1C301EA6F101018EB294
:10058000F5D101210148FFF7EDFE70BD00100140DB
:100590002DE9F05F07460E4614464FF00008C146AD
:1005A000C2460025AB4606F0FF0ACAF10000C5B2FC
:1005B0002046E11704EB1161C1F30728E11704EBB2
:1005C00011610912A4EB012101F0FF09BAF1000F3A
:1005D00020D1B8F1000F05D122463146384600F04F
:1005E000C9F864E009E04FF480723146384600F003
:1005F000C1F806F5807607F58077B8F10000A8F11C
:10060000010101F0FF08EED14A463146384600F0BC
:10061000B1F84CE0B8F1000F18D1A94510DDA9EBF5
:10062000050000F0FF0B2A463146384600F0A2F8DC
:100630002E442F445A463146384600F09BF836E0A7
:1006400022463146384600F095F830E0601B84B20F
:100650002046E11704EB1161C1F30728E11704EB11
:1006600011610912A4EB012101F0FF092A4631466C
:10067000384600F07FF82E442F4409E04FF4807292
:100680003146384600F076F806F5807607F5807733
:10069000B8F10000A8F1010101F0FF08EED1B9F1B5
:1006A000000F04D04A463146384600F063F8BDE8F2
:1006B000F09F000000B587B001210803FFF7BAFEE4
:1006C0000121D420FFF7B6FE0120ADF8040003207D
:1006D0008DF8060010208DF8070001A92248FFF7C9
:1006E000B4FD2020ADF8040018208DF8070001A902
:1006F0001E48FFF7AAFD4020ADF8040001A91B48E1
:10070000FFF7A3FD8020ADF8040001A91748FFF70B
:100710009CFD01211448FFF725FE0020ADF80800DC
:100720004FF48270ADF80A000020ADF80C000220F2
:10073000ADF80E000120ADF810004002ADF8120037
:100740000820ADF814000020ADF816000720ADF821
:10075000180002A9064800F037F901210448FFF704
:10076000E3FE07B000BD000000100140000801409A
:100770000030014070B505460C46164600F006F9FB
:1007800001211548FFF7ECFD022000F0A9F8C4F3A1
:10079000074000F0A5F8C4F3072000F0A1F8E0B28C
:1007A00000F09EF8B6F5807F04DD4FF480760BA054
:1007B00000F0C2FA03E0287800F092F86D1C301EB9
:1007C000A6F101018EB2F6D101210348FFF7CAFD5F
:1007D00000F0C2F870BD0000001001403C3C2D4606
:1007E0004C4153482D4552524F522D3E3E205350BE
:1007F000495F464C4153485F506167655772697461
:100800006520746F6F206C61726765210A000000BB
:1008100010B5002401210C48FFF7A2FDAB2000F029
:100820005FF8FF2000F05CF8FF2000F059F8FF208F
:1008300000F056F8FF2000F053F80446012102486A
:10084000FFF790FD204610BD001001402DE9F0415A
:10085000002400250026002701210F48FFF780FD16
:100860009F2000F03DF8FF2000F03AF80546FF20F9
:1008700000F036F80646FF2000F032F80746012166
:100880000548FFF76FFD280440EA062040EA070408
:100890002046BDE8F08100000010014010B504467C
:1008A00000F074F800F058F801210C48FFF758FDEB
:1008B000202000F015F8C4F3074000F011F8C4F34D
:1008C000072000F00DF8E0B200F00AF8012103481B
:1008D000FFF748FD00F040F810BD00000010014097
:1008E00010B504464FF48050194908600AE01849D1
:1008F0000868411E164A116020B9002000F082F8F5
:10090000C0B210BD0221134800F050F80028EED00C
:100910002146104800F056F84FF480500C4908600A
:100920000AE00B490868411E094A116020B90120FC
:1009300000F068F8C0B2E4E70121064800F036F89C
:100940000028EED0034800F03AF8C0B2D9E7000022
:100950007C0000200030014010B5002401210A482D
:10096000FFF7FEFC0520FFF7BBFF00BFFF20FFF7EE
:10097000B7FF044604F001000028F7D10121024826
:10098000FFF7F0FC10BD00000010014010B5012180
:100990000548FFF7E5FC0620FFF7A2FF012102480A
:1009A000FFF7E0FC10BD00000010014002460020EF
:1009B00013890B400BB1012000E000207047014675
:1009C000888970478181704710B50022028802F43F
:1009D00041520B884C8823438C882343CC88234383
:1009E0000C8923434C8923438C892343CC8923439B
:1009F0001A430280838B4FF2FF74234083830B8A58
:100A0000038210BD10B50446214602A000F094F9FF
:100A1000002010BD3C3C2D464C4153482D455252C0
:100A20004F522D3E3E2053504920B5C8B4FDB3ACC3
:100A3000CAB1216572726F72436F6465203D2025D3
:100A4000640A0000704710B500F002F810BD000005
:100A50000CB50020019000903348006840F48030CD
:100A60003149086000BF3048006800F40030009051
:100A70000198401C0190009818B90198B0F5A06F3A
:100A8000F1D12948006800F4003010B10120009035
:100A900001E0002000900098012843D1234800681D
:100AA00040F01000214908600846006820F003006B
:100AB00008600846006840F0020008601A48406874
:100AC000194948600846406848600846406840F454
:100AD000806048600846406820F47C104860084602
:100AE000406840F4E81048600846006840F08070B4
:100AF000086000BF0C48006800F000700028F9D0C2
:100B00000948406820F003000749486008464068EB
:100B100040F00200486000BF0348406800F00C004D
:100B20000828F9D10CBD000000100240002002404E
:100B30007047000010B51348006840F001001149EB
:100B4000086008464068104908400E494860084659
:100B500000680E4908400B4908600846006820F408
:100B6000802008600846406820F4FE0048604FF48A
:100B70001F008860FFF767FF4FF0006004490860BE
:100B800010BD0000001002400000FFF8FFFFF6FE5D
:100B900008ED00E021B1828942F40052828104E034
:100BA00082894DF6FF731A408281704700B585B087
:100BB00001210420FFF73EFC01218803FFF73AFCE6
:100BC0004FF40070ADF8100018208DF813000320CA
:100BD0008DF8120004A91348FFF737FB4FF480602B
:100BE000ADF8100004208DF8130004A90D48FFF79C
:100BF0002CFB4FF4E13000900020ADF80400ADF87C
:100C00000600ADF80800ADF80C000C20ADF80A00A5
:100C10006946054800F018F801210348FFF7BAFFBC
:100C200005B000BD00080140003801400246002028
:100C3000B1F5007F00D100BF13880B400BB101203C
:100C400000E00020704700002DE9F04786B005461F
:100C50000E460024A24600BFA1460027B08900B17D
:100C600000BF2F462C8A4CF6FF700440F0880443E6
:100C70002C82AC894EF6F3100440B08831890843C9
:100C8000718908430443AC81AC8A4FF6FF400440AD
:100C9000B0890443AC8201A8FFF7DCFB1F48874200
:100CA00002D1DDF810A001E0DDF80CA0A88900F465
:100CB000004040B10AEBCA0000EB0A10316849005D
:100CC000B0FBF1F807E00AEBCA0000EB0A1031684C
:100CD0008900B0FBF1F86420B8FBF0F004012009B2
:100CE000642101FB1089A88900F4004040B1322042
:100CF00000EBC900B0FBF1F000F00700044308E08E
:100D0000322000EB09106421B0FBF1F000F00F007D
:100D100004432C8106B0BDE8F08700000038014094
:100D200001468888C0F308007047C1F3080282803A
:100D3000704700BFFEE700000FB4054B10B503A9D4
:100D4000044A029800F018F810BC5DF814FB00008B
:100D5000591000088400002002E008C8121F08C1D2
:100D6000002AFAD170477047002001E001C1121F2C
:100D7000002AFBD1704700002DE9FF4F8DB09B4644
:100D80000F460446002606E025280BD05A460F9948
:100D90009047641C761C20780028F5D111B03046AD
:100DA000BDE8F08F0025A8460122984900E00543E0
:100DB00014F8013F203B02FA03F00842F7D12078F3
:100DC0002E2817D114F8010F45F004052A280ED05B
:100DD0006FF02F022078A0F1300109290AD808EB22
:100DE000880102EB410100EB0108641CF2E757F8AF
:100DF000048B641C20786C280DD004DC4C2812D0A5
:100E00006A2811D104E074280DD07A280CD10AE0A8
:100E100045F4001507E0617845F48015814202D160
:100E2000641C05F58015641C2078692844D008DC12
:100E30000028B3D0582867D063280FD0642808D181
:100E40003AE0702865D0732812D075285AD07828D7
:100E50005AD05A460F999047761CD5E017F8040BE4
:100E60008DF8000000208DF80100E946012003E024
:100E700057F8049B4FF0FF3069074FF0000501D48D
:100E80000AE06D1C45450DDA8542FADB19F80510BC
:100E90000029F6D106E06D1C8542FCDB19F805102F
:100EA0000029F8D12E4404E019F8010B5A460F9995
:100EB00090476D1EF8D2A7E00A200021CDE9080175
:100EC000C5F3025002280CD001CFC117021E71F1E8
:100ED00000020CDA0023D0EB030063EB01012D22AA
:100EE00008E0FF1D27F00707F7E80201EEE72A05F3
:100EF00004D52B228DF8282001223CE0EA073AD0C5
:100F00002022F7E70A2000E010200021CDE90801A7
:100F100007E01020002145F00405CDE908014FF05D
:100F20000808C5F30250022810D001CF00214FF06D
:100F3000000A2A0720D52278702A0DD0DDE908C3DF
:100F40008CF0100C5CEA030C0CD015E0FF1D27F0B0
:100F50000707F7E80201EAE740228DF828204FF062
:100F6000010A0CE050EA010306D030238DF8283046
:100F70008DF82920022292462278582A04D024A2F1
:100F80000DF120090B9209E026A2F9E7DDE908231B
:100F9000FFF7ECF80B9B9B5C09F8013D50EA01025E
:100FA000F4D1ADEB090020300890680701D44FF070
:100FB00001080899884503DD0898A8EB000000E0C7
:100FC00000208046002506E00AA85A46405D0F9999
:100FD00090476D1C761C5545F6DB04E030205A46E0
:100FE0000F999047761CB8F10001A8F10108F5DCD3
:100FF00005E019F8010B5A460F999047761C08999D
:10100000481E08900029F4DC641CC4E6092801008D
:10101000303132333435363738396162636465666E
:101020000000000030313233343536373839414230
:10103000434445460000000010B5044600BF20218F
:101040000448FFF7F3FD0028F9D00248FFF768FED7
:1010500010BD00000038014070B504460D46E1B2F5
:101060000548FFF762FE00BF80210348FFF7DEFD61
:101070000028F9D0204670BD00380140FFF7DCBFE2
:101080001CB5002001900090FFF7B6F9FFF78EFD28
:10109000FFF710FBFFF7BCFB0190C820FFF7CCF86F
:1010A000FFF7D4FB009009A0DDE90012FFF744FE32
:1010B00006E01348FFF7E2FFC4B22046FFF754F9F9
:1010C000104900988842F4D000201CBD466C617322
:1010D00068494420697320307825582C4D616E751D
:1010E0006661637475726572204465766963652014
:1010F00049442069732030782558200D0A000000EB
:10110000800000201740EF00281100080000002098
:1011100088000000580D0008B01100088800002069
:1011200068040000680D00080000000001020304CC
:1011300001020304060708090204060831393331A5
:10114000303132303431302DCEBAD0CBBAFE0D0A28
:101150002031393331303132303431312DBDAFD3DC
:10116000C0BAE90D0A2031393331303132303432EE
:10117000322DC7D8B7A2D5B90D0A20313933313055
:101180003132303432372DD3CED4AAB7BC0D0A2039
:1011900031393331303132303434322DC0D7CBA7EE
:1011A0000D0A000000A00000000000000000000088
:0400000508000149A5
:00000001FF
