:020000040800F2
:1000000090970020E101000805040008790300082A
:1000100001040008550200086D0B000800000000F4
:10002000000000000000000000000000490100087E
:1000300059020008000000008D010008D9060008E0
:10004000FB010008FB010008FB010008FB010008A0
:10005000FB010008FB010008FB010008FB01000890
:10006000FB010008FB010008FB010008FB01000880
:10007000FB010008FB010008FB010008FB01000870
:10008000FB010008FB010008FB010008FB01000860
:10009000FB010008FB010008FB010008FB01000850
:1000A000FB010008FB010008FB010008FB01000840
:1000B000FB010008A507000841080008FB01000833
:1000C000FB010008FB010008FB010008FB01000820
:1000D000FB010008FB010008FB010008FB01000810
:1000E000FB010008FB010008FB010008FB01000800
:1000F000FB010008FB010008FB010008FB010008F0
:10010000FB010008FB010008FB010008FB010008DF
:10011000FB010008FB010008FB010008FB010008CF
:10012000FB010008FB010008FB010008FB010008BF
:10013000DFF810D000F07CF800480047850E00087A
:10014000AFF3008090970020224B19680868B0E850
:10015000F00F80F30988BFF36F8F4FF0000080F33A
:1001600011884EF00D0E7047000000000648006830
:10017000006880F3088862B661B6BFF34F8FBFF3A3
:100180006F8F00DF00BF00BF08ED00E0EFF30980D4
:10019000BFF36F8F0F4B1A6820E9F00F106008B59E
:1001A0004FF0500080F31188BFF34F8FBFF36F8F74
:1001B00001F07EFC4FF0000080F31188BDE808409C
:1001C00019680868B0E8F00F80F30988BFF36F8FF3
:1001D000704700BF38000020EFF305807047000033
:1001E0000648804706480047FEE7FEE7FEE7FEE7D1
:1001F000FEE7FEE7FEE7FEE7FEE7FEE7450700084D
:100200003101000830B50B460146002020220124B0
:1002100009E021FA02F59D4205D303FA02F5491BD4
:1002200004FA02F52844151EA2F10102F1DC30BDEA
:10023000064C074D06E0E06840F0010394E8070033
:1002400098471034AC42F6D3FFF776FFB020000891
:10025000D020000800BFFEE770472DE9F0410246BC
:1002600000250026002000230024002791F803C069
:100270000CF00F0591F803C00CF0100CBCF1000F4E
:1002800003D091F802C04CEA050591F800C0BCF11A
:10029000000F31D0146800202BE04FF0010C0CFA55
:1002A00000F3B1F800C00CEA03069E4220D183009F
:1002B0004FF00F0C0CFA03F7BC4305FA03FC4CEAB1
:1002C000040491F803C0BCF1280F06D14FF0010CD3
:1002D0000CFA00FCC2F814C00AE091F803C0BCF1AB
:1002E000480F05D14FF0010C0CFA00FCC2F810C009
:1002F000401C0828D1D31460B1F800C0BCF1FF0F36
:1003000034DD546800202EE000F1080C4FF00108A5
:1003100008FA0CF3B1F800C00CEA03069E4221D1A2
:1003200083004FF00F0C0CFA03F7BC4305FA03FCF3
:100330004CEA040491F803C0BCF1280F05D100F188
:10034000080C08FA0CF8C2F8148091F803C0BCF14C
:10035000480F07D100F1080C4FF0010808FA0CF81B
:10036000C2F81080401C0828CED35460BDE8F0814C
:10037000416170470161704700BFFEE708B5012188
:10038000142000F0A7F80120ADF8000004208DF83B
:10039000030069460748FFF760FF4FF40050ADF8CF
:1003A000000004208DF8030069460348FFF755FF5D
:1003B00008BD0000000801400010014008B50121FF
:1003C000082000F087F82320ADF8000010208DF8F9
:1003D000030003208DF8020069460848FFF73DFF3F
:1003E00001210648FFF7C6FF02210448FFF7C2FFBC
:1003F00020210248FFF7BEFF08BD0000000C0140AD
:1004000000BFFEE7704708B54FF4407000F048F8B1
:1004100025208DF8000006208DF8010000208DF8C1
:10042000020001208DF80300684600F001F808BDC5
:1004300070B5002100230F22C47804B3154C246842
:1004400004F4E064C4F5E064210AC1F10403CA4085
:10045000447804FA03F184781440214309010E4CD6
:100460000678A155047804F01F050124AC400578F6
:100470006D11AD0005F1E025C5F8004109E00478F3
:1004800004F01F050124AC40044D0678761145F8B0
:10049000264070BD0CED00E000E400E080E100E0EB
:1004A00002490143024A1160704700000000FA054A
:1004B0000CED00E029B1064AD2690243044BDA612F
:1004C00004E0034AD2698243014BDA6170470000BD
:1004D0000010024029B1064A92690243044B9A6116
:1004E00004E0034A92698243014B9A61704700001D
:1004F0000010024030B500210022002400232D4DC1
:100500006D6805F00C0121B1042905D0082923D11B
:1005100005E0294D056022E0274D05601FE0254DCF
:100520006D6805F47012234D6D6805F48034022562
:1005300005EB92421CB9214D554305600BE01D4D62
:100540006D6805F400351DB11C4D5543056002E092
:10055000194D5543056002E0174D056000BF00BF0F
:10056000144D6D6805F0F0010909154D6B5C0568C7
:10057000DD4045600F4D6D6805F4E061090A104DDE
:100580006B5C4568DD4085600A4D6D6805F460511F
:10059000C90A0B4D6B5C4568DD40C560054D6D6853
:1005A00005F44041890B074D6B5CC568B5FBF3F55D
:1005B000056130BD0010024000127A0000093D00C4
:1005C000000000201000002010B500F001F810BD60
:1005D0000CB50020019000903348006840F4803052
:1005E0003149086000BF3048006800F400300090D6
:1005F0000198401C0190009818B90198B0F5A06FBF
:10060000F1D12948006800F4003010B101200090B9
:1006100001E0002000900098012843D123480068A1
:1006200040F01000214908600846006820F00300EF
:1006300008600846006840F0020008601A484068F8
:10064000194948600846406848600846406840F4D8
:10065000806048600846406820F47C104860084686
:10066000406840F4E81048600846006840F0807038
:10067000086000BF0C48006800F000700028F9D046
:100680000948406820F00300074948600846406870
:1006900040F00200486000BF0348406800F00C00D2
:1006A0000828F9D10CBD00000010024000200240D3
:1006B000042808D14FF0E021096941F004014FF00E
:1006C000E022116107E04FF0E021096921F0040107
:1006D0004FF0E0221161704710B501F027FB0128AF
:1006E00001D001F0D9FA10BD70B505460420FFF71E
:1006F000DFFF104800681049B0FBF1F00F490870A7
:100700000C4800680C49B0FBF1F44FF47A70444394
:1007100001200B4908804FF0E020006940F0020002
:100720004FF0E021086108464461006940F0010093
:10073000086170BD200000208096980034000020E1
:100740003600002010B51348006840F00100114940
:10075000086008464068104908400E49486008464D
:1007600000680E4908400B4908600846006820F4FC
:10077000802008600846406820F4FE0048604FF47E
:100780001F008860FFF720FF4FF0006004490860F9
:1007900010BD0000001002400000FFF8FFFFF6FE51
:1007A00008ED00E010B50121054800F0A6F810B1F1
:1007B00004A000F0DDF90121014800F08FF810BD20
:1007C0000004004054494D33CAE4B3F62E2E2E2EB9
:1007D0002E2E0D0A000000007FB505460C460121B3
:1007E0000220FFF767FE1D208DF80C0004208DF815
:1007F0000D0000208DF80E0001208DF80F0003A8D9
:10080000FFF716FE681E80B2ADF80400601E80B2CD
:10081000ADF800000020ADF80600ADF80200694612
:10082000064800F085F80121044800F05AF801223A
:100830001146024800F072F87FBD0000000400403D
:1008400010B50121054800F058F810B104A000F0DF
:100850008FF90121014800F041F810BD0008004067
:1008600054494D34CAE4B3F62E2E2E2E2E2E0D0AE8
:10087000000000007FB505460C4601210420FFF76B
:1008800019FE1E208DF80C0005208DF80D000020AB
:100890008DF80E0001208DF80F0003A8FFF7C8FDAA
:1008A000681E80B2ADF80400601E80B2ADF8000092
:1008B0000020ADF80600ADF802006946064800F0D9
:1008C00037F80121044800F00CF8012211460248D3
:1008D00000F024F87FBD000000080040CA430282F7
:1008E000704721B1028842F00102028004E00288D0
:1008F0004FF6FE731A400280704730B50246002062
:1009000000230024158A05EA0103958905EA0104FC
:1009100013B10CB1012000E0002030BD1AB1838971
:100920000B43838102E083898B43838170470000FE
:10093000002202881D4B98420ED01D4B98420BD0CE
:10094000B0F1804F08D01B4B984205D01A4B98420B
:1009500002D01A4B984204D14FF68F731A404B883D
:100960001A43174B984207D0164B984204D04FF6C3
:10097000FF431A40CB881A4302808B8883850B88FB
:1009800003850A4B98420BD0094B984208D00E4B76
:10099000984205D00D4B984202D00D4B984201D1A0
:1009A0000B7A03860123838270470000002C0140EC
:1009B000003401400004004000080040000C0040EA
:1009C000001000400014004000400140004401407D
:1009D0000048014021B1828942F40052828104E042
:1009E00082894DF6FF731A408281704700B585B049
:1009F00001210420FFF76EFD01218803FFF76AFD46
:100A00004FF40070ADF8100018208DF8130003208B
:100A10008DF8120004A91448FFF71FFC4FF4806002
:100A2000ADF8100004208DF8130004A90E48FFF75C
:100A300014FC4FF4E13000900020ADF80400ADF854
:100A40000600ADF80800ADF80C000C20ADF80A0067
:100A50006946064800F01AF8FFF7D5FC0121034863
:100A6000FFF7B8FF05B000BD0008014000380140A5
:100A700002460020B1F5007F00D100BF13880B4073
:100A80000BB1012000E00020704700002DE9F04785
:100A900086B005460E460024A24600BFA1460027A8
:100AA000B08900B100BF2F462C8A4CF6FF7004407D
:100AB000F08804432C82AC894EF6F3100440B088D1
:100AC00031890843718908430443AC81AC8A4FF6ED
:100AD000FF400440B0890443AC8201A8FFF70AFD3F
:100AE0001F48874202D1DDF810A001E0DDF80CA01C
:100AF000A88900F4004040B10AEBCA0000EB0A10DC
:100B000031684900B0FBF1F807E00AEBCA0000EBDE
:100B10000A1031688900B0FBF1F86420B8FBF0F0EE
:100B200004012009642101FB1089A88900F4004018
:100B300040B1322000EBC900B0FBF1F000F007003B
:100B4000044308E0322000EB09106421B0FBF1F00F
:100B500000F00F0004432C8106B0BDE8F0870000D0
:100B600000380140C1F308028280704700BFFEE7F1
:100B70000FB4054B10B503A9044A029800F018F809
:100B800010BC5DF814FB0000C90D0008A400002093
:100B900002E008C8121F08C1002AFAD17047704746
:100BA000002001E001C1121F002AFBD170470000A4
:100BB0002DE9FF4F8BB09A460F460546002606E00A
:100BC00025280BD052460D9990476D1C761C28782D
:100BD0000028F5D10FB03046BDE8F08F0024A046C4
:100BE0000122604900E0044315F8013F203B02FA6E
:100BF00003F00842F7D128782E2817D115F8010FF5
:100C000044F004042A280ED06FF02F022878A0F1B7
:100C1000300109290AD808EB880102EB410100EBF9
:100C200001086D1CF2E757F8048B6D1C28786928C1
:100C30003ED006DC0028CDD063280BD0642804D138
:100C400036E0732810D075284BD052460D99904746
:100C5000761C85E017F8040B8DF8000000208DF855
:100C60000100E946012003E057F8049B4FF0FF30F4
:100C700061074FF0000401D40AE0641C44450DDA1A
:100C80008442FADB19F804100029F6D106E0641C4E
:100C90008442FCDB19F804100029F8D1264404E052
:100CA00019F8010B52460D999047641EF8D257E08F
:100CB00001CF4FF00A0B002802DA40422D2102E05A
:100CC000210504D52B218DF82410012103E0E10733
:100CD00005D02021F7E70DF1200908910CE0002153
:100CE000F9E701CF4FF00A0BF9E75946FFF78AFA07
:100CF00001F1300209F8012D0028F6D1ADEB090011
:100D000000F1200B600701D44FF00108D84502DD47
:100D1000A8EB0B0000E000208046002406E009A8B4
:100D20005246005D0D999047641C761C08988442D9
:100D3000F5DB04E0302052460D999047761CB8F15F
:100D40000001A8F10108F5DC05E019F8010B524695
:100D50000D999047761CBBF10001ABF1010BF4DC5F
:100D60006D1C34E70928010070B5034600224FF0DE
:100D7000E02675690D4E367803FB06F44FF0E02649
:100D8000B16910E04FF0E026B06988420BD088428C
:100D900002D20E1A324402E02E1A0E4432440146A8
:100DA000A24200D300E0EDE700BF70BD3400002098
:100DB00030B50446002504E04FF47A70FFF7D4FF05
:100DC0006D1CA542F8D330BD70B504460D46E1B2A6
:100DD0000548FFF7C7FE00BF80210348FFF748FE24
:100DE0000028F9D0204670BD0038014000241FE0E3
:100DF000641C052C18D100240EA0FFF7B9FE00BF1B
:100E0000502080F31188BFF34F8FBFF36F8F00BF67
:100E10004CF25030FFF7CCFF0BA0FFF7A9FE0020EB
:100E200080F3118800BF00BF4FF47A7000F01EFD00
:100E3000DEE70000B9D8B1D5D6D0B6CF2E2E2E2EF3
:100E40002E2E0D0A00000000B4F2BFAAD6D0B6CFF5
:100E50002E2E2E2E2E2E0D0A000000000FE0022155
:100E60000748FFF787FA4FF4FA7000F0FFFC022101
:100E70000348FFF77DFA4FF4FA7000F0F7FCEEE755
:100E8000000C01401CB54820FFF72EFC4FF44070C9
:100E9000FFF706FBFFF792FAFFF770FAFFF7A6FDE0
:100EA0004FF4E15142F21070FFF796FC4FF4E1511C
:100EB00042F21070FFF7DEFC064801210023802279
:100EC000CDE9001004A1074800F000FF00F092FDFA
:100ED00000201CBD1400002073746172745F746183
:100EE000736B0000811500082DE9F04105460E46A0
:100EF0002648076826480068001D00F079FB50B9B5
:100F00002348006890F82C10012088402149096886
:100F1000814320480160681CD8B9D6B11E49486891
:100F20001B49096888601A4982680968CA601849BB
:100F30000968091D8268516015490968091D8160A9
:100F4000154A134909684A6111460968491C11602C
:100F50001AE07C190E4800684460BC4207D20C4875
:100F60000168091D0D48006800F066FB0CE00848A8
:100F70000168091D0A48006800F05EFB0948006826
:100F8000844201D207480460BDE8F0814C00002093
:100F9000380000205000002078030020400000208E
:100FA0003C0000206800002010B5044600F06AFBF9
:100FB0002F480068401C2E4908602E48006840B940
:100FC0002C4804600846006801280DD100F04EF955
:100FD0000AE02948006838B926480068C06AE16A12
:100FE000884201D82348046024480068401C2349F3
:100FF000086094F82C1001208840214909680843B2
:101000001F490860E16A01EB81011E4A02EB810180
:101010004868A0608268E260211D8268516081603A
:10102000E16A01EB8101174A02EB81026261E16A28
:1010300001EB8101134A52F82110491CE26A02EBCC
:101040008202104B43F8221000F060FB0A4800684F
:1010500068B108480068C06AE16A884207D24FF068
:10106000805009490860BFF34F8FBFF36F8F10BDE9
:1010700048000020380000205400002064000020B8
:1010800050000020A800002004ED00E010B516E09C
:1010900000F0F8FA0C48C068C468201D00F0A8FAF7
:1010A0000A480068401E0949086009480068401E57
:1010B0000749086000F02AFB204600F00BF80448BE
:1010C00000680028E4D110BD64030020480000201F
:1010D0004400002010B50446206B00F04FFB204672
:1010E00000F04CFB10BD000030B54FF41043174822
:1010F00000F007042CB1C01D20F00700134C041BA6
:101100001B1B0246124C22600024114D6C60D0184B
:10111000083820F007000F4C206000240D4D2D688A
:101120006C600C4D2D682C601146441A4C60094CC3
:1011300024680C60084D4C682C60084D4C682C608D
:101140004FF00044064D2C6030BD00008C030020A1
:10115000780000208000002088000020840000200B
:101160009400002000BFFFF791FF064800680128A7
:10117000F9D94FF0805004490860BFF34F8FBFF397
:101180006F8FF0E7A800002004ED00E02DE9FF5F7D
:1011900081460E469246DDE90E7B109CAAF10100C5
:1011A000216B01EB800828F0070808F0070008B958
:1011B000012000E0002028B94FF4587222A127A096
:1011C000FFF7D6FC86B1002507E0715D04F134001D
:1011D0004155705D00B902E06D1C102DF5D300BFC4
:1011E00000214320015502E0002084F83400202F24
:1011F00001D2012000E0002028B940F2973212A16C
:1012000016A0FFF7B5FC202F00D31F27E762201D93
:1012100000F00FFA04F1180000F00BFA2461C7F196
:101220002000A06164620020606484F848004946A0
:101230004046039A00F092F92060BBF1000F01D004
:10124000CBF80040BDE8FF9F2E2E5C4672656552CC
:10125000544F535C7461736B732E63004572726FED
:10126000723A25732C25640D0A00000010B5002485
:1012700007E004EB84010F4A02EB810000F0CCF997
:10128000641C202CF5D30C4800F0C6F90B4800F084
:10129000C3F90B4800F0C0F90A4800F0BDF90A484C
:1012A00000F0BAF904480949086004480849086090
:1012B00010BD0000A8000020280300203C030020EF
:1012C0005003002064030020780300203C0000202D
:1012D0004000002010B50146164800E00068036891
:1012E0008B42FBD30246436813448B4204D14368CC
:1012F0004C682344436001460A464B681344046823
:10130000A34211D10C4C03682468A34208D04B6857
:101310000468646823444B6003681B680B6005E045
:10132000054B1B680B6001E003680B60884200D02E
:10133000016010BD7800002080000020094800688E
:10134000006808B9012000E0002020B14FF0FF3014
:101350000549086005E003480068C0680068024964
:10136000086070473C000020680000200B480068BF
:10137000401C08B9012000E0002020B9CE2208A1BD
:1013800012A0FFF7F5FB00BF502080F31188BFF3D8
:101390004F8FBFF36F8F00BF00BFFEE798000020A4
:1013A0002E2E5C4672656552544F535C706F72749A
:1013B00061626C655C525644535C41524D5F434DD3
:1013C000335C706F72742E63000000004572726FA0
:1013D000723A25732C25640D0A0000002DE9F041B6
:1013E00004464FF0000800F05BFB4848006808B96D
:1013F000FFF77AFE464800682040002873D114B3F6
:1014000004F10800A0421ED9083404F00700D8B146
:1014100004F00700C0F108002044A04211D904F0F4
:101420000700C0F10800044404F0070008B90120D7
:1014300000E0002040B99C2236A140A0FFF798FBB5
:1014400002E0002400E00024002C4CD03F4800685B
:10145000844248D83E4E3046056801E02E462D684D
:101460006868A04202D228680028F7D1274800689F
:10147000854238D0306800F1080828683060686814
:10148000001B102813D92F1907F0070008B90120F5
:1014900000E0002020B9CF221EA128A0FFF768FBA2
:1014A0006868001B78606C603846FFF713FF2749B7
:1014B00068680968081A25490860084600682549CF
:1014C0000968884203D2214800682249086010490F
:1014D0006868096808436860002028601E48006842
:1014E000401C1D49086000F01BFD08F0070008B90A
:1014F000012000E0002028B94FF4887205A10FA058
:10150000FFF736FB4046BDE8F08100008000002078
:10151000940000202E2E5C4672656552544F535C39
:10152000706F727461626C655C4D656D4D616E6764
:101530005C686561705F342E630000004572726FF5
:10154000723A25732C25640D0A00000084000020E7
:1015500078000020880000208C000020001F4FF041
:1015600080730360001F21F001030360001F034B21
:101570000360143802602038704700006D130008C3
:101580001CB5044600F07EF80D48012100233222EC
:10159000CDE900100BA10E4800F098FB0D48042186
:1015A00000233222CDE900100BA10F4800F08EFB82
:1015B0000E48006800F094F900F0A8F81CBD000087
:1015C000180000206C6564315F7461736B0000006B
:1015D0005D0E00081C000020696E746572727570E3
:1015E000745F7461736B0000ED0D0008140000203F
:1015F00001460A69D1E901309860D1E901035860D8
:101600005068884201D188685060002008611068E5
:10161000401E10601068704700F1080141604FF0F3
:10162000FF31816000F10801C160016100210160AA
:10163000704700210161704710B502460B685C1CC1
:101640000CB9106907E002F1080000E04068446846
:1016500024689C42FAD944684C604C68A160886058
:1016600041600A611468641C146010BD42684A60DD
:1016700093688B60936859609160086103685B1C94
:101680000360704710B500BF502080F31188BFF38E
:101690004F8FBFF36F8F00BF0B480068401C0A4993
:1016A00008600846006801280DD108480068C0B2EB
:1016B00008B9012000E0002028B940F2731204A10B
:1016C0000EA0FFF755FA10BD9800002004ED00E0D1
:1016D0002E2E5C4672656552544F535C706F727467
:1016E00061626C655C525644535C41524D5F434DA0
:1016F000335C706F72742E63000000004572726F6D
:10170000723A25732C25640D0A00000010B50B48B1
:10171000006828B94FF4BD7209A114A0FFF728FA98
:1017200006480068401E054908600846006820B960
:10173000002080F3118800BF00BF10BD980000207A
:101740002E2E5C4672656552544F535C706F7274F6
:1017500061626C655C525644535C41524D5F434D2F
:10176000335C706F72742E63000000004572726FFC
:10177000723A25732C25640D0A00000070B50646E8
:101780003546002E3AD0083D2C461D496068096850
:10179000084008B1012000E0002028B94FF49272FF
:1017A00018A122A0FFF7E4F9206808B9012000E0A1
:1017B000002028B940F2251212A11CA0FFF7D8F989
:1017C0000F49606809680840C0B12068B0B90C4989
:1017D000606809688843606000F062F917496068D2
:1017E00009680844154908602046FFF773FD14484E
:1017F0000068401C1249086000F092FB70BD0000B8
:10180000940000202E2E5C4672656552544F535C46
:10181000706F727461626C655C4D656D4D616E6771
:101820005C686561705F342E630000004572726F02
:10183000723A25732C25640D0A00000084000020F4
:101840009000002000204FF0E021086188610648E8
:1018500000684FF47A71B0FBF1F0401E4FF0E021C8
:1018600048610720086170472000002070B50446D9
:101870000025ACB10F48006808B9012000E0002045
:1018800028B940F249520CA110A0FFF771F900F0FD
:1018900007F900212046FFF727FB00F041FB054632
:1018A0003DB94FF080500D490860BFF34F8FBFF333
:1018B0006F8F70BD740000202E2E5C4672656552DD
:1018C000544F535C7461736B732E63004572726F77
:1018D000723A25732C25640D0A00000004ED00E027
:1018E00070B50546FFF7CEFE15B92F48006800E039
:1018F00028460446201DFFF77BFE78B9E06A00EB1E
:1019000080002A4951F8200040B994F82C10012099
:10191000884027490968814325480160A06A18B1B9
:1019200004F11800FFF764FE22480068401C2149BA
:1019300008601D480068844209D1211D1E48FFF738
:1019400095FE1E480068401C1C49086006E01C48C3
:101950000068401E1A490860FFF7F0FCFFF7D6FE4A
:1019600011480068844202D02046FFF7B3FB1548B7
:101970000068C0B10C480068844214D11248006865
:1019800008B9012000E0002028B940F2DC420FA194
:1019900013A0FFF7EDF84FF0805015490860BFF332
:1019A0004F8FBFF36F8F70BD38000020A80000205C
:1019B0005000002064000020640300204400002048
:1019C0004800002054000020740000202E2E5C46A9
:1019D00072656552544F535C7461736B732E630070
:1019E0004572726F723A25732C25640D0A0000004F
:1019F00004ED00E01CB5194800210B468022CDE91A
:101A0000001017A1184800F061F90446012C15D107
:101A100000BF502080F31188BFF34F8FBFF36F8F4B
:101A200000BF4FF0FF3011490860012010490860E5
:101A300000201049086000F08FF80BE0601C08B12E
:101A4000012000E0002028B94FF404620AA10FA091
:101A5000FFF78EF8114800681CBD00006C000020E4
:101A600049444C4500000000651100086800002052
:101A7000540000204C0000202E2E5C4672656552FA
:101A8000544F535C7461736B732E63004572726FB5
:101A9000723A25732C25640D0A00000070000020A6
:101AA00002480068401C014908607047740000202B
:101AB00010B51B48006818B101201A4908602DE0D4
:101AC00000201849086018480068B0FA80F0C0F19A
:101AD0001F0404EB8400154951F8200008B10120CF
:101AE00000E0002028B940F6024211A115A0FFF73E
:101AF0003FF804EB84010D4A02EB8100416849681C
:101B0000416000F1080142688A4202D14168496897
:101B100041604168C9680F4A116000BF10BD0000F4
:101B2000740000205C00002050000020A80000206D
:101B30002E2E5C4672656552544F535C7461736B14
:101B4000732E63004572726F723A25732C25640DF3
:101B50000A000000380000201CB53B4C20460078ED
:101B60000190FF20214608700846007800909DF8FB
:101B7000000000F0F0009DF80010884201D1012023
:101B800000E0002028B940F21F1230A13AA0FEF771
:101B9000EFFF9DF8000000F050003B49087007205F
:101BA0003A49086009E039480068401E3749086032
:101BB0009DF800004006000E00909DF8000000F027
:101BC00080008028EFD031480068C0F10700042869
:101BD00001D1012000E0002028B940F233121BA1FE
:101BE00025A0FEF7C5FF29480068C0F107000428BA
:101BF00001D1012000E0002028B94FF49E7213A10A
:101C00001DA0FEF7B5FF2148006800021F490860CB
:101C10000846008800F4E06008600B4901980870ED
:101C20001B48006840F470001949086008460068C5
:101C300040F070400860FFF705FE0020154908607D
:101C4000FEF794FA00201CBD00E400E02E2E5C4656
:101C500072656552544F535C706F727461626C654B
:101C60005C525644535C41524D5F434D335C706F40
:101C700072742E63000000004572726F723A257311
:101C80002C25640D0A0000009C000020A00000200C
:101C900020ED00E09800002010B500BF502080F338
:101CA0001188BFF34F8FBFF36F8F00BF00F04EF866
:101CB00018B14FF080500449086000BF002080F345
:101CC000118800BF10BD000004ED00E02DE9FF4FBA
:101CD00085B0804689461746DDE912ABB800FFF7AC
:101CE0007DFB064656B14C20FFF778FB04460CB14D
:101CF000266304E03046FFF741FD00E000247CB19C
:101D00000020CDE900ABCDE902403A4649464046C5
:101D1000089BFFF73BFA2046FFF746F9012501E053
:101D20004FF0FF35284609B0BDE8F08F0549096836
:101D300009B9012005E00449096809B9022000E059
:101D40000020704754000020740000202DE9F0416D
:101D50004FF000085E48006800287DD15D480068AB
:101D6000451C5C480560EDB95B480068006808B92F
:101D7000012000E0002028B940F6C72257A15CA04E
:101D8000FEF7F6FE544807685D480068524908604F
:101D90005B4807605B480068401C5A490860FFF7D1
:101DA000CDFA00BF58480068854277D300BF4A4843
:101DB0000068006808B9012000E0002020B14FF061
:101DC000FF305149086068E043480068C068C46853
:101DD0006668B54202D24C4806605EE06069D4E9AC
:101DE00002128A60D4E902214A60211D42688A42B7
:101DF00001D1E1684160002262610168491E016011
:101E0000A06A98B1A06AD4E907128A60D4E90721D0
:101E10004A6004F1180142688A4201D1216A416096
:101E20000022A2620168491E016000BF94F82C10D4
:101E30000120884035490968084334490860E16A4F
:101E400001EB8101324A02EB81014868A06082689F
:101E5000E260211D826800E032E051608160E16A49
:101E600001EB81012A4A02EB81026261E16A01EB26
:101E70008101274A52F82110491CE26A02EB8202D2
:101E8000234B43F822102349E06A0968C96A884253
:101E90008DD34FF001088AE700E000BF1D480068BD
:101EA000C06A00EB80001A4951F82000012801D9CE
:101EB0004FF001081848006808B14FF0010804E02D
:101EC00016480068401C154908604046BDE8F0818E
:101ED000740000204C0000203C0000202E2E5C46A8
:101EE00072656552544F535C7461736B732E63005B
:101EF0004572726F723A25732C25640D0A0000003A
:101F000040000020600000206800002050000020F9
:101F1000A8000020380000205C00002058000020AD
:101F200070B5002400265048006828B940F6B30276
:101F30004EA153A0FEF71CFEFFF7A4FB4A48006821
:101F4000401E494908600846006800287ED1504874
:101F5000006800287AD05BE04E48C068C468A06A78
:101F6000D4E907128A60D4E907214A6004F1180114
:101F700042688A4201D1216A41600022A26201685E
:101F8000491E01606069D4E902128A60D4E9022125
:101F90004A60211D42688A4201D1E1684160002205
:101FA00062610168491E016094F82C10012088408C
:101FB00039490968084338490860E16A01EB810141
:101FC000364A02EB81014868A0608268E260211D08
:101FD000826851608160E16A01EB81012F4A02EB66
:101FE00081026261E16A01EB81012C4A52F8211001
:101FF000491CE26A02EB8202284B43F8221028496E
:10200000E06A0968C96A884202D30120254908604C
:102010002048006808B9012000E0002000289BD07B
:102020000CB1FFF78BF92048056865B100BFFFF7D9
:102030008DFE10B101201B4908606D1E002DF6D1E8
:102040000020194908601748006800E008E038B12E
:102050000126300715490860BFF34F8FBFF36F8F1C
:10206000FFF754FB304670BD740000202E2E5C46F6
:1020700072656552544F535C7461736B732E6300C9
:102080004572726F723A25732C25640D0A000000A8
:10209000480000205003002050000020A80000202D
:1020A000380000205C0000205800002004ED00E013
:1020B000D020000800000020A8000000900B0008BD
:1020C00078210008A8000020E8960000A00B000876
:1020D00000000000010203040102030406070809CE
:1020E00002040608000000000000000000000000DC
:1020F00000A24A04000000000000000001020304E6
:1021000006070809000000000000000000000000B1
:1021100000000000000000000000000000000000BF
:1021200000000000000000000000000000000000AF
:10213000000000000000000000000000000000009F
:102140001F00000000000000000000000000000070
:10215000000000000000000000000000000000007F
:102160000000000000000000AAAAAAAA00000000C7
:08217000000000000000000067
:04000005080001E10D
:00000001FF
