:020000040800F2
:1000000098970020E101000865040008AF0300088C
:1000100061040008790200087D0900080000000062
:10002000000000000000000000000000490100087E
:100030007D020008000000008D010008190700087B
:10004000FB010008FB010008FB010008FB010008A0
:10005000FB010008FB010008FB010008FB01000890
:10006000FB010008FB010008FB010008FB01000880
:10007000FB010008FB010008FB010008FB01000870
:10008000FB010008FB010008FB010008FB01000860
:10009000FB010008FB010008FB010008FB01000850
:1000A000FB010008FB010008FB010008FB01000840
:1000B000FB010008FB010008FB010008FB01000830
:1000C000FB010008FB010008FB010008FB01000820
:1000D000FB010008FB010008FB010008FB01000810
:1000E000FB010008FB010008FB010008FB01000800
:1000F000FB010008FB010008FB010008FB010008F0
:10010000FB010008FB010008FB010008FB010008DF
:10011000FB010008FB010008FB010008FB010008CF
:10012000FB010008FB010008FB010008FB010008BF
:10013000DFF810D000F08EF800480047190C0008D6
:10014000AFF3008098970020224B19680868B0E848
:10015000F00F80F30988BFF36F8F4FF0000080F33A
:1001600011884EF00D0E7047000000000648006830
:10017000006880F3088862B661B6BFF34F8FBFF3A3
:100180006F8F00DF00BF00BF08ED00E0EFF30980D4
:10019000BFF36F8F0F4B1A6820E9F00F106008B59E
:1001A0004FF0500080F31188BFF34F8FBFF36F8F74
:1001B00001F0D2FC4FF0000080F31188BDE8084048
:1001C00019680868B0E8F00F80F30988BFF36F8FF3
:1001D000704700BF40000020EFF30580704700002B
:1001E0000648804706480047FEE7FEE7FEE7FEE7D1
:1001F000FEE7FEE7FEE7FEE7FEE7FEE7850700080D
:100200003101000840EA01039B0703D009E008C957
:10021000121F08C0042AFAD203E011F8013B00F8CB
:10022000013B521EF9D2704730B50B460146002003
:100230002022012409E021FA02F59D4205D303FAA8
:1002400002F5491B04FA02F52844151EA2F1010229
:10025000F1DC30BD064C074D06E0E06840F00103DC
:1002600094E8070098471034AC42F6D3FFF764FFD8
:100270009C270008BC27000800BFFEE770472DE957
:10028000F04102460025002600200023002400271C
:1002900091F803C00CF00F0591F803C00CF0100C9E
:1002A000BCF1000F03D091F802C04CEA050591F8AB
:1002B00000C0BCF1000F31D0146800202BE04FF0DB
:1002C000010C0CFA00F3B1F800C00CEA03069E42E0
:1002D00020D183004FF00F0C0CFA03F7BC4305FA52
:1002E00003FC4CEA040491F803C0BCF1280F06D1CA
:1002F0004FF0010C0CFA00FCC2F814C00AE091F8AF
:1003000003C0BCF1480F05D14FF0010C0CFA00FC02
:10031000C2F810C0401C0828D1D31460B1F800C046
:10032000BCF1FF0F34DD546800202EE000F1080C12
:100330004FF0010808FA0CF3B1F800C00CEA03060C
:100340009E4221D183004FF00F0C0CFA03F7BC43FF
:1003500005FA03FC4CEA040491F803C0BCF1280F31
:1003600005D100F1080C08FA0CF8C2F8148091F8D5
:1003700003C0BCF1480F07D100F1080C4FF0010891
:1003800008FA0CF8C2F81080401C0828CED354603C
:10039000BDE8F0810246002093680B400BB10120BC
:1003A00000E000207047416170470161704700BF65
:1003B000FEE7000008B50121142000F0ABF8012091
:1003C000ADF8000004208DF8030069460748FFF7E8
:1003D00056FF4FF40050ADF8000004208DF80300E4
:1003E00069460348FFF74BFF08BD000000080140C5
:1003F0000010014070B504460D4629462046FFF71F
:10040000C9FF012808D100BF29462046FFF7C2FFD7
:100410000128F9D0012070BD0020FCE708B50121BA
:10042000082000F077F82320ADF8000010208DF8A8
:10043000030003208DF8020069460848FFF71FFFFC
:1004400001210648FFF7B1FF02210448FFF7ADFF85
:1004500020210248FFF7A9FF08BD0000000C014061
:1004600000BFFEE7704708B54FF4407000F048F851
:1004700025208DF8000006208DF8010000208DF861
:10048000020001208DF80300684600F001F808BD65
:1004900070B5002100230F22C47804B3154C2468E2
:1004A00004F4E064C4F5E064210AC1F10403CA4025
:1004B000447804FA03F184781440214309010E4C76
:1004C0000678A155047804F01F050124AC40057896
:1004D0006D11AD0005F1E025C5F8004109E0047893
:1004E00004F01F050124AC40044D0678761145F850
:1004F000264070BD0CED00E000E400E080E100E08B
:1005000002490143024A1160704700000000FA05E9
:100510000CED00E029B1064A92690243044B9A614E
:1005200004E0034A92698243014B9A6170470000DC
:100530000010024030B500210022002400232D4D80
:100540006D6805F00C0121B1042905D0082923D1DB
:1005500005E0294D056022E0274D05601FE0254D8F
:100560006D6805F47012234D6D6805F48034022522
:1005700005EB92421CB9214D554305600BE01D4D22
:100580006D6805F400351DB11C4D5543056002E052
:10059000194D5543056002E0174D056000BF00BFCF
:1005A000144D6D6805F0F0010909154D6B5C056887
:1005B000DD4045600F4D6D6805F4E061090A104D9E
:1005C0006B5C4568DD4085600A4D6D6805F46051DF
:1005D000C90A0B4D6B5C4568DD40C560054D6D6813
:1005E00005F44041890B074D6B5CC568B5FBF3F51D
:1005F000056130BD0010024000127A0000093D0084
:10060000000000201000002010B500F001F810BD1F
:100610000CB50020019000903348006840F4803011
:100620003149086000BF3048006800F40030009095
:100630000198401C0190009818B90198B0F5A06F7E
:10064000F1D12948006800F4003010B10120009079
:1006500001E0002000900098012843D12348006861
:1006600040F01000214908600846006820F00300AF
:1006700008600846006840F0020008601A484068B8
:10068000194948600846406848600846406840F498
:10069000806048600846406820F47C104860084646
:1006A000406840F4E81048600846006840F08070F8
:1006B000086000BF0C48006800F000700028F9D006
:1006C0000948406820F00300074948600846406830
:1006D00040F00200486000BF0348406800F00C0092
:1006E0000828F9D10CBD0000001002400020024093
:1006F000042808D14FF0E021096941F004014FF0CE
:10070000E022116107E04FF0E021096921F00401C6
:100710004FF0E0221161704710B501F0DFFD0128B4
:1007200001D001F00DFB10BD70B505460420FFF7A8
:10073000DFFF104800681049B0FBF1F00F49087066
:100740000C4800680C49B0FBF1F44FF47A70444354
:1007500001200B4908804FF0E020006940F00200C2
:100760004FF0E021086108464461006940F0010053
:10077000086170BD28000020809698003C00002091
:100780003E00002010B51348006840F001001149F8
:10079000086008464068104908400E49486008460D
:1007A00000680E4908400B4908600846006820F4BC
:1007B000802008600846406820F4FE0048604FF43E
:1007C0001F008860FFF720FF4FF0006004490860B9
:1007D00010BD0000001002400000FFF8FFFFF6FE11
:1007E00008ED00E021B1828942F40052828104E0E8
:1007F00082894DF6FF731A408281704700B585B03B
:1008000001210420FFF786FE01218803FFF782FE05
:100810004FF40070ADF8100018208DF8130003207D
:100820008DF8120004A91448FFF729FD4FF48060E9
:10083000ADF8100004208DF8130004A90E48FFF74E
:100840001EFD4FF4E13000900020ADF80400ADF83B
:100850000600ADF80800ADF80C000C20ADF80A0059
:100860006946064800F01AF8FFF7FDFD012103482C
:10087000FFF7B8FF05B000BD000801400038014097
:1008800002460020B1F5007F00D100BF13880B4065
:100890000BB1012000E00020704700002DE9F04777
:1008A00086B005460E460024A24600BFA14600279A
:1008B000B08900B100BF2F462C8A4CF6FF7004406F
:1008C000F08804432C82AC894EF6F3100440B088C3
:1008D00031890843718908430443AC81AC8A4FF6DF
:1008E000FF400440B0890443AC8201A8FFF722FE18
:1008F0001F48874202D1DDF810A001E0DDF80CA00E
:10090000A88900F4004040B10AEBCA0000EB0A10CD
:1009100031684900B0FBF1F807E00AEBCA0000EBD0
:100920000A1031688900B0FBF1F86420B8FBF0F0E0
:1009300004012009642101FB1089A88900F400400A
:1009400040B1322000EBC900B0FBF1F000F007002D
:10095000044308E0322000EB09106421B0FBF1F001
:1009600000F00F0004432C8106B0BDE8F0870000C2
:1009700000380140C1F308028280704700BFFEE7E3
:100980000FB4054B10B503A9044A029800F018F8FB
:1009900010BC5DF814FB0000CD0B0008AC0000207B
:1009A00002E008C8121F08C1002AFAD17047704738
:1009B000002001E001C1121F002AFBD17047000096
:1009C0002DE9FF4F8BB09A460F460546002606E0FC
:1009D00025280BD052460D9990476D1C761C28781F
:1009E0000028F5D10FB03046BDE8F08F0024A046B6
:1009F0000122604900E0044315F8013F203B02FA60
:100A000003F00842F7D128782E2817D115F8010FE6
:100A100044F004042A280ED06FF02F022878A0F1A9
:100A2000300109290AD808EB880102EB410100EBEB
:100A300001086D1CF2E757F8048B6D1C28786928B3
:100A40003ED006DC0028CDD063280BD0642804D12A
:100A500036E0732810D075284BD052460D99904738
:100A6000761C85E017F8040B8DF8000000208DF847
:100A70000100E946012003E057F8049B4FF0FF30E6
:100A800061074FF0000401D40AE0641C44450DDA0C
:100A90008442FADB19F804100029F6D106E0641C40
:100AA0008442FCDB19F804100029F8D1264404E044
:100AB00019F8010B52460D999047641EF8D257E081
:100AC00001CF4FF00A0B002802DA40422D2102E04C
:100AD000210504D52B218DF82410012103E0E10725
:100AE00005D02021F7E70DF1200908910CE0002145
:100AF000F9E701CF4FF00A0BF9E75946FFF794FBEE
:100B000001F1300209F8012D0028F6D1ADEB090002
:100B100000F1200B600701D44FF00108D84502DD39
:100B2000A8EB0B0000E000208046002406E009A8A6
:100B30005246005D0D999047641C761C08988442CB
:100B4000F5DB04E0302052460D999047761CB8F151
:100B50000001A8F10108F5DC05E019F8010B524687
:100B60000D999047761CBBF10001ABF1010BF4DC51
:100B70006D1C34E709280100012416E04FF0FF3115
:100B80000A48006801F07EFA0446012C0DD108A045
:100B9000FFF7F6FE20210C48FFF705FCC82000F007
:100BA0007DFE20210848FFF700FCE7E72400002035
:100BB000B6FED6B5D0C5BAC5C1BFBBF1C8A1B3C9D1
:100BC000B9A60D0A00000000000C014070B50446F3
:100BD0000D46E1B20548FFF7CDFE00BF8021034876
:100BE000FFF74EFE0028F9D0204670BD00380140C6
:100BF0000FE002210748FFF7D8FB4FF4FA7000F02E
:100C00004DFE02210348FFF7CEFB4FF4FA7000F0CF
:100C100045FEEEE7000C01401CB54820FFF784FDBF
:100C20004FF44070FFF76CFCFFF7F8FBFFF7C2FBD7
:100C3000FFF7E4FD0648012100238022CDE90010E2
:100C400004A1074801F01AFB00F028FF00201CBD9A
:100C50001400002073746172745F7461736B000020
:100C6000311500082DE9F04105460E462648076873
:100C700026480068001D00F0D3FC50B923480068E6
:100C800090F82C10012088402149096881432048B0
:100C90000160681CD8B9D6B11E4948681B4909686B
:100CA00088601A4982680968CA6018490968091D7C
:100CB0008268516015490968091D8160154A134908
:100CC00009684A6111460968491C11601AE07C19DB
:100CD0000E4800684460BC4207D20C480168091DF8
:100CE0000D48006800F0C0FC0CE008480168091DD0
:100CF0000A48006800F0B8FC09480068844201D244
:100D000007480460BDE8F081540000204000002046
:100D100058000020800300204800002044000020EC
:100D20007000002010B5044600F0C4FC2F48006895
:100D3000401C2E4908602E48006840B92C480460C9
:100D40000846006801280DD100F096F90AE029480C
:100D5000006838B926480068C06AE16A884201D84C
:100D60002348046024480068401C2349086094F824
:100D70002C10012088402149096808431F49086058
:100D8000E16A01EB81011E4A02EB81014868A06023
:100D90008268E260211D826851608160E16A01EB36
:100DA0008101174A02EB81026261E16A01EB810174
:100DB000134A52F82110491CE26A02EB8202104BDE
:100DC00043F8221000F0BAFC0A48006868B10848ED
:100DD0000068C06AE16A884207D24FF08050094932
:100DE0000860BFF34F8FBFF36F8F10BD500000201E
:100DF000400000205C0000206C0000205800002013
:100E0000B000002004ED00E010B516E000F052FC48
:100E10000C48C068C468201D00F002FC0A48006845
:100E2000401E0949086009480068401E07490860DB
:100E300000F084FC204600F040F8044800680028D8
:100E4000E4D110BD6C030020500000204C000020B5
:100E50002DE9F04104460F4615464FF00008A66BF9
:100E6000206C28B37DB93946226C6068FFF7CAF957
:100E7000216C606808446060D4E90101884217D39E
:100E80002068606014E03946226CE068FFF7BAF928
:100E9000216CE068411AE1602168E068884203D271
:100EA000216CA068411AE160022D01D106B1761EC5
:100EB000701CA0634046BDE8F08110B50446206B6D
:100EC00000F074FC204600F071FC10BD30B54FF40A
:100ED0001043174800F007042CB1C01D20F0070094
:100EE000134C041B1B1B0246124C22600024114DA4
:100EF0006C60D018083820F007000F4C20600024E8
:100F00000D4D2D686C600C4D2D682C601146441AF7
:100F10004C60094C24680C60084D4C682C60084DEE
:100F20004C682C604FF00044064D2C6030BD000032
:100F30009403002080000020880000209000002002
:100F40008C0000209C00002000BFFFF75DFF0648DA
:100F500000680128F9D94FF0805004490860BFF3B8
:100F60004F8FBFF36F8FF0E7B000002004ED00E07B
:100F70002DE9F04106460D4617469846069C0DB9E8
:100F8000246000E02760E66325640121204600F02C
:100F900031FFBDE8F08100002DE9FF5F81460E467C
:100FA0009246DDE90E7B109CAAF10100216B01EB5A
:100FB000800828F0070808F0070008B9012000E0C1
:100FC000002028B94FF4587222A127A0FFF7D8FCBF
:100FD00086B1002507E0715D04F134004155705D74
:100FE00000B902E06D1C102DF5D300BF0021432095
:100FF000015502E0002084F83400202F01D20120A6
:1010000000E0002028B940F2973212A116A0FFF7A5
:10101000B7FC202F00D31F27E762201D00F021FB23
:1010200004F1180000F01DFB2461C7F12000A0614D
:1010300064620020606484F8480049464046039A90
:1010400000F0EEF92060BBF1000F01D0CBF80040BA
:10105000BDE8FF9F2E2E5C4672656552544F535C6F
:101060007461736B732E63004572726F723A2573ED
:101070002C25640D0A00000010B5002407E004EBE5
:1010800084010F4A02EB810000F0DEFA641C202C80
:10109000F5D30C4800F0D8FA0B4800F0D5FA0B480D
:1010A00000F0D2FA0A4800F0CFFA0A4800F0CCFA71
:1010B00004480949086004480849086010BD000058
:1010C000B00000203003002044030020580300201B
:1010D0006C03002080030020440000204800002012
:1010E00010B50146164800E0006803688B42FBD348
:1010F0000246436813448B4204D143684C6823443E
:10110000436001460A464B6813440468A34211D168
:101110000C4C03682468A34208D04B6804686468D8
:1011200023444B6003681B680B6005E0054B1B689C
:101130000B6001E003680B60884200D0016010BDC5
:10114000800000208800002070B5054600F0B2FA4B
:10115000A86B08B9012400E0002400F0EFFA204653
:1011600070BD70B5054600F0A5FAA86BE96B884222
:1011700001D1012400E0002400F0E0FA204670BD17
:1011800009480068006808B9012000E0002020B18B
:101190004FF0FF300549086005E003480068C0686B
:1011A0000068024908607047440000207000002079
:1011B0000B480068401C08B9012000E0002020B95D
:1011C000CE2208A112A0FFF7DBFB00BF502080F366
:1011D0001188BFF34F8FBFF36F8F00BF00BFFEE7D3
:1011E000A00000202E2E5C4672656552544F535C61
:1011F000706F727461626C655C525644535C41520C
:101200004D5F434D335C706F72742E6300000000BD
:101210004572726F723A25732C25640D0A00000026
:1012200070B5044600F046FA94F9455010E0606A43
:1012300008B9012000E0002038B904F1240001F0D1
:1012400047F918B100F0FAFB00E003E0681E45B270
:10125000002DECDC00BFFF2084F8450000F06EFAA2
:1012600000F028FA94F9445010E0206908B90120F0
:1012700000E0002048B904F1100001F029F908B19C
:1012800000F0DCFB681E45B200E001E0002DECDC64
:1012900000BFFF2084F8440000F050FA70BD000049
:1012A0002DE9F04104464FF0000800F04DFC48489D
:1012B000006808B9FFF70AFE464800682040002889
:1012C00073D114B304F10800A0421ED9083404F00D
:1012D0000700D8B104F00700C0F108002044A04284
:1012E00011D904F00700C0F10800044404F007001D
:1012F00008B9012000E0002040B99C2236A140A09E
:10130000FFF73EFB02E0002400E00024002C4CD05C
:101310003F480068844248D83E4E3046056801E0A8
:101320002E462D686868A04202D228680028F7D1AE
:1013300027480068854238D0306800F108082868DE
:1013400030606868001B102813D92F1907F00700B8
:1013500008B9012000E0002020B9CF221EA128A05A
:10136000FFF70EFB6868001B78606C603846FFF77B
:10137000B7FE274968680968081A254908600846C1
:10138000006825490968884203D22148006822493B
:101390000860104968680968084368600020286090
:1013A0001E480068401C1D49086001F02FF908F034
:1013B000070008B9012000E0002028B94FF4887226
:1013C00005A10FA0FFF7DCFA4046BDE8F081000060
:1013D000880000209C0000202E2E5C46726565521D
:1013E000544F535C706F727461626C655C4D656DD7
:1013F0004D616E675C686561705F342E630000004C
:101400004572726F723A25732C25640D0A00000034
:101410008C0000208000002090000020940000201C
:10142000001F4FF080730360001F21F00103036071
:10143000001F034B0360143802602038704700001F
:10144000B1110008012433E001211A48FEF7D2FF50
:10145000012811D100231A4619461748006800F0E8
:101460003FFD0446012C03D114A0FFF789FA03E0E5
:1014700014B919A0FFF784FA4FF400511D48FEF784
:10148000B9FF012811D100231A4619460A480068FD
:1014900000F026FD0446012C03D117A0FFF770FAD7
:1014A00003E014B91BA0FFF76BFA142000F0F6F963
:1014B000CAE700000008014024000020D0C5BAC5DA
:1014C000C1BFCDA8B9FD4B31CACDB7C5B3C9B9A607
:1014D000A3A10D0A00000000D0C5BAC5C1BFCDA8A8
:1014E000B9FD4B31CACDB7C5CAA7B0DCA3A10D0A5F
:1014F0000000000000100140D0C5BAC5C1BFCDA892
:10150000B9FD4B32CACDB7C5B3C9B9A6A3A10D0A5F
:1015100000000000D0C5BAC5C1BFCDA8B9FD4B328F
:10152000CACDB7C5CAA7B0DCA3A10D0A0000000050
:101530001CB5044600F0BEF803220021012000F093
:1015400019FC164908601648012100233222CDE912
:10155000001014A1164800F091FE16480421002343
:101560003222CDE9001014A1164800F087FE16487B
:10157000032100233222CDE9001014A1164800F007
:101580007DFE16A0FFF7FCF91CA0FFF7F9F9234830
:10159000006800F0BDF900F0D1F81CBD2400002067
:1015A000180000206C6564315F7461736B0000008B
:1015B000F10B00081C0000206B6579315F746173CA
:1015C0006B00000045140008200000206163637078
:1015D00065745F7461736B00790B0008B0B4CFC29F
:1015E0004B45593120BBF2204B45593220CACDB76B
:1015F000C5D0C5BAC5C1BF210D0A0000D0C5BAC546
:10160000C1BFB1BBBBF1C8A1D6AEBAF3BAECC9AB8E
:10161000B5C6C1C1302E32730D0A0000140000207F
:1016200001460A69D1E901309860D1E901035860A7
:101630005068884201D188685060002008611068B5
:10164000401E10601068704700F1080141604FF0C3
:10165000FF31816000F10801C1600161002101607A
:10166000704700210161704710B502460B685C1C91
:101670000CB9106907E002F1080000E04068446816
:1016800024689C42FAD944684C604C68A160886028
:1016900041600A611468641C146010BD42684A60AD
:1016A00093688B60936859609160086103685B1C64
:1016B0000360704710B500BF502080F31188BFF35E
:1016C0004F8FBFF36F8F00BF0B480068401C0A4963
:1016D00008600846006801280DD108480068C0B2BB
:1016E00008B9012000E0002028B940F2731204A1DB
:1016F0000EA0FFF745F910BDA000002004ED00E0AA
:101700002E2E5C4672656552544F535C706F727436
:1017100061626C655C525644535C41524D5F434D6F
:10172000335C706F72742E63000000004572726F3C
:10173000723A25732C25640D0A00000010B50B4881
:10174000006828B94FF4BD7209A114A0FFF718F979
:1017500006480068401E054908600846006820B930
:10176000002080F3118800BF00BF10BDA000002042
:101770002E2E5C4672656552544F535C706F7274C6
:1017800061626C655C525644535C41524D5F434DFF
:10179000335C706F72742E63000000004572726FCC
:1017A000723A25732C25640D0A00000070B50646B8
:1017B0003546002E3AD0083D2C461D496068096820
:1017C000084008B1012000E0002028B94FF49272CF
:1017D00018A122A0FFF7D4F8206808B9012000E082
:1017E000002028B940F2251212A11CA0FFF7C8F86A
:1017F0000F49606809680840C0B12068B0B90C4959
:10180000606809688843606000F09EF91749606865
:1018100009680844154908602046FFF761FC144830
:101820000068401C1249086000F0F0FE70BD000026
:101830009C0000202E2E5C4672656552544F535C0E
:10184000706F727461626C655C4D656D4D616E6741
:101850005C686561705F342E630000004572726FD2
:10186000723A25732C25640D0A0000008C000020BC
:101870009800002000204FF0E021086188610648B0
:1018800000684FF47A71B0FBF1F0401E4FF0E02198
:1018900048610720086170472800002070B50446A1
:1018A0000025ACB10F48006808B9012000E0002015
:1018B00028B940F249520CA110A0FFF761F800F0DE
:1018C00043F900212046FFF7CDF900F09FFE0546C1
:1018D0003DB94FF080500D490860BFF34F8FBFF303
:1018E0006F8F70BD7C0000202E2E5C4672656552A5
:1018F000544F535C7461736B732E63004572726F47
:10190000723A25732C25640D0A00000004ED00E0F6
:1019100070B50546FFF7CEFE15B92F48006800E008
:1019200028460446201DFFF77BFE78B9E06A00EBED
:1019300080002A4951F8200040B994F82C10012069
:10194000884027490968814325480160A06A18B189
:1019500004F11800FFF764FE22480068401C21498A
:1019600008601D480068844209D1211D1E48FFF708
:1019700095FE1E480068401C1C49086006E01C4893
:101980000068401E1A490860FFF7FAFBFFF7D6FE11
:1019900011480068844202D02046FFF78EFA1548AD
:1019A0000068C0B10C480068844214D11248006835
:1019B00008B9012000E0002028B940F2DC420FA164
:1019C00013A0FEF7DDFF4FF0805015490860BFF30C
:1019D0004F8FBFF36F8F70BD40000020B00000201C
:1019E000580000206C0000206C0300204C000020F8
:1019F000500000205C0000207C0000202E2E5C4661
:101A000072656552544F535C7461736B732E63003F
:101A10004572726F723A25732C25640D0A0000001E
:101A200004ED00E003490968016003490968416069
:101A30007047000068000020540000200120014988
:101A4000086070476400002070B504460D462CB94C
:101A500040F61C4207A10CA0FEF792FF0E48016859
:101A600018312046FFF700FE01212846FFF7FAF85B
:101A700070BD00002E2E5C4672656552544F535C5B
:101A80007461736B732E63004572726F723A2573C3
:101A90002C25640D0A000000400000201CB51948E8
:101AA00000210B468022CDE9001017A1184800F054
:101AB000E5FB0446012C15D100BF502080F31188AE
:101AC000BFF34F8FBFF36F8F00BF4FF0FF3011494F
:101AD000086001201049086000201049086000F0EB
:101AE0008FF80BE0601C08B1012000E0002028B94D
:101AF0004FF404620AA10FA0FEF742FF11480068EC
:101B00001CBD00007400002049444C45000000004A
:101B1000490F0008700000205C00002054000020E5
:101B20002E2E5C4672656552544F535C7461736B24
:101B3000732E63004572726F723A25732C25640D03
:101B40000A0000007800002002480068401C01499B
:101B5000086070477C00002010B51B48006818B171
:101B600001201A4908602DE0002018490860184833
:101B70000068B0FA80F0C0F11F0404EB840015493E
:101B800051F8200008B1012000E0002028B940F6FB
:101B9000024211A115A0FEF7F3FE04EB84010D4AE9
:101BA00002EB810041684968416000F10801426828
:101BB0008A4202D14168496841604168C9680F4A58
:101BC000116000BF10BD00007C00002064000020F8
:101BD00058000020B00000202E2E5C467265655231
:101BE000544F535C7461736B732E63004572726F54
:101BF000723A25732C25640D0A0000004000002075
:101C00001CB53B4C204600780190FF20214608700F
:101C10000846007800909DF8000000F0F0009DF864
:101C20000010884201D1012000E0002028B940F2D4
:101C30001F1230A13AA0FEF7A3FE9DF8000000F0AD
:101C400050003B49087007203A49086009E03948CC
:101C50000068401E374908609DF800004006000EED
:101C600000909DF8000000F080008028EFD03148FF
:101C70000068C0F10700042801D1012000E0002025
:101C800028B940F233121BA125A0FEF779FE29489E
:101C90000068C0F10700042801D1012000E0002005
:101CA00028B94FF49E7213A11DA0FEF769FE2148CA
:101CB000006800021F4908600846008800F4E060E0
:101CC00008600B49019808701B48006840F47000D8
:101CD000194908600846006840F070400860FFF746
:101CE000C9FD002015490860FEF740FA00201CBD20
:101CF00000E400E02E2E5C4672656552544F535C42
:101D0000706F727461626C655C525644535C4152F0
:101D10004D5F434D335C706F72742E6300000000A2
:101D20004572726F723A25732C25640D0A0000000B
:101D3000A4000020A800002020ED00E0A00000206A
:101D400010B500BF502080F31188BFF34F8FBFF351
:101D50006F8F00BF00F0D2FA18B14FF080500449E5
:101D6000086000BF002080F3118800BF10BD000094
:101D700004ED00E02DE9F84305460E461746002421
:101D8000E5B1601EB0FBF5F0B04217D305FB06F0DD
:101D900010F1490F12D805FB06F909F14800FFF7C9
:101DA0007FFA04468CB1A04608F148083B464246FB
:101DB000314628460094FFF7DBF806E02CB94FF4D3
:101DC000E37203A107A0FEF7DBFD2046BDE8F88320
:101DD0002E2E5C4672656552544F535C7175657565
:101DE000652E63004572726F723A25732C25640D5F
:101DF0000A0000002DE9F04105460E4601272C4659
:101E00002CB94FF488722CA130A0FEF7B9FD002C3C
:101E100042D0E06B00283FD04FF0FF31E06BB1FBC8
:101E2000F0F0216C884237D3FFF744FCD4E90F125D
:101E3000206801FB0200A0600020A06320686060B1
:101E4000E06B401E226C216800FB0211E160FF2064
:101E500084F8440084F845009EB9206908B901203F
:101E600000E00020A8B904F1100000F031FB80B1BF
:101E70004FF0805019490860BFF34F8FBFF36F8F49
:101E800007E004F11000FFF7DFFB04F12400FFF787
:101E9000DBFBFFF753FC00E000270FB1012000E05F
:101EA000002028B940F2451203A108A0FEF768FD02
:101EB0003846BDE8F08100002E2E5C467265655202
:101EC000544F535C71756575652E63004572726F72
:101ED000723A25732C25640D0A00000004ED00E021
:101EE0002DE9FF4383B0064688461D464FF00009A2
:101EF00034462CB940F22E3258A15DA0FEF740FDC9
:101F0000B8F1000F01D1206C08B9012000E00020D9
:101F100028B940F22F3251A155A0FEF731FD022D14
:101F200002D1E06B012801D1012000E0002028B996
:101F30004FF44C7249A14EA0FEF722FD00F0CEF9FD
:101F400008B9059808B9012000E0002028B940F23E
:101F5000333242A146A0FEF713FD00BFFFF7AAFBF4
:101F6000A06BE16B884201D3022D28D12A4641465D
:101F70002046FEF76DFF0746606A08B9012000E0C1
:101F8000002068B904F1240000F0A2FA88B14FF0F3
:101F900080503B490860BFF34F8FBFF36F8F08E05D
:101FA0003FB14FF0805036490860BFF34F8FBFF309
:101FB0006F8FFFF7C3FB012007B0BDE8F0830598E2
:101FC00018B9FFF7BBFB0020F6E7B9F1000F04D109
:101FD00001A8FFF727FD4FF00109FFF7AFFBFFF75F
:101FE000B3FDFFF767FB94F94400401C10B90020D3
:101FF00084F8440094F94500401C10B9002084F88E
:102000004500FFF79BFB05A901A800F0E7F8F0B930
:102010002046FFF7A6F8A0B104F110000599FFF7DC
:1020200013FD2046FFF7FCF800F0F0FA002895D1E8
:102030004FF0805012490860BFF34F8FBFF36F8F8E
:102040008CE72046FFF7ECF800F0E0FA86E7204640
:10205000FFF7E6F800F0DAFA0020ADE72E2E5C4636
:1020600072656552544F535C71756575652E6300DA
:102070004572726F723A25732C25640D0A000000B8
:1020800004ED00E0F3B583B0054600272C462CB9DB
:1020900040F2E35247A14CA0FEF772FC206C08B955
:1020A000012000E0002028B940F2E75241A146A0FB
:1020B000FEF766FC00F012F908B9049808B901208F
:1020C00000E0002028B940F2EC523AA13EA0FEF711
:1020D00057FC00BFFFF7EEFAA66BCEB1701EA063EF
:1020E000206908B9012000E0002060B904F1100067
:1020F00000F0EEF938B14FF0805037490860BFF377
:102100004F8FBFF36F8FFFF719FB012005B0F0BDB4
:10211000049818B9FFF712FB0020F7E71FB901A8D0
:10212000FFF780FC0127FFF709FBFFF70DFDFFF725
:10213000C1FA94F94400401C10B9002084F844000E
:1021400094F94500401C10B9002084F84500FFF7C1
:10215000F5FA04A901A800F041F8F0B92046FEF70D
:10216000F3FFA0B104F124000499FFF76DFC2046B1
:10217000FFF756F800F04AFA0028ABD14FF0805034
:1021800015490860BFF34F8FBFF36F8FA2E720465A
:10219000FFF746F800F03AFA9CE72046FFF740F8D0
:1021A00000F034FA2046FEF7CFFF002892D000203E
:1021B000ACE700002E2E5C4672656552544F535CAE
:1021C00071756575652E63004572726F723A25737D
:1021D0002C25640D0A00000004ED00E070B50546F2
:1021E0000C462DB940F6FD4219A11EA0FEF7C8FB12
:1021F0002CB940F6FE4216A11AA0FEF7C1FBFFF76C
:1022000059FA1C48036868681A1A2068401C08B903
:10221000002619E0184928680968884206D06868CD
:10222000984203D80126002020600DE020689042EB
:1022300007D92068801A20602846FFF7F3FB0026A4
:1022400002E0002020600126FFF778FA304670BDDA
:102250002E2E5C4672656552544F535C7461736BED
:10226000732E63004572726F723A25732C25640DCC
:102270000A00000054000020680000202DE9FF4FF4
:1022800085B0804689461746DDE912ABB800FFF7F6
:1022900007F8064656B14C20FFF702F804460CB189
:1022A000266304E03046FFF781FA00E000247CB1A9
:1022B0000020CDE900ABCDE902403A464946404610
:1022C000089BFEF769FE2046FEF72CFD012501E084
:1022D0004FF0FF35284609B0BDE8F08F0549096881
:1022E00009B9012005E00449096809B9022000E0A4
:1022F000002070475C0000207C0000202DE9F041A8
:102300004FF000085E48006800287DD15D480068F5
:10231000451C5C480560EDB95B480068006808B979
:10232000012000E0002028B940F6C72257A15CA098
:10233000FEF726FB544807685D480068524908606C
:102340005B4807605B480068401C5A490860FEF71C
:1023500017FF00BF58480068854277D300BF4A483E
:102360000068006808B9012000E0002020B14FF0AB
:10237000FF305149086068E043480068C068C4689D
:102380006668B54202D24C4806605EE06069D4E9F6
:1023900002128A60D4E902214A60211D42688A4201
:1023A00001D1E1684160002262610168491E01605B
:1023B000A06A98B1A06AD4E907128A60D4E907211B
:1023C0004A6004F1180142688A4201D1216A4160E1
:1023D0000022A2620168491E016000BF94F82C101F
:1023E0000120884035490968084334490860E16A9A
:1023F00001EB8101324A02EB81014868A0608268EA
:10240000E260211D826800E032E051608160E16A93
:1024100001EB81012A4A02EB81026261E16A01EB70
:102420008101274A52F82110491CE26A02EB82021C
:10243000234B43F822102349E06A0968C96A88429D
:102440008DD34FF001088AE700E000BF1D48006807
:10245000C06A00EB80001A4951F82000012801D918
:102460004FF001081848006808B14FF0010804E077
:1024700016480068401C154908604046BDE8F081D8
:102480007C00002054000020440000202E2E5C46DA
:1024900072656552544F535C7461736B732E6300A5
:1024A0004572726F723A25732C25640D0A00000084
:1024B0004800002068000020700000205800002024
:1024C000B0000020400000206400002060000020D8
:1024D00070B50646F068C4682CB940F682423CA14B
:1024E00040A0FEF74DFAA06AD4E907128A60D4E949
:1024F00007214A6004F1180142688A4201D1216A29
:1025000041600022A2620168491E016039480068EA
:1025100000283DD16069D4E902128A60D4E9022121
:102520004A60211D42688A4201D1E168416000226F
:1025300062610168491E016094F82C1001208840F6
:102540002D49096808432C490860E16A01EB8101C3
:102550002A4A02EB81014868A0608268E260211D7E
:10256000826851608160E16A01EB8101234A02EBDC
:1025700081026261E16A01EB8101204A52F8211077
:10258000491CE26A02EB82021C4B43F8221010E065
:102590001B494868E0618268226204F11801826880
:1025A00051608160164AA26211460968491C116097
:1025B00000BF1449E06A0968C96A884204D9012544
:1025C00001201149086000E00025284670BD000088
:1025D0002E2E5C4672656552544F535C7461736B6A
:1025E000732E63004572726F723A25732C25640D49
:1025F0000A0000007C00002058000020B0000020ED
:1026000058030020400000206400002070B5002422
:1026100000265048006828B940F6B3024EA153A0E6
:10262000FEF7AEF9FFF746F84A480068401E4949F0
:1026300008600846006800287ED1504800680028DD
:102640007AD05BE04E48C068C468A06AD4E907123B
:102650008A60D4E907214A6004F1180142688A427D
:1026600001D1216A41600022A2620168491E016015
:102670006069D4E902128A60D4E902214A60211D0E
:1026800042688A4201D1E1684160002262610168CA
:10269000491E016094F82C100120884039490968CE
:1026A000084338490860E16A01EB8101364A02EBD0
:1026B00081014868A0608268E260211D82685160E3
:1026C0008160E16A01EB81012F4A02EB81026261C4
:1026D000E16A01EB81012C4A52F82110491CE26A9F
:1026E00002EB8202284B43F822102849E06A09686D
:1026F000C96A884202D30120254908602048006841
:1027000008B9012000E0002000289BD00CB1FEF7A2
:1027100037FD2048056865B100BFFFF7EFFD10B138
:1027200001201B4908606D1E002DF6D100201949BB
:1027300008601748006800E008E038B1012630075B
:1027400015490860BFF34F8FBFF36F8FFEF7F6FF99
:10275000304670BD7C0000202E2E5C4672656552AE
:10276000544F535C7461736B732E63004572726FC8
:10277000723A25732C25640D0A00000050000020D9
:102780005803002058000020B00000204000002026
:10279000640000206000002004ED00E0BC27000879
:1027A00000000020B0000000A00900086C2800080C
:1027B000B0000020E8960000B0090008000000000A
:1027C00001020304010203040607080902040608C3
:1027D00000000000000000000000000000000000F9
:1027E0000000000000A24A040000000000000000F9
:1027F00001020304060708090000000000000000B1
:1028000000000000000000000000000000000000C8
:1028100000000000000000000000000000000000B8
:1028200000000000000000000000000000000000A8
:10283000000000001F000000000000000000000079
:102840000000000000000000000000000000000088
:10285000000000000000000000000000AAAAAAAAD0
:0C2860000000000000000000000000006C
:04000005080001E10D
:00000001FF
