:020000040800F2
:1000000000040020490100085101000853010008C4
:1000100055010008570100085901000800000000C0
:100020000000000000000000000000005B0100086C
:100030005D010008000000005F0100086101000888
:100040006301000863010008630100086301000800
:1000500063010008630100086301000863010008F0
:1000600063010008630100086301000863010008E0
:1000700063010008630100086301000863010008D0
:1000800063010008630100086301000863010008C0
:1000900063010008630100086301000863010008B0
:1000A00063010008630100086301000863010008A0
:1000B0006301000863010008630100086301000890
:1000C0006301000863010008630100086301000880
:1000D0006301000863010008630100086301000870
:1000E0006301000863010008630100086301000860
:1000F0006301000863010008630100086301000850
:10010000630100086301000863010008630100083F
:10011000630100086301000863010008630100082F
:10012000630100086301000863010008630100081F
:10013000DFF810D000F01AF800480047B1010008BD
:10014000AFF30080000400200648804706480047BF
:10015000FEE7FEE7FEE7FEE7FEE7FEE7FEE7FEE777
:10016000FEE7FEE79101000831010008064C074D4B
:1001700006E0E06840F0010394E807009847103477
:10018000AC42F6D3FFF7D8FFB4010008C401000861
:10019000704702E008C8121F08C1002AFAD1704750
:1001A0007047002001E001C1121F002AFBD17047F7
:1001B00000207047C4010008000000200004000077
:0401C000A201000890
:0400000508000131BD
:00000001FF
