:020000040800F2
:1000000028990020E101000849040008BD03000808
:100010004504000899020008090B000800000000D0
:10002000000000000000000000000000490100087E
:100030009D020008000000008D0100081D07000857
:10004000FB010008FB010008FB010008FB010008A0
:10005000FB010008FB010008FB010008FB01000890
:10006000FB010008FB010008FB010008FB01000880
:10007000FB010008FB010008FB010008FB01000870
:10008000FB010008FB010008FB010008FB01000860
:10009000FB010008FB010008FB010008FB01000850
:1000A000FB010008FB010008FB010008FB01000840
:1000B000FB010008FB010008FB010008FB01000830
:1000C000FB010008FB010008FB010008FB01000820
:1000D000FB010008FB010008FB010008FB01000810
:1000E000FB010008FB010008FB010008FB01000800
:1000F000FB010008FB010008FB010008FB010008F0
:10010000FB010008FB010008FB010008FB010008DF
:10011000FB010008FB010008E9070008FB010008DB
:10012000FB010008FB010008FB010008FB010008BF
:10013000DFF810D000F09EF8004800476D0F00086F
:10014000AFF3008028990020224B19680868B0E8B6
:10015000F00F80F30988BFF36F8F4FF0000080F33A
:1001600011884EF00D0E7047000000000648006830
:10017000006880F3088862B661B6BFF34F8FBFF3A3
:100180006F8F00DF00BF00BF08ED00E0EFF30980D4
:10019000BFF36F8F0F4B1A6820E9F00F106008B59E
:1001A0004FF0500080F31188BFF34F8FBFF36F8F74
:1001B00001F0BCFE4FF0000080F31188BDE808405C
:1001C00019680868B0E8F00F80F30988BFF36F8FF3
:1001D000704700BF3C000020EFF30580704700002F
:1001E0000648804706480047FEE7FEE7FEE7FEE7D1
:1001F000FEE7FEE7FEE7FEE7FEE7FEE78907000809
:1002000031010008D2B201E000F8012B491EFBD2F7
:1002100070470022F6E710B513460A460446194611
:10022000FFF7F0FF204610BD421C10F8011B00290B
:10023000FBD1801A7047034611F8012B00F8012BFF
:10024000002AF9D11846704730B50B460146002008
:100250002022012409E021FA02F59D4205D303FA88
:1002600002F5491B04FA02F52844151EA2F1010209
:10027000F1DC30BD064C074D06E0E06840F00103BC
:1002800094E8070098471034AC42F6D3FFF754FFC8
:100290006C2500088C25000800BFFEE770472DE99B
:1002A000F0410246002500260020002300240027FC
:1002B00091F803C00CF00F0591F803C00CF0100C7E
:1002C000BCF1000F03D091F802C04CEA050591F88B
:1002D00000C0BCF1000F31D0146800202BE04FF0BB
:1002E000010C0CFA00F3B1F800C00CEA03069E42C0
:1002F00020D183004FF00F0C0CFA03F7BC4305FA32
:1003000003FC4CEA040491F803C0BCF1280F06D1A9
:100310004FF0010C0CFA00FCC2F814C00AE091F88E
:1003200003C0BCF1480F05D14FF0010C0CFA00FCE2
:10033000C2F810C0401C0828D1D31460B1F800C026
:10034000BCF1FF0F34DD546800202EE000F1080CF2
:100350004FF0010808FA0CF3B1F800C00CEA0306EC
:100360009E4221D183004FF00F0C0CFA03F7BC43DF
:1003700005FA03FC4CEA040491F803C0BCF1280F11
:1003800005D100F1080C08FA0CF8C2F8148091F8B5
:1003900003C0BCF1480F07D100F1080C4FF0010871
:1003A00008FA0CF8C2F81080401C0828CED354601C
:1003B000BDE8F081416170470161704700BFFEE711
:1003C00008B50121142000F0A7F80120ADF80000C5
:1003D00004208DF8030069460748FFF760FF4FF4DB
:1003E0000050ADF8000004208DF803006946034872
:1003F000FFF755FF08BD0000000801400010014054
:1004000008B50121082000F087F82320ADF800008E
:1004100010208DF8030003208DF80200694608487B
:10042000FFF73DFF01210648FFF7C6FF0221044800
:10043000FFF7C2FF20210248FFF7BEFF08BD000002
:10044000000C014000BFFEE7704708B54FF4407054
:1004500000F048F825208DF8000006208DF80100F6
:1004600000208DF8020001208DF80300684600F09E
:1004700001F808BD70B5002100230F22C47804B331
:10048000154C246804F4E064C4F5E064210AC1F169
:100490000403CA40447804FA03F1847814402143E9
:1004A00009010E4C0678A155047804F01F050124BB
:1004B000AC4005786D11AD0005F1E025C5F80041AF
:1004C00009E0047804F01F050124AC40044D0678CF
:1004D000761145F8264070BD0CED00E000E400E028
:1004E00080E100E002490143024A116070470000C8
:1004F0000000FA050CED00E029B1064AD26902437A
:10050000044BDA6104E0034AD2698243014BDA61A9
:10051000704700000010024029B1064A9269024368
:10052000044B9A6104E0034A92698243014B9A6149
:10053000704700000010024030B500210022002466
:1005400000232D4D6D6805F00C0121B1042905D063
:10055000082923D105E0294D056022E0274D0560DB
:100560001FE0254D6D6805F47012234D6D6805F48C
:100570008034022505EB92421CB9214D554305609C
:100580000BE01D4D6D6805F400351DB11C4D554344
:10059000056002E0194D5543056002E0174D056006
:1005A00000BF00BF144D6D6805F0F0010909154D3D
:1005B0006B5C0568DD4045600F4D6D6805F4E061DA
:1005C000090A104D6B5C4568DD4085600A4D6D6819
:1005D00005F46051C90A0B4D6B5C4568DD40C56090
:1005E000054D6D6805F44041890B074D6B5CC5688E
:1005F000B5FBF3F5056130BD0010024000127A0032
:1006000000093D00000000201000002010B500F09F
:1006100001F810BD0CB5002001900090334800682F
:1006200040F480303149086000BF3048006800F471
:10063000003000900198401C0190009818B9019872
:10064000B0F5A06FF1D12948006800F4003010B176
:100650000120009001E0002000900098012843D183
:100660002348006840F010002149086008460068EF
:1006700020F0030008600846006840F002000860AF
:100680001A4840681949486008464068486008466A
:10069000406840F4806048600846406820F47C1060
:1006A00048600846406840F4E81048600846006822
:1006B00040F08070086000BF0C48006800F00070D7
:1006C0000028F9D00948406820F003000749486035
:1006D0000846406840F00200486000BF0348406898
:1006E00000F00C000828F9D10CBD000000100240F9
:1006F00000200240042808D14FF0E021096941F0B0
:1007000004014FF0E022116107E04FF0E021096998
:1007100021F004014FF0E0221161704710B501F0A3
:1007200063FD012801D001F015FD10BD70B505462F
:100730000420FFF7DFFF104800681049B0FBF1F01C
:100740000F4908700C4800680C49B0FBF1F44FF4F5
:100750007A70444301200B4908804FF0E020006983
:1007600040F002004FF0E021086108464461006952
:1007700040F00100086170BD2000002080969800C4
:10078000340000203600002010B51348006840F007
:1007900001001149086008464068104908400E49A8
:1007A0004860084600680E4908400B490860084642
:1007B000006820F4802008600846406820F4FE00AD
:1007C00048604FF41F008860FFF720FF4FF0006083
:1007D0000449086010BD0000001002400000FFF84E
:1007E000FFFFF6FE08ED00E010B50121064800F01D
:1007F00052F820B105480068401C044908600121F6
:10080000014800F039F810BD001000403800002009
:100810007FB505460C4601211020FFF76DFE3620FE
:100820008DF80C0005208DF80D0000208DF80E00CD
:1008300001208DF80F0003A8FFF71CFE681E80B290
:10084000ADF80400601E80B2ADF800000020ADF8E5
:100850000600ADF802006946064800F037F80121AD
:10086000044800F00CF801221146024800F024F878
:100870007FBD000000100040CA430282704721B1D2
:10088000028842F00102028004E002884FF6FE7303
:100890001A400280704730B5024600200023002431
:1008A000158A05EA0103958905EA010413B10CB123
:1008B000012000E0002030BD1AB183890B43838101
:1008C00002E083898B438381704700000022028805
:1008D0001D4B98420ED01D4B98420BD0B0F1804F6B
:1008E00008D01B4B984205D01A4B984202D01A4BA5
:1008F000984204D14FF68F731A404B881A43174B16
:10090000984207D0164B984204D04FF6FF431A4046
:10091000CB881A4302808B8883850B8803850A4B1A
:1009200098420BD0094B984208D00E4B984205D004
:100930000D4B984202D00D4B984201D10B7A0386A1
:100940000123838270470000002C014000340140E5
:100950000004004000080040000C0040001000406F
:1009600000140040004001400044014000480140A4
:1009700021B1828942F40052828104E082894DF6DD
:10098000FF731A408281704700B585B001210420B1
:10099000FFF7C2FD01218803FFF7BEFD4FF4007091
:1009A000ADF8100018208DF8130003208DF8120008
:1009B00004A91448FFF773FC4FF48060ADF81000F1
:1009C00004208DF8130004A90E48FFF768FC4FF4CB
:1009D000E13000900020ADF80400ADF80600ADF85D
:1009E0000800ADF80C000C20ADF80A006946064876
:1009F00000F01AF8FFF729FD01210348FFF7B8FFBF
:100A000005B000BD0008014000380140024600204A
:100A1000B1F5007F00D100BF13880B400BB101205E
:100A200000E00020704700002DE9F04786B0054641
:100A30000E460024A24600BFA1460027B08900B19F
:100A400000BF2F462C8A4CF6FF700440F088044308
:100A50002C82AC894EF6F3100440B08831890843EB
:100A6000718908430443AC81AC8A4FF6FF400440CF
:100A7000B0890443AC8201A8FFF75EFD1F4887429E
:100A800002D1DDF810A001E0DDF80CA0A88900F487
:100A9000004040B10AEBCA0000EB0A10316849007F
:100AA000B0FBF1F807E00AEBCA0000EB0A1031686E
:100AB0008900B0FBF1F86420B8FBF0F004012009D4
:100AC000642101FB1089A88900F4004040B1322064
:100AD00000EBC900B0FBF1F000F00700044308E0B0
:100AE000322000EB09106421B0FBF1F000F00F00A0
:100AF00004432C8106B0BDE8F087000000380140B7
:100B0000C1F308028280704700BFFEE70FB4054BB7
:100B100010B503A9044A029800F02CF810BC5DF847
:100B200014FB0000210F0008B00000200FB4084B98
:100B300010B504A902AA039800F01CF8044602A903
:100B4000002000F0F3F8204610BC5DF814FB000014
:100B50002D0D000802E008C8121F08C1002AFAD1B2
:100B600070477047002001E001C1121F002AFBD12D
:100B7000704700002DE9FF4F8BB09A460F4605469F
:100B8000002606E025280BD052460D9990476D1C93
:100B9000761C28780028F5D10FB03046BDE8F08FDC
:100BA0000024A0460122604900E0044315F8013FFB
:100BB000203B02FA03F00842F7D128782E2817D1FB
:100BC00015F8010F44F004042A280ED06FF02F020C
:100BD0002878A0F1300109290AD808EB880102EB36
:100BE000410100EB01086D1CF2E757F8048B6D1C06
:100BF000287869283ED006DC0028CDD063280BD0A9
:100C0000642804D136E0732810D075284BD05246A2
:100C10000D999047761C85E017F8040B8DF80000BD
:100C200000208DF80100E946012003E057F8049BFD
:100C30004FF0FF3061074FF0000401D40AE0641C5C
:100C400044450DDA8442FADB19F804100029F6D184
:100C500006E0641C8442FCDB19F804100029F8D17A
:100C6000264404E019F8010B52460D999047641E82
:100C7000F8D257E001CF4FF00A0B002802DA4042C9
:100C80002D2102E0210504D52B218DF8241001210E
:100C900003E0E10705D02021F7E70DF120090891D5
:100CA0000CE00021F9E701CF4FF00A0BF9E75946B4
:100CB000FFF7CAFA01F1300209F8012D0028F6D138
:100CC000ADEB090000F1200B600701D44FF00108E3
:100CD000D84502DDA8EB0B0000E000208046002490
:100CE00006E009A85246005D0D999047641C761CE9
:100CF00008988442F5DB04E0302052460D99904775
:100D0000761CB8F10001A8F10108F5DC05E019F83E
:100D1000010B52460D999047761CBBF10001ABF1D7
:100D2000010BF4DC6D1C34E7092801000A68531C30
:100D30000B601070704700002AE04FF4C87115482E
:100D4000FFF767FA134801F021F813A0FFF7DEFE62
:100D50001DA0FFF7DBFE0F4928A0FFF7D7FE0EA06E
:100D6000FFF7D4FE4FF4C8710A48FFF752FA09485A
:100D700000F0AAFF22A0FFF7C9FE06491FA0FFF757
:100D8000C5FE2CA0FFF7C2FE4FF47A7000F096FE6D
:100D9000D3E70000B40000202D2D2D2D2D2D2D2D5D
:100DA0002D2D2D2D2D2D2D2D2D2D2D2D2D2D2D2D73
:100DB0002D2D2D2D2D2D2D2D2D2D2D2D2D2D2D2D63
:100DC0002D2D2D2D0D0A0000C8CECEF1C3FB202005
:100DD000202020C8CECEF1D7B4CCAC20D3C5CFC80C
:100DE000BCB6202020CAA3D3E0D5BB2020C8CECEDD
:100DF000F1D0F2BAC5200D0A0000000025730000F2
:100E0000C8CECEF1C3FB2020202020D4CBD0D0BC34
:100E1000C6CAFD2020202020202020202020C0FB2A
:100E2000D3C3C2CA202020202020202020200D0A49
:100E3000000000002D2D2D2D2D2D2D2D2D2D2D2D96
:100E40002D2D2D2D2D2D2D2D2D2D2D2D2D2D2D2DD2
:100E50002D2D2D2D2D2D2D2D2D2D2D2D2D2D2D2DC2
:100E60002D0D0A002DE9F04707463E462EB940F207
:100E700075521DA121A0FFF749FE24480068864253
:100E800001D100242DE000F025FD75692048D0F83F
:100E900000802048D0F8009000F060FD454501D06A
:100EA0004D4501D102241CE01B48854212D1B06A95
:100EB00070B90324002007E006F15401095C012900
:100EC00001D1022402E0401C0128F5DB00BF08E04C
:100ED000022406E01148854200D00DB9042400E048
:100EE00001242046BDE8F0872E2E5C4672656552CF
:100EF000544F535C7461736B732E63004572726F51
:100F0000723A25732C25640D0A0000003C00002075
:100F100040000020440000201405002000050020AF
:100F200070B504460D46E1B20548FFF7E9FD00BF84
:100F300080210348FFF76AFD0028F9D0204670BDE4
:100F4000003801400FE002210748FFF735FA4FF45F
:100F5000FA7000F0B3FD02210348FFF72BFA4FF4BB
:100F6000FA7000F0ABFDEEE7000C01401CB5482024
:100F7000FFF7DCFB4FF44070FFF7B4FAFFF740FADD
:100F8000FFF71EFAFFF700FD48216420FFF740FC41
:100F90000648012100238022CDE9001004A1074862
:100FA00001F0F2F800F060FF00201CBD14000020EA
:100FB00073746172745F7461736B00001D170008B5
:100FC0002DE9F04105460E46264807682648006888
:100FD000001D00F0D9FB50B92348006890F82C1090
:100FE0000120884021490968814320480160681C2C
:100FF000D8B9D6B11E4948681B49096888601A49A2
:1010000082680968CA6018490968091D82685160C8
:1010100015490968091D8160154A134909684A6123
:1010200011460968491C11601AE07C190E480068D5
:101030004460BC4207D20C480168091D0D48006895
:1010400000F022FC0CE008480168091D0A4800680D
:1010500000F01AFC09480068844201D20748046085
:10106000BDE8F081500000203C000020540000202A
:101070001405002044000020400000206C000020E7
:1010800010B5044600F026FC31480068401C304989
:1010900008603048006840B92E480460084600687F
:1010A00001280DD100F058F90AE02B48006838B942
:1010B00028480068C06AE16A884201D8254804606F
:1010C00026480068401C254908600846006860649E
:1010D00094F82C10012088402149096808432049D0
:1010E0000860E16A01EB81011E4A02EB8101486858
:1010F000A0608268E260211D826851608160E16ABF
:1011000001EB8101174A02EB81026261E16A01EBA6
:101110008101144A52F82110491CE26A02EB820252
:10112000104B43F8221000F019FC0B48006868B11E
:1011300008480068C06AE16A884207D24FF08050D0
:1011400009490860BFF34F8FBFF36F8F10BD0000D8
:101150004C0000203C0000205800002068000020C7
:10116000540000204402002004ED00E010B516E019
:1011700000F0B0FB0C48C068C468201D00F004FB00
:101180000A480068401E0949086009480068401E76
:101190000749086000F0E2FB204600F00BF8044825
:1011A00000680028E4D110BD000500204C0000209C
:1011B0004800002010B50446206B00F007FC2046D4
:1011C00000F004FC10BD000030B54FF41043174888
:1011D00000F007042CB1C01D20F00700134C041BC5
:1011E0001B1B0246124C22600024114D6C60D0186B
:1011F000083820F007000F4C206000240D4D2D68AA
:101200006C600C4D2D682C601146441A4C60094CE2
:1012100024680C60084D4C682C60084D4C682C60AC
:101220004FF00044064D2C6030BD00002805002022
:10123000840000208C0000209400002090000020FA
:10124000A000002000BFFFF791FF064800680128BA
:10125000F9D94FF0805004490860BFF34F8FBFF3B6
:101260006F8FF0E74402002004ED00E02DE9F05F0D
:1012700082460E4690469B460A9F0C9C4FEA880188
:10128000A522206BFEF7BEFFA8F10100216B01EB48
:10129000800929F0070909F0070008B9012000E0DA
:1012A000002028B94FF4587222A127A0FFF72EFC86
:1012B00086B1002507E0715D04F134004155705D91
:1012C00000B902E06D1C102DF5D300BF00214320B2
:1012D000015502E0002084F83400202F01D20120C3
:1012E00000E0002028B940F2973212A116A0FFF7C3
:1012F0000DFC202F00D31F27E762201D00F0C1FA4C
:1013000004F1180000F0BDFA2461C7F12000A061CB
:1013100064620020E064206584F854005A46514617
:10132000484600F0E9F920600B9808B10B9804607A
:10133000BDE8F09F2E2E5C4672656552544F535C9B
:101340007461736B732E63004572726F723A25730A
:101350002C25640D0A00000010B5002407E004EB02
:1013600084010F4A02EB810000F07EFA641C202CFD
:10137000F5D30C4800F078FA0B4800F075FA0B48EA
:1013800000F072FA0A4800F06FFA0A4800F06CFAAE
:1013900004480949086004480849086010BD000075
:1013A00044020020C4040020D8040020EC040020E3
:1013B000000500201405002040000020440000200B
:1013C00010B50146164800E0006803688B42FBD365
:1013D0000246436813448B4204D143684C6823445B
:1013E000436001460A464B6813440468A34211D186
:1013F0000C4C03682468A34208D04B6804686468F6
:1014000023444B6003681B680B6005E0054B1B68B9
:101410000B6001E003680B60884200D0016010BDE2
:10142000840000208C0000202DE9F04707460C4680
:1014300090460026206848B32046416849684160CC
:1014400000F1080142688A4202D14168496841605E
:101450004168D1F80C9000BF20464168496841605E
:1014600000F1080142688A4202D14168496841603E
:101470004168CD6806EBC60007EB800143460122B8
:10148000284600F0DFFB761C4D45E5D13046BDE82F
:10149000F087000009480068006808B9012000E0F2
:1014A000002020B14FF0FF300549086005E00348F7
:1014B0000068C0680068024908607047400000206A
:1014C0006C0000200246002101E0521C491C1078EB
:1014D000A528FAD0890888B2704700000B48006838
:1014E000401C08B9012000E0002020B9CE2208A14C
:1014F00012A0FFF70BFB00BF502080F31188BFF351
:101500004F8FBFF36F8F00BF00BFFEE7A400002026
:101510002E2E5C4672656552544F535C706F727428
:1015200061626C655C525644535C41524D5F434D61
:10153000335C706F72742E63000000004572726F2E
:10154000723A25732C25640D0A00000070B505461B
:101550000E4631462846FEF76EFE2846FEF764FE2C
:10156000044602E020202855641C0F2CFAD30020EA
:101570002855281970BD00002DE9F04104464FF0B0
:10158000000800F0CBFC4848006808B9FFF71CFED3
:10159000464800682040002873D114B304F10800C5
:1015A000A0421ED9083404F00700D8B104F00700A7
:1015B000C0F108002044A04211D904F00700C0F196
:1015C0000800044404F0070008B9012000E00020EE
:1015D00040B99C2236A140A0FFF798FA02E000240F
:1015E00000E00024002C4CD03F480068844248D8DA
:1015F0003E4E3046056801E02E462D686868A042E0
:1016000002D228680028F7D127480068854238D0E0
:10161000306800F10808286830606868001B1028EE
:1016200013D92F1907F0070008B9012000E00020A6
:1016300020B9CF221EA128A0FFF768FA6868001B16
:1016400078606C603846FFF7BBFE27496868096818
:10165000081A254908600846006825490968884233
:1016600003D2214800682249086010496868096867
:1016700008436860002028601E480068401C1D491F
:10168000086000F0ABFE08F0070008B9012000E098
:10169000002028B94FF4887205A10FA0FFF736FA91
:1016A0004046BDE8F08100008C000020A000002032
:1016B0002E2E5C4672656552544F535C706F727487
:1016C00061626C655C4D656D4D616E675C686561FE
:1016D000705F342E630000004572726F723A25739A
:1016E0002C25640D0A0000009000002084000020DA
:1016F0009400002098000020001F4FF080730360CA
:10170000001F21F001030360001F034B0360143826
:101710000260203870470000DD1400081CB5044644
:1017200000F0D8F80D48012100233222CDE9001045
:101730000BA10E4800F028FD0D48042100233222A1
:10174000CDE900100BA10E4800F01EFD0D48006809
:1017500000F0EEF900F002F91CBD000018000020B6
:101760006C6564315F7461736B000000450F0008A5
:101770001C0000206370755F7461736B00000000D3
:10178000390D00081400002001460A69D1E9013032
:101790009860D1E9010358605068884201D1886897
:1017A0005060002008611068401E1060106870478B
:1017B0002DE9F0410546884616460024202700F012
:1017C000ADFB2248006880453AD300BF7F1E07EB7F
:1017D00087021F4B03EB820104EBC40205EB82007E
:1017E0000122FFF721FE0444002FEFD104EBC401D6
:1017F00005EB8100022217490968FFF715FE044432
:1018000004EBC40105EB8100022213490968FFF7CC
:101810000BFE044404EBC40105EB810004220F49D4
:10182000FFF702FE044404EBC40105EB8100032230
:101830000B49FFF7F9FD044416B10A48006830600F
:1018400000F0CCFD2046BDE8F08100004C000020F7
:101850004402002040000020440000200005002039
:10186000140500203800002000F1080141604FF00D
:10187000FF31816000F10801C16001610021016058
:10188000704700210161704710B502460B685C1C6F
:101890000CB9106907E002F1080000E040684468F4
:1018A00024689C42FAD944684C604C68A160886006
:1018B00041600A611468641C146010BD42684A608B
:1018C00093688B60936859609160086103685B1C42
:1018D0000360704710B500BF502080F31188BFF33C
:1018E0004F8FBFF36F8F00BF0B480068401C0A4941
:1018F00008600846006801280DD108480068C0B299
:1019000008B9012000E0002028B940F2731204A1B8
:101910000EA0FFF7FBF810BDA400002004ED00E0CE
:101920002E2E5C4672656552544F535C706F727414
:1019300061626C655C525644535C41524D5F434D4D
:10194000335C706F72742E63000000004572726F1A
:10195000723A25732C25640D0A00000010B50B485F
:10196000006828B94FF4BD7209A114A0FFF7CEF8A2
:1019700006480068401E054908600846006820B90E
:10198000002080F3118800BF00BF10BDA40000201C
:101990002E2E5C4672656552544F535C706F7274A4
:1019A00061626C655C525644535C41524D5F434DDD
:1019B000335C706F72742E63000000004572726FAA
:1019C000723A25732C25640D0A00000070B5064696
:1019D0003546002E3AD0083D2C461D4960680968FE
:1019E000084008B1012000E0002028B94FF49272AD
:1019F00018A122A0FFF78AF8206808B9012000E0AA
:101A0000002028B940F2251212A11CA0FFF77EF891
:101A10000F49606809680840C0B12068B0B90C4936
:101A2000606809688843606000F078FA1749606868
:101A300009680844154908602046FFF7C1FC1448AE
:101A40000068401C1249086000F0C8FC70BD00002E
:101A5000A00000202E2E5C4672656552544F535CE8
:101A6000706F727461626C655C4D656D4D616E671F
:101A70005C686561705F342E630000004572726FB0
:101A8000723A25732C25640D0A0000009000002096
:101A90009C00002000204FF0E0210861886106488A
:101AA00000684FF47A71B0FBF1F0401E4FF0E02176
:101AB00048610720086170472000002070B5044687
:101AC0000025ACB10F48006808B9012000E00020F3
:101AD00028B940F249520CA110A0FFF717F800F006
:101AE0001DFA00212046FFF76BFA00F077FC05464F
:101AF0003DB94FF080500D490860BFF34F8FBFF3E1
:101B00006F8F70BD780000202E2E5C467265655286
:101B1000544F535C7461736B732E63004572726F24
:101B2000723A25732C25640D0A00000004ED00E0D4
:101B300070B50546FFF7CEFE15B92F48006800E0E6
:101B400028460446201DFFF71FFE78B9E06A00EB27
:101B500080002A4951F8200040B994F82C10012047
:101B6000884027490968814325480160A06A18B167
:101B700004F11800FFF708FE22480068401C2149C4
:101B800008601D480068844209D1211D1E48FFF7E6
:101B900095FE1E480068401C1C49086006E01C4871
:101BA0000068401E1A490860FFF774FCFFF7D6FE74
:101BB00011480068844202D02046FFF7FBFA15481E
:101BC0000068C0B10C480068844214D11248006813
:101BD00008B9012000E0002028B940F2DC420FA142
:101BE00013A0FEF793FF4FF0805015490860BFF334
:101BF0004F8FBFF36F8F70BD3C0000204402002068
:101C0000540000206800002000050020480000204B
:101C10004C00002058000020780000202E2E5C464A
:101C200072656552544F535C7461736B732E63001D
:101C30004572726F723A25732C25640D0A000000FC
:101C400004ED00E02DE9F04107460C4690461E46A3
:101C500017B91C48006800E038460546256005F1C4
:101C600034006060E86A2061286BE061686CA06005
:101C700000206061E86CA061052E12D01148006858
:101C8000854202D1002020730FE02673032E0CD171
:101C900000F044F9A86A08B10220207300F09EFB0E
:101CA00003E02846FFF7DEF82073B8F1000F04D0F8
:101CB000286BFFF707FC208401E000202084BDE8AA
:101CC000F08100003C0000202DE9F843064600208A
:101CD00030702748D0F800800146096801EBC10147
:101CE0008800FFF749FC0546002D3FD06A46414673
:101CF0002846FFF75DFD804664210098B0FBF1F0B7
:101D00000090009800282ED000242AE004EBC400A4
:101D100005EB800080690099B0FBF1F704EBC4008B
:101D200005EB800041683046FFF710FC064657B1CE
:101D300004EBC40005EB80003B460EA182693046EF
:101D4000FEF7F4FE08E004EBC40005EB80000CA1F4
:101D500082693046FEF7EAFE3046FEF765FA064431
:101D6000641C4445D2D32846FFF730FEBDE8F88313
:101D70004C0000200925750909257525250D0A0047
:101D800009257509093C3125250D0A002DE9FC417D
:101D90000646002030702F4807680146096801EBAD
:101DA000C1018800FFF7E8FB0546002D50D0002256
:101DB00039462846FFF7FCFC0746002443E004EBC5
:101DC000C40005EB8000007B062813D2DFE800F09A
:101DD0000306090C0F134FF058080FE04FF052089C
:101DE0000CE04FF0420809E04FF0530806E04FF0D6
:101DF000440803E000BF4FF0000800BF00BF04EB41
:101E0000C40005EB800041683046FFF79FFB0646A3
:101E100004EBC40005EB8000806804EBC40105EB13
:101E20008101098CCDE9001004EBC40005EB8000B2
:101E3000424609A103693046FEF778FE3046FEF7B8
:101E4000F3F90644641CBC42B9D32846FFF7BEFD33
:101E5000BDE8FC814C000020092563092575092592
:101E6000750925750D0A00001CB51A4800210B469E
:101E70008022CDE9001018A1194800F085F9044628
:101E8000012C17D100BF502080F31188BFF34F8F72
:101E9000BFF36F8F00BF4FF0FF3012490860012081
:101EA000114908600020114908601149086000F0DC
:101EB000B1F80BE0601C08B1012000E0002028B957
:101EC0004FF404620BA110A0FEF720FE1248006838
:101ED0001CBD00007000002049444C45000000007B
:101EE000451200086C00002058000020500000201F
:101EF000380000202E2E5C4672656552544F535CAC
:101F00007461736B732E63004572726F723A25733E
:101F10002C25640D0A0000007400002002480068AF
:101F2000401C0149086070477800002010B528481F
:101F3000006818B101202749086047E000202549C2
:101F4000086025480068254908600846006824495B
:101F5000096888420BD92349096801F14C00C96C12
:101F60001E4A12681E4B1B68D21A114401601B489E
:101F700000681B4908601C480068B0FA80F0C0F196
:101F80001F0404EB8400194951F8200008B1012016
:101F900000E0002028B940F6024215A119A0FEF782
:101FA000B5FD04EB8401114A02EB810041684968E8
:101FB000416000F1080142688A4202D141684968E3
:101FC00041604168C968074A116000BF10BD000048
:101FD00078000020600000203800002080000020F1
:101FE0007C0000203C00002054000020440200201F
:101FF0002E2E5C4672656552544F535C7461736B50
:10200000732E63004572726F723A25732C25640D2E
:102010000A0000001CB53B4C204600780190FF20D0
:10202000214608700846007800909DF8000000F0F6
:10203000F0009DF80010884201D1012000E000204E
:1020400028B940F21F1230A13AA0FEF75FFD9DF8BB
:10205000000000F050003B49087007203A49086032
:1020600009E039480068401E374908609DF80000C3
:102070004006000E00909DF8000000F080008028CF
:10208000EFD031480068C0F10700042801D10120D9
:1020900000E0002028B940F233121BA125A0FEF772
:1020A00035FD29480068C0F10700042801D101204E
:1020B00000E0002028B94FF49E7213A11DA0FEF786
:1020C00025FD2148006800021F4908600846008875
:1020D00000F4E06008600B49019808701B48006834
:1020E00040F47000194908600846006840F07040EC
:1020F0000860FFF7CFFC002015490860FEF736F8AE
:1021000000201CBD00E400E02E2E5C467265655286
:10211000544F535C706F727461626C655C525644CC
:10212000535C41524D5F434D335C706F72742E634C
:10213000000000004572726F723A25732C25640D01
:102140000A000000A8000020AC00002020ED00E004
:10215000A400002010B500BF502080F31188BFF309
:102160004F8FBFF36F8F00BF00F04EF818B14FF0E4
:1021700080500449086000BF002080F3118800BF30
:1021800010BD000004ED00E02DE9FF4F85B0804652
:1021900089461746DDE912ABB800FFF7EDF90646B0
:1021A00056B15820FFF7E8F904460CB1266304E065
:1021B0003046FFF70BFC00E000247CB10020CDE9A5
:1021C00000ABCDE902403A4649464046089BFFF73E
:1021D0004DF82046FEF754FF012501E04FF0FF3592
:1021E000284609B0BDE8F08F0549096809B9012002
:1021F00005E00449096809B9022000E000207047A1
:1022000058000020780000202DE9F0414FF0000830
:102210005E48006800287DD15D480068451C5C4828
:102220000560EDB95B480068006808B9012000E06E
:10223000002028B940F6C72257A15CA0FEF766FC33
:10224000544807685D480068524908605B48076069
:102250005B480068401C5A490860FFF71BF900BF43
:1022600058480068854277D300BF4A480068006834
:1022700008B9012000E0002020B14FF0FF305149A3
:10228000086068E043480068C068C4686668B54292
:1022900002D24C4806605EE06069D4E902128A60AE
:1022A000D4E902214A60211D42688A4201D1E168D5
:1022B0004160002262610168491E0160A06A98B114
:1022C000A06AD4E907128A60D4E907214A6004F1C0
:1022D000180142688A4201D1216A41600022A2624B
:1022E0000168491E016000BF94F82C10012088404D
:1022F00035490968084334490860E16A01EB810106
:10230000324A02EB81014868A0608268E260211DC8
:10231000826800E032E051608160E16A01EB810196
:102320002A4A02EB81026261E16A01EB8101274ADC
:1023300052F82110491CE26A02EB8202234B43F857
:1023400022102349E06A0968C96A88428DD34FF098
:1023500001088AE700E000BF1D480068C06A00EB82
:1023600080001A4951F82000012801D94FF00108D6
:102370001848006808B14FF0010804E016480068EA
:10238000401C154908604046BDE8F08178000020F7
:1023900050000020400000202E2E5C4672656552E1
:1023A000544F535C7461736B732E63004572726F8C
:1023B000723A25732C25640D0A00000044000020A9
:1023C000640000206C000020540000204402002023
:1023D0003C000020600000205C00002070B500245C
:1023E00000265048006828B940F6B3024EA153A019
:1023F000FEF78CFBFFF76EFA4A480068401E494919
:1024000008600846006800287ED15048006800280F
:102410007AD05BE04E48C068C468A06AD4E907126D
:102420008A60D4E907214A6004F1180142688A42AF
:1024300001D1216A41600022A2620168491E016047
:102440006069D4E902128A60D4E902214A60211D40
:1024500042688A4201D1E1684160002262610168FC
:10246000491E016094F82C10012088403949096800
:10247000084338490860E16A01EB8101364A02EB02
:1024800081014868A0608268E260211D8268516015
:102490008160E16A01EB81012F4A02EB81026261F6
:1024A000E16A01EB81012C4A52F82110491CE26AD1
:1024B00002EB8202284B43F822102849E06A09689F
:1024C000C96A884202D30120254908602048006873
:1024D00008B9012000E0002000289BD00CB1FEF7D5
:1024E000D9FF2048056865B100BFFFF78DFE10B128
:1024F00001201B4908606D1E002DF6D100201949EE
:1025000008601748006800E008E038B1012630078D
:1025100015490860BFF34F8FBFF36F8FFFF71EFAA7
:10252000304670BD780000202E2E5C4672656552E4
:10253000544F535C7461736B732E63004572726FFA
:10254000723A25732C25640D0A0000004C0000200F
:10255000EC04002054000020440200203C00002035
:10256000600000205C00002004ED00E08C250008E5
:1025700000000020B4000000540B000840260008B2
:10258000B400002074980000640B000800000000F4
:1025900001020304010203040607080902040608F5
:1025A00000000000000000000000000000A24A043B
:1025B00000000000000000000102030406070809F3
:1025C000000000000000000000000000000000000B
:1025D00000000000000000000000000000000000FB
:1025E00000000000000000000000000000000000EB
:1025F00000000000000000000000000000000000DB
:102600001F000000000000000000000000000000AB
:1026100000000000000000000000000000000000BA
:1026200000000000000000000000000000000000AA
:10263000AAAAAAAA000000000000000000000000F2
:04000005080001E10D
:00000001FF
