:020000040800F2
:1000000078060020CD01000839040008EB03000841
:10001000350400088702000865060008000000009B
:100020000000000000000000000000005D04000867
:100030008B020008000000003B040008E5050008F2
:10004000E7010008E7010008E7010008E7010008F0
:10005000E7010008E7010008E7010008E7010008E0
:10006000E7010008E7010008E7010008E7010008D0
:10007000E7010008E7010008E7010008E7010008C0
:10008000E7010008E7010008E7010008E7010008B0
:10009000E7010008E7010008E7010008E7010008A0
:1000A000E7010008E7010008E7010008E701000890
:1000B000E7010008E7010008E7010008E701000880
:1000C000E7010008E7010008E7010008E701000870
:1000D000E7010008E7010008E7010008E701000860
:1000E000E7010008E7010008E7010008E701000850
:1000F000E7010008E7010008E7010008E701000840
:10010000E7010008E7010008E7010008E70100082F
:10011000E7010008E7010008E7010008E70100081F
:10012000E7010008E7010008E7010008E70100080F
:1001300000F002F800F03AF80AA090E8000C8244BF
:100140008344AAF10107DA4501D100F02FF8AFF29C
:10015000090EBAE80F0013F0010F18BFFB1A43F0A5
:10016000010318477005000090050000103A24BFF5
:1001700078C878C1FAD8520724BF30C830C144BF0C
:1001800004680C607047000000230024002500264E
:10019000103A28BF78C1FBD8520728BF30C148BFEA
:1001A0000B6070471FB51FBD10B510BD00F031F8D2
:1001B0001146FFF7F7FF00F057FA00F04FF803B4CD
:1001C000FFF7F2FF03BC00F057F800000948804732
:1001D00009480047FEE7FEE7FEE7FEE7FEE7FEE729
:1001E000FEE7FEE7FEE7FEE704480549054A064B41
:1001F00070470000ED05000831010008780000207C
:1002000078060020780200207802002070477047AE
:100210007047754600F02CF8AE4605006946534617
:1002200020F00700854618B020B5FFF7DDFFBDE8D8
:1002300020404FF000064FF000074FF000084FF04D
:10024000000B21F00701AC46ACE8C009ACE8C009DE
:10025000ACE8C009ACE8C0098D46704710B504464B
:10026000AFF300802046BDE81040FFF7A8BF0000B4
:10027000004870471800002001491820ABBEFEE777
:1002800026000200704700BFFEE7704731B50D48F9
:1002900000684FF47A71B0FBF1F4204600F054F995
:1002A0000949009808604FF0E020006940F0010023
:1002B0004FF0E021086100BF034800680028FBD12F
:1002C00038BD000000000020140000202DE9F0419E
:1002D000024600250026002000230024002791F874
:1002E00003C00CF00F0591F803C00CF0100CBCF12A
:1002F000000F03D091F802C04CEA050591F800C048
:10030000BCF1000F31D0146800202BE04FF0010C3D
:100310000CFA00F3B1F800C00CEA03069E4220D1AB
:1003200083004FF00F0C0CFA03F7BC4305FA03FCF3
:100330004CEA040491F803C0BCF1280F06D14FF039
:10034000010C0CFA00FCC2F814C00AE091F803C0DA
:10035000BCF1480F05D14FF0010C0CFA00FCC2F8BB
:1003600010C0401C0828D1D31460B1F800C0BCF103
:10037000FF0F34DD546800202EE000F1080C4FF030
:10038000010808FA0CF3B1F800C00CEA03069E421B
:1003900021D183004FF00F0C0CFA03F7BC4305FA90
:1003A00003FC4CEA040491F803C0BCF1280F05D10A
:1003B00000F1080C08FA0CF8C2F8148091F803C098
:1003C000BCF1480F07D100F1080C4FF0010808FA02
:1003D0000CF8C2F81080401C0828CED35460BDE849
:1003E000F081416170470161704700BFFEE7000086
:1003F00008B50121082000F021F82320ADF8000005
:1004000010208DF8030003208DF80200694608488B
:10041000FFF75CFF01210648FFF7E5FF02210448D2
:10042000FFF7E1FF20210248FFF7DDFF08BD0000D4
:10043000000C014000BFFEE77047704729B1064A33
:1004400092690243044B9A6104E0034A9269824331
:10045000014B9A617047000000100240704710B5D0
:1004600000F002F810BD00000CB5002001900090D3
:100470003348006840F480303149086000BF30489C
:10048000006800F4003000900198401C0190009832
:1004900018B90198B0F5A06FF1D12948006800F4AF
:1004A000003010B10120009001E000200090009881
:1004B000012843D12348006840F01000214908601A
:1004C0000846006820F0030008600846006840F015
:1004D000020008601A4840681949486008464068A8
:1004E00048600846406840F48060486008464068BC
:1004F00020F47C1048600846406840F4E8104860EA
:100500000846006840F08070086000BF0C48006832
:1005100000F000700028F9D00948406820F003007E
:10052000074948600846406840F00200486000BF44
:100530000348406800F00C000828F9D10CBD000009
:10054000001002400020024030B50146B1F1807F2A
:1005500001D3012030BD21F07F40401E4FF0E0224A
:10056000506150170F22002807DA13071D0E094BA0
:1005700000F00F04241F1D5503E013071C0E064B4B
:100580001C5400BF00204FF0E02290610720106152
:100590000020DFE718ED00E000E400E031B510488E
:1005A00000684FF47A71B0FBF1F52846FFF7CCFFF5
:1005B000002408E000BF4FF0E020006900F4803024
:1005C0000028F8D0641C00988442F3D34FF0E02058
:1005D000006920F001004FF0E021086138BD000003
:1005E0000000002010B500F031F810BD10B5134820
:1005F000006840F001001149086008464068104951
:1006000008400E494860084600680E4908400B49FA
:1006100008600846006820F48020086008464068AA
:1006200020F4FE0048604FF41F008860FFF717FFBA
:100630004FF000600449086010BD00000010024047
:100640000000FFF8FFFFF6FE08ED00E00448006838
:1006500020B103480068401E01490860704700004F
:100660001400002000BFFEE7FFF7C2FE2FE02021AC
:100670001748FFF7B6FE4FF4FA60FFF707FE202198
:100680001348FFF7B0FE40F6B830FFF787FF0121AF
:100690000F48FFF7A6FE4FF4FA60FFF7F7FD0121C0
:1006A0000B48FFF7A0FE40F6B830FFF777FF0221B6
:1006B0000748FFF796FE4FF4FA60FFF7E7FD0221C7
:1006C0000348FFF790FE40F6B830FFF767FFCEE72C
:1006D000000C0140F4060008000000201800000093
:1006E0006C0100080C0700081800002060060000DC
:1006F0008801000800A24A04000000000000000079
:0C070000010203040607080900000000C5
:04000005080001CD21
:00000001FF
