:020000040800F2
:1000000090970020E1010008B504000801040008F1
:10001000B1040008CB020008CD0900080000000070
:10002000000000000000000000000000490100087E
:10003000CF020008000000008D01000869070008D9
:10004000FB010008FB010008FB010008FB010008A0
:10005000FB010008FB010008FB010008FB01000890
:10006000FB010008FB010008FB010008FB01000880
:10007000FB010008FB010008FB010008FB01000870
:10008000FB010008FB010008FB010008FB01000860
:10009000FB010008FB010008FB010008FB01000850
:1000A000FB010008FB010008FB010008FB01000840
:1000B000FB010008FB010008FB010008FB01000830
:1000C000FB010008FB010008FB010008FB01000820
:1000D000FB010008FB010008FB010008FB01000810
:1000E000FB010008FB010008FB010008FB01000800
:1000F000FB010008FB010008FB010008FB010008F0
:10010000FB010008FB010008FB010008FB010008DF
:10011000FB010008FB010008FB010008FB010008CF
:10012000FB010008FB010008FB010008FB010008BF
:10013000DFF810D000F098F800480047510D000893
:10014000AFF3008090970020224B19680868B0E850
:10015000F00F80F30988BFF36F8F4FF0000080F33A
:1001600011884EF00D0E7047000000000648006830
:10017000006880F3088862B661B6BFF34F8FBFF3A3
:100180006F8F00DF00BF00BF08ED00E0EFF30980D4
:10019000BFF36F8F0F4B1A6820E9F00F106008B59E
:1001A0004FF0500080F31188BFF34F8FBFF36F8F74
:1001B00001F0B2FC4FF0000080F31188BDE8084068
:1001C00019680868B0E8F00F80F30988BFF36F8FF3
:1001D000704700BF38000020EFF305807047000033
:1001E0000648804706480047FEE7FEE7FEE7FEE7D1
:1001F000FEE7FEE7FEE7FEE7FEE7FEE7D5070008BD
:10020000310100082DE9F05F0546002092469B462B
:1002100088460646814640241BE02846414647461C
:10022000224600F042F853465A46C01A914110D374
:1002300011461846224600F029F82D1A67EB0108EE
:100240004F4622460120002100F020F817EB00095C
:100250004E41201EA4F10104DFDC484631462A4607
:100260004346BDE8F09F0000064C074D06E0E068FD
:1002700040F0010394E8070098471034AC42F6D3ED
:10028000FFF75AFF3021000850210008202A04DB24
:10029000203A00FA02F1002070479140C2F1200399
:1002A00020FA03F3194390407047202A04DB203AD8
:1002B00021FA02F00021704721FA02F3D040C2F186
:1002C0002002914008431946704700BFFEE770477F
:1002D0002DE9F041024600250026002000230024DD
:1002E000002791F803C00CF00F0591F803C00CF043
:1002F000100CBCF1000F03D091F802C04CEA0505C8
:1003000091F800C0BCF1000F31D0146800202BE040
:100310004FF0010C0CFA00F3B1F800C00CEA030630
:100320009E4220D183004FF00F0C0CFA03F7BC4320
:1003300005FA03FC4CEA040491F803C0BCF1280F51
:1003400006D14FF0010C0CFA00FCC2F814C00AE010
:1003500091F803C0BCF1480F05D14FF0010C0CFA25
:1003600000FCC2F810C0401C0828D1D31460B1F8BA
:1003700000C0BCF1FF0F34DD546800202EE000F116
:10038000080C4FF0010808FA0CF3B1F800C00CEAB1
:1003900003069E4221D183004FF00F0C0CFA03F7A5
:1003A000BC4305FA03FC4CEA040491F803C0BCF119
:1003B000280F05D100F1080C08FA0CF8C2F81480D7
:1003C00091F803C0BCF1480F07D100F1080C4FF0C1
:1003D000010808FA0CF8C2F81080401C0828CED397
:1003E0005460BDE8F0810246002093680B400BB1D9
:1003F000012000E0002070474161704701617047B3
:1004000000BFFEE708B50121142000F0ABF8012081
:10041000ADF8000004208DF8030069460748FFF797
:1004200057FF4FF40050ADF8000004208DF8030092
:1004300069460348FFF74CFF08BD00000008014073
:100440000010014070B504460D4629462046FFF7CE
:10045000CAFF012808D100BF29462046FFF7C3FF85
:100460000128F9D0012070BD0020FCE708B501216A
:10047000082000F077F82320ADF8000010208DF858
:10048000030003208DF8020069460848FFF720FFAB
:1004900001210648FFF7B2FF02210448FFF7AEFF33
:1004A00020210248FFF7AAFF08BD0000000C014010
:1004B00000BFFEE7704708B54FF4407000F048F801
:1004C00025208DF8000006208DF8010000208DF811
:1004D000020001208DF80300684600F001F808BD15
:1004E00070B5002100230F22C47804B3154C246892
:1004F00004F4E064C4F5E064210AC1F10403CA40D5
:10050000447804FA03F184781440214309010E4C25
:100510000678A155047804F01F050124AC40057845
:100520006D11AD0005F1E025C5F8004109E0047842
:1005300004F01F050124AC40044D0678761145F8FF
:10054000264070BD0CED00E000E400E080E100E03A
:1005500002490143024A1160704700000000FA0599
:100560000CED00E029B1064A92690243044B9A61FE
:1005700004E0034A92698243014B9A61704700008C
:100580000010024030B500210022002400232D4D30
:100590006D6805F00C0121B1042905D0082923D18B
:1005A00005E0294D056022E0274D05601FE0254D3F
:1005B0006D6805F47012234D6D6805F480340225D2
:1005C00005EB92421CB9214D554305600BE01D4DD2
:1005D0006D6805F400351DB11C4D5543056002E002
:1005E000194D5543056002E0174D056000BF00BF7F
:1005F000144D6D6805F0F0010909154D6B5C056837
:10060000DD4045600F4D6D6805F4E061090A104D4D
:100610006B5C4568DD4085600A4D6D6805F460518E
:10062000C90A0B4D6B5C4568DD40C560054D6D68C2
:1006300005F44041890B074D6B5CC568B5FBF3F5CC
:10064000056130BD0010024000127A0000093D0033
:10065000000000201000002010B500F001F810BDCF
:100660000CB50020019000903348006840F48030C1
:100670003149086000BF3048006800F40030009045
:100680000198401C0190009818B90198B0F5A06F2E
:10069000F1D12948006800F4003010B10120009029
:1006A00001E0002000900098012843D12348006811
:1006B00040F01000214908600846006820F003005F
:1006C00008600846006840F0020008601A48406868
:1006D000194948600846406848600846406840F448
:1006E000806048600846406820F47C1048600846F6
:1006F000406840F4E81048600846006840F08070A8
:10070000086000BF0C48006800F000700028F9D0B5
:100710000948406820F003000749486008464068DF
:1007200040F00200486000BF0348406800F00C0041
:100730000828F9D10CBD0000001002400020024042
:10074000042808D14FF0E021096941F004014FF07D
:10075000E022116107E04FF0E021096921F0040176
:100760004FF0E0221161704710B501F019FB01282C
:1007700001D001F0CBFA10BD70B505460420FFF79B
:10078000DFFF104800681049B0FBF1F00F49087016
:100790000C4800680C49B0FBF1F44FF47A70444304
:1007A00001200B4908804FF0E020006940F0020072
:1007B0004FF0E021086108464461006940F0010003
:1007C000086170BD20000020809698003400002051
:1007D0003600002010B51348006840F001001149B0
:1007E000086008464068104908400E4948600846BD
:1007F00000680E4908400B4908600846006820F46C
:10080000802008600846406820F4FE0048604FF4ED
:100810001F008860FFF720FF4FF000600449086068
:1008200010BD0000001002400000FFF8FFFFF6FEC0
:1008300008ED00E021B1828942F40052828104E097
:1008400082894DF6FF731A408281704700B585B0EA
:1008500001210420FFF786FE01218803FFF782FEB5
:100860004FF40070ADF8100018208DF8130003202D
:100870008DF8120004A91448FFF72AFD4FF4806098
:10088000ADF8100004208DF8130004A90E48FFF7FE
:100890001FFD4FF4E13000900020ADF80400ADF8EA
:1008A0000600ADF80800ADF80C000C20ADF80A0009
:1008B0006946064800F01AF8FFF7FDFD01210348DC
:1008C000FFF7B8FF05B000BD000801400038014047
:1008D00002460020B1F5007F00D100BF13880B4015
:1008E0000BB1012000E00020704700002DE9F04727
:1008F00086B005460E460024A24600BFA14600274A
:10090000B08900B100BF2F462C8A4CF6FF7004401E
:10091000F08804432C82AC894EF6F3100440B08872
:1009200031890843718908430443AC81AC8A4FF68E
:10093000FF400440B0890443AC8201A8FFF722FEC7
:100940001F48874202D1DDF810A001E0DDF80CA0BD
:10095000A88900F4004040B10AEBCA0000EB0A107D
:1009600031684900B0FBF1F807E00AEBCA0000EB80
:100970000A1031688900B0FBF1F86420B8FBF0F090
:1009800004012009642101FB1089A88900F40040BA
:1009900040B1322000EBC900B0FBF1F000F00700DD
:1009A000044308E0322000EB09106421B0FBF1F0B1
:1009B00000F00F0004432C8106B0BDE8F087000072
:1009C00000380140C1F308028280704700BFFEE793
:1009D0000FB4054B10B503A9044A029800F02CF897
:1009E00010BC5DF814FB0000050D0008A4000020F9
:1009F0000FB4084B10B504A902AA039800F01CF824
:100A0000044602A9002000F077F9204610BC5DF8EA
:100A100014FB0000F90C000802E008C8121F08C10E
:100A2000002AFAD170477047002001E001C1121F6F
:100A3000002AFBD1704700002DE9FF4F8DB09B4687
:100A40000F460446002606E025280BD05A460F998B
:100A50009047641C761C20780028F5D111B03046F0
:100A6000BDE8F08F0025A8460122984900E0054323
:100A700014F8013F203B02FA03F00842F7D1207836
:100A80002E2817D114F8010F45F004052A280ED09E
:100A90006FF02F022078A0F1300109290AD808EB65
:100AA000880102EB410100EB0108641CF2E757F8F2
:100AB000048B641C20786C280DD004DC4C2812D0E8
:100AC0006A2811D104E074280DD07A280CD10AE0EC
:100AD00045F4001507E0617845F48015814202D1A4
:100AE000641C05F58015641C2078692844D008DC56
:100AF0000028B3D0582867D063280FD0642808D1C5
:100B00003AE0702865D0732812D075285AD078281A
:100B10005AD05A460F999047761CD5E017F8040B27
:100B20008DF8000000208DF80100E946012003E067
:100B300057F8049B4FF0FF3069074FF0000501D4D0
:100B40000AE06D1C45450DDA8542FADB19F80510FF
:100B50000029F6D106E06D1C8542FCDB19F8051072
:100B60000029F8D12E4404E019F8010B5A460F99D8
:100B700090476D1EF8D2A7E00A200021CDE90801B8
:100B8000C5F3025002280CD001CFC117021E71F12B
:100B900000020CDA0023D0EB030063EB01012D22ED
:100BA00008E0FF1D27F00707F7E80201EEE72A0536
:100BB00004D52B228DF8282001223CE0EA073AD008
:100BC0002022F7E70A2000E010200021CDE90801EB
:100BD00007E01020002145F00405CDE908014FF0A1
:100BE0000808C5F30250022810D001CF00214FF0B1
:100BF000000A2A0720D52278702A0DD0DDE908C323
:100C00008CF0100C5CEA030C0CD015E0FF1D27F0F3
:100C10000707F7E80201EAE740228DF828204FF0A5
:100C2000010A0CE050EA010306D030238DF8283089
:100C30008DF82920022292462278582A04D024A234
:100C40000DF120090B9209E026A2F9E7DDE908235E
:100C5000FFF7D8FA0B9B9B5C09F8013D50EA0102B3
:100C6000F4D1ADEB090020300890680701D44FF0B3
:100C700001080899884503DD0898A8EB000000E00A
:100C800000208046002506E00AA85A46405D0F99DC
:100C900090476D1C761C5545F6DB04E030205A4623
:100CA0000F999047761CB8F10001A8F10108F5DC16
:100CB00005E019F8010B5A460F999047761C0899E0
:100CC000481E08900029F4DC641CC4E609280100D1
:100CD00030313233343536373839616263646566B2
:100CE0000000000030313233343536373839414274
:100CF00043444546000000000A68531C0B60107016
:100D00007047000070B504460D46E1B20548FFF794
:100D100059FE00BF80210348FFF7DAFD0028F9D013
:100D2000204670BD003801400FE002210748FFF760
:100D300065FB4FF4FA7000F0CDFD02210348FFF788
:100D40005BFB4FF4FA7000F0C5FDEEE7000C0140CC
:100D50001CB54820FFF710FD4FF44070FFF7F8FB7B
:100D6000FFF784FBFFF74EFBFFF770FD06480121FC
:100D700000238022CDE9001004A1074800F0E0FF25
:100D800000F06CFE00201CBD140000207374617222
:100D9000745F7461736B0000ED15000800244BE074
:100DA00001212648FFF74EFB002828D0002C23D134
:100DB00000F006FF0546294621A0FFF709FE4FF483
:100DC000806000F041FB0446214627A0FFF700FEAB
:100DD00000F0F6FE054629462DA0FFF7F9FD00F0CC
:100DE000EFFF0646324630A12046FFF701FE2146BE
:100DF00033A0FFF7EDFD02E036A0FFF7E9FD4FF469
:100E000000513C48FFF71EFB002812D074B13AA0F5
:100E1000FFF7DEFD204600F0E5FC002400F0D0FEE8
:100E20000546294639A0FFF7D3FD02E041A0FFF7B0
:100E3000CFFD142000F04EFDB2E700000008014095
:100E4000CFB5CDB3B5B1C7B0C4DAB4E6B4F3D0A171
:100E5000202564202CBFAACABCC9EAC7EBC4DAB4F7
:100E6000E6210D0A00000000C4DAB4E6C9EAC7EBC7
:100E7000B3C9B9A6A3ACC9EAC7EBB5BDB5C4C4DA5A
:100E8000B4E6B5D8D6B7CEAA2523780D0A0000005F
:100E9000CFB5CDB3B5B1C7B0C4DAB4E6B4F3D0A121
:100EA00020256420210D0A00B5B1C7B0CFB5CDB360
:100EB0005469636B436F756E74203D202564000098
:100EC000D0B4C8EBB5C4CAFDBEDDCAC73A25730DA0
:100ED0000A000000C7EBCFC8B0B4CFC24B455932AF
:100EE000CACDB7C5C4DAB4E6D4D9C9EAC7EB0D0A8E
:100EF0000000000000100140BFAACABCCACDB7C59F
:100F0000C4DAB4E6A3A10D0A00000000CFB5CDB34A
:100F1000B5B1C7B0C4DAB4E6B4F3D0A120256420DB
:100F2000A3ACC4DAB4E6CACDB7C5CDEAB3C9210DC6
:100F30000A000000C7EBCFC8B0B4CFC24B4559314F
:100F4000C9EAC7EBC4DAB4E6BAF3D4D9CACDB7C597
:100F50000D0A00002DE9F04105460E4626480768B7
:100F600026480068001D00F077FB50B92348006850
:100F700090F82C10012088402149096881432048BD
:100F80000160681CD8B9D6B11E4948681B49096878
:100F900088601A4982680968CA6018490968091D89
:100FA0008268516015490968091D8160154A134915
:100FB00009684A6111460968491C11601AE07C19E8
:100FC0000E4800684460BC4207D20C480168091D05
:100FD0000D48006800F064FB0CE008480168091D3A
:100FE0000A48006800F05CFB09480068844201D2AE
:100FF00007480460BDE8F0814C0000203800002064
:101000005000002078030020400000203C00002019
:101010006800002010B5044600F068FB2F48006807
:10102000401C2E4908602E48006840B92C480460D6
:101030000846006801280DD100F04EF90AE0294861
:10104000006838B926480068C06AE16A884201D859
:101050002348046024480068401C2349086094F831
:101060002C10012088402149096808431F49086065
:10107000E16A01EB81011E4A02EB81014868A06030
:101080008268E260211D826851608160E16A01EB43
:101090008101174A02EB81026261E16A01EB810181
:1010A000134A52F82110491CE26A02EB8202104BEB
:1010B00043F8221000F05EFB0A48006868B1084857
:1010C0000068C06AE16A884207D24FF0805009493F
:1010D0000860BFF34F8FBFF36F8F10BD4800002033
:1010E0003800002054000020640000205000002040
:1010F000A800002004ED00E010B516E000F0F6FABC
:101100000C48C068C468201D00F0A6FA0A480068B0
:10111000401E0949086009480068401E07490860E8
:1011200000F028FB204600F00BF804480068002877
:10113000E4D110BD640300204800002044000020DA
:1011400010B50446206B00F04DFB204600F04AFB32
:1011500010BD000030B54FF41043174800F00704ED
:101160002CB1C01D20F00700134C041B1B1B0246B2
:10117000124C22600024114D6C60D018083820F009
:1011800007000F4C206000240D4D2D686C600C4D45
:101190002D682C601146441A4C60094C24680C6080
:1011A000084D4C682C60084D4C682C604FF0004492
:1011B000064D2C6030BD00008C030020780000201C
:1011C000800000208800002084000020940000207F
:1011D00000BFFFF791FF064800680128F9D94FF0DA
:1011E000805004490860BFF34F8FBFF36F8FF0E763
:1011F000A800002004ED00E02DE9FF5F81460E46C7
:101200009246DDE90E7B109CAAF10100216B01EBF7
:10121000800828F0070808F0070008B9012000E05E
:10122000002028B94FF4587222A127A0FFF7D0FB65
:1012300086B1002507E0715D04F134004155705D11
:1012400000B902E06D1C102DF5D300BF0021432032
:10125000015502E0002084F83400202F01D2012043
:1012600000E0002028B940F2973212A116A0FFF743
:10127000AFFB202F00D31F27E762201D00F00DFADF
:1012800004F1180000F009FA2461C7F12000A06100
:1012900064620020606484F8480049464046039A2E
:1012A00000F092F92060BBF1000F01D0CBF80040B4
:1012B000BDE8FF9F2E2E5C4672656552544F535C0D
:1012C0007461736B732E63004572726F723A25738B
:1012D0002C25640D0A00000010B5002407E004EB83
:1012E00084010F4A02EB810000F0CAF9641C202C33
:1012F000F5D30C4800F0C4F90B4800F0C1F90B48D5
:1013000000F0BEF90A4800F0BBF90A4800F0B8F94D
:1013100004480949086004480849086010BD0000F5
:10132000A8000020280300203C03002050030020D8
:1013300064030020780300203C00002040000020CF
:1013400010B50146164800E0006803688B42FBD3E5
:101350000246436813448B4204D143684C682344DB
:10136000436001460A464B6813440468A34211D106
:101370000C4C03682468A34208D04B680468646876
:1013800023444B6003681B680B6005E0054B1B683A
:101390000B6001E003680B60884200D0016010BD63
:1013A000780000208000002009480068006808B923
:1013B000012000E0002020B14FF0FF300549086017
:1013C00005E003480068C06800680249086070478B
:1013D0003C000020680000200B480068401C08B951
:1013E000012000E0002020B9CE2208A112A0FFF7C2
:1013F000EFFA00BF502080F31188BFF34F8FBFF387
:101400006F8F00BF00BFFEE7980000202E2E5C46C5
:1014100072656552544F535C706F727461626C6593
:101420005C525644535C41524D5F434D335C706F88
:1014300072742E63000000004572726F723A257359
:101440002C25640D0A0000002DE9F04104464FF000
:10145000000800F059FB4848006808B9FFF77AFE19
:10146000464800682040002873D114B304F10800F6
:10147000A0421ED9083404F00700D8B104F00700D8
:10148000C0F108002044A04211D904F00700C0F1C7
:101490000800044404F0070008B9012000E000201F
:1014A00040B99C2236A140A0FFF792FA02E0002446
:1014B00000E00024002C4CD03F480068844248D80B
:1014C0003E4E3046056801E02E462D686868A04211
:1014D00002D228680028F7D127480068854238D012
:1014E000306800F10808286830606868001B102820
:1014F00013D92F1907F0070008B9012000E00020D8
:1015000020B9CF221EA128A0FFF762FA6868001B4D
:1015100078606C603846FFF713FF274968680968F0
:10152000081A254908600846006825490968884264
:1015300003D2214800682249086010496868096898
:1015400008436860002028601E480068401C1D4950
:10155000086000F025FD08F0070008B9012000E050
:10156000002028B94FF4887205A10FA0FFF730FAC8
:101570004046BDE8F081000080000020940000207B
:101580002E2E5C4672656552544F535C706F7274B8
:1015900061626C655C4D656D4D616E675C6865612F
:1015A000705F342E630000004572726F723A2573CB
:1015B0002C25640D0A000000840000207800002023
:1015C000880000208C000020001F4FF08073036013
:1015D000001F21F001030360001F034B0360143858
:1015E0000260203870470000D91300081CB504467B
:1015F00000F07CF80D48012100233222CDE90010D3
:101600000BA10E4800F09CFB0D4804210023322260
:10161000CDE900100BA10E4800F092FB0D480068C8
:1016200000F092F900F0A6F81CBD000018000020A0
:101630006C6564315F7461736B000000290D0008F4
:101640001C0000206D656D5F7461736B000000000D
:101650009D0D00081400002001460A69D1E90130FF
:101660009860D1E9010358605068884201D18868C8
:101670005060002008611068401E106010687047BC
:1016800000F1080141604FF0FF31816000F1080175
:10169000C160016100210160704700210161704754
:1016A00010B502460B685C1C0CB9106907E002F12A
:1016B000080000E04068446824689C42FAD9446805
:1016C0004C604C68A160886041600A611468641CC9
:1016D000146010BD42684A6093688B6093685960DB
:1016E0009160086103685B1C0360704710B500BF20
:1016F000502080F31188BFF34F8FBFF36F8F00BF6F
:101700000B480068401C0A49086008460068012828
:101710000DD108480068C0B208B9012000E00020DF
:1017200028B940F2731204A10EA0FFF751F910BDC1
:101730009800002004ED00E02E2E5C467265655294
:10174000544F535C706F727461626C655C525644A6
:10175000535C41524D5F434D335C706F72742E6326
:10176000000000004572726F723A25732C25640DDB
:101770000A00000010B50B48006828B94FF4BD728C
:1017800009A114A0FFF724F906480068401E054986
:1017900008600846006820B9002080F3118800BF67
:1017A00000BF10BD980000202E2E5C467265655269
:1017B000544F535C706F727461626C655C52564436
:1017C000535C41524D5F434D335C706F72742E63B6
:1017D000000000004572726F723A25732C25640D6B
:1017E0000A00000070B506463546002E3AD0083D86
:1017F0002C461D4960680968084008B1012000E0D6
:10180000002028B94FF4927218A122A0FFF7E0F847
:10181000206808B9012000E0002028B940F2251214
:1018200012A11CA0FFF7D4F80F49606809680840AE
:10183000C0B12068B0B90C4960680968884360602D
:1018400000F062F9174960680968084415490860A2
:101850002046FFF775FD14480068401C12490860D7
:1018600000F09EFB70BD0000940000202E2E5C4610
:1018700072656552544F535C706F727461626C652F
:101880005C4D656D4D616E675C686561705F342E9F
:10189000630000004572726F723A25732C25640D47
:1018A0000A000000840000209000002000204FF07B
:1018B000E02108618861064800684FF47A71B0FB46
:1018C000F1F0401E4FF0E0214861072008617047A9
:1018D0002000002070B504460025ACB10F48006818
:1018E00008B9012000E0002028B940F249520CA1BB
:1018F00010A0FFF76DF800F007F900212046FFF770
:1019000029FB00F04DFB05463DB94FF080500D49D5
:101910000860BFF34F8FBFF36F8F70BD740000205E
:101920002E2E5C4672656552544F535C7461736B26
:10193000732E63004572726F723A25732C25640D05
:101940000A00000004ED00E070B50546FFF7CEFE8A
:1019500015B92F48006800E028460446201DFFF70F
:101960007BFE78B9E06A00EB80002A4951F820003C
:1019700040B994F82C100120884027490968814318
:1019800025480160A06A18B104F11800FFF764FE51
:1019900022480068401C214908601D4800688442B4
:1019A00009D1211D1E48FFF795FE1E480068401C06
:1019B0001C49086006E01C480068401E1A4908607F
:1019C000FFF7F2FCFFF7D6FE11480068844202D010
:1019D0002046FFF7B5FB15480068C0B10C48006809
:1019E000844214D11248006808B9012000E00020A8
:1019F00028B940F2DC420FA113A0FEF7E9FF4FF037
:101A0000805015490860BFF34F8FBFF36F8F70BDD3
:101A100038000020A80000205000002064000020B2
:101A200064030020440000204800002054000020EF
:101A3000740000202E2E5C4672656552544F535C34
:101A40007461736B732E63004572726F723A257303
:101A50002C25640D0A00000004ED00E01CB51948B7
:101A600000210B468022CDE9001017A1184800F094
:101A700067F90446012C15D100BF502080F311886E
:101A8000BFF34F8FBFF36F8F00BF4FF0FF3011498F
:101A9000086001201049086000201049086000F02B
:101AA00095F80BE0601C08B1012000E0002028B987
:101AB0004FF404620AA10FA0FEF78AFF11480068E4
:101AC0001CBD00006C00002049444C450000000093
:101AD000D111000868000020540000204C000020B4
:101AE0002E2E5C4672656552544F535C7461736B65
:101AF000732E63004572726F723A25732C25640D44
:101B00000A0000007000002002480068401C0149E3
:101B1000086070477400002010B51B48006818B1B9
:101B200001201A4908602DE0002018490860184873
:101B30000068B0FA80F0C0F11F0404EB840015497E
:101B400051F8200008B1012000E0002028B940F63B
:101B5000024211A115A0FEF73BFF04EB84010D4AE0
:101B600002EB810041684968416000F10801426868
:101B70008A4202D14168496841604168C9680F4A98
:101B8000116000BF10BD0000740000205C00002048
:101B900050000020A80000202E2E5C467265655281
:101BA000544F535C7461736B732E63004572726F94
:101BB000723A25732C25640D0A00000038000020BD
:101BC0000148006870470000840000201CB53B4CB1
:101BD000204600780190FF202146087008460078D2
:101BE00000909DF8000000F0F0009DF80010884281
:101BF00001D1012000E0002028B940F21F1230A1DD
:101C00003AA0FEF7E5FE9DF8000000F050003B49C9
:101C1000087007203A49086009E039480068401E0A
:101C2000374908609DF800004006000E00909DF8BE
:101C3000000000F080008028EFD031480068C0F13B
:101C40000700042801D1012000E0002028B940F25B
:101C500033121BA125A0FEF7BBFE29480068C0F186
:101C60000700042801D1012000E0002028B94FF42A
:101C70009E7213A11DA0FEF7ABFE21480068000272
:101C80001F4908600846008800F4E06008600B49BE
:101C9000019808701B48006840F4700019490860FA
:101CA0000846006840F070400860FFF7FFFD002024
:101CB00015490860FEF75AFA00201CBD00E400E058
:101CC0002E2E5C4672656552544F535C706F727471
:101CD00061626C655C525644535C41524D5F434DAA
:101CE000335C706F72742E63000000004572726F77
:101CF000723A25732C25640D0A0000009C00002018
:101D0000A000002020ED00E09800002010B500BFEA
:101D1000502080F31188BFF34F8FBFF36F8F00BF48
:101D200000F054F818B14FF080500449086000BF2B
:101D3000002080F3118800BF10BD000004ED00E01A
:101D40002DE9FF4F85B0804689461746DDE912AB85
:101D5000B800FFF779FB064656B14C20FFF774FB3D
:101D600004460CB1266304E03046FFF73BFD00E07B
:101D700000247CB10020CDE900ABCDE902403A4619
:101D800049464046089BFFF737FA2046FFF742F9DD
:101D9000012501E04FF0FF35284609B0BDE8F08F7E
:101DA0000549096809B9012005E00449096809B92C
:101DB000022000E000207047540000207400002042
:101DC00001490868704700004C0000202DE9F041EF
:101DD0004FF000085E48006800287DD15D4800682B
:101DE000451C5C480560EDB95B480068006808B9AF
:101DF000012000E0002028B940F6C72257A15CA0CE
:101E0000FEF7E6FD544807685D48006852490860DF
:101E10005B4807605B480068401C5A490860FFF750
:101E2000C3FA00BF58480068854277D300BF4A48CC
:101E30000068006808B9012000E0002020B14FF0E0
:101E4000FF305149086068E043480068C068C468D2
:101E50006668B54202D24C4806605EE06069D4E92B
:101E600002128A60D4E902214A60211D42688A4236
:101E700001D1E1684160002262610168491E016090
:101E8000A06A98B1A06AD4E907128A60D4E9072150
:101E90004A6004F1180142688A4201D1216A416016
:101EA0000022A2620168491E016000BF94F82C1054
:101EB0000120884035490968084334490860E16ACF
:101EC00001EB8101324A02EB81014868A06082681F
:101ED000E260211D826800E032E051608160E16AC9
:101EE00001EB81012A4A02EB81026261E16A01EBA6
:101EF0008101274A52F82110491CE26A02EB820252
:101F0000234B43F822102349E06A0968C96A8842D2
:101F10008DD34FF001088AE700E000BF1D4800683C
:101F2000C06A00EB80001A4951F82000012801D94D
:101F30004FF001081848006808B14FF0010804E0AC
:101F400016480068401C154908604046BDE8F0810D
:101F5000740000204C0000203C0000202E2E5C4627
:101F600072656552544F535C7461736B732E6300DA
:101F70004572726F723A25732C25640D0A000000B9
:101F80004000002060000020680000205000002079
:101F9000A8000020380000205C000020580000202D
:101FA00070B5002400265048006828B940F6B302F6
:101FB0004EA153A0FEF70CFDFFF798FB4A480068BE
:101FC000401E494908600846006800287ED15048F4
:101FD000006800287AD05BE04E48C068C468A06AF8
:101FE000D4E907128A60D4E907214A6004F1180194
:101FF00042688A4201D1216A41600022A2620168DE
:10200000491E01606069D4E902128A60D4E90221A4
:102010004A60211D42688A4201D1E1684160002284
:1020200062610168491E016094F82C10012088400B
:1020300039490968084338490860E16A01EB8101C0
:10204000364A02EB81014868A0608268E260211D87
:10205000826851608160E16A01EB81012F4A02EBE5
:1020600081026261E16A01EB81012C4A52F8211080
:10207000491CE26A02EB8202284B43F822102849ED
:10208000E06A0968C96A884202D3012025490860CC
:102090002048006808B9012000E0002000289BD0FB
:1020A0000CB1FFF781F92048056865B100BFFFF763
:1020B0008DFE10B101201B4908606D1E002DF6D168
:1020C0000020194908601748006800E008E038B1AE
:1020D0000126300715490860BFF34F8FBFF36F8F9C
:1020E000FFF748FB304670BD740000202E2E5C4682
:1020F00072656552544F535C7461736B732E630049
:102100004572726F723A25732C25640D0A00000027
:10211000480000205003002050000020A8000020AC
:10212000380000205C0000205800002004ED00E092
:102130005021000800000020A8000000180A000834
:10214000F8210008A8000020E8960000280A0008EE
:10215000000000000102030401020304060708094D
:10216000020406080000000000000000000000005B
:1021700000A24A0400000000000000000102030465
:102180000607080900000000000000000000000031
:10219000000000000000000000000000000000003F
:1021A000000000000000000000000000000000002F
:1021B000000000000000000000000000000000001F
:1021C0001F000000000000000000000000000000F0
:1021D00000000000000000000000000000000000FF
:1021E0000000000000000000AAAAAAAA0000000047
:0821F0000000000000000000E7
:04000005080001E10D
:00000001FF
